:1000000053C1000019C70000ECC60000BFC60000C5
:1000100092C6000065C6000038C600000BC600008E
:10002000DEC5000072C1000070C100006EC100009A
:100030006CC100000C94A40E68C1000066C10000F1
:1000400064C1000062C1000060C100005EC1000028
:100050005CC100000C94120958C1000076C5000074
:1000600054C1000066C400003BC400004EC1000043
:100070004CC100004AC1000048C1000046C1000058
:1000800044C1000042C1000040C100003EC1000068
:100090003CC100003AC1000038C10000F8C60000B1
:1000A00034C1000032C1000030C100002EC1000088
:1000B0002CC100002AC1000028C1000026C1000098
:1000C00024C1000022C1000020C100001EC10000A8
:1000D0001CC100001AC1000018C1000016C10000B8
:1000E00014C100000A180A180A180A180F18141860
:1000F000141814180F180F180F180F180F180F18BE
:100100000F180F1814181D181D181D181D181D186C
:1001100014181418AE02B102A002A402AA02E80246
:10012000B502B902BF02C302C702CD02D102D50295
:10013000E802DB02DF02E3020000220025002800C3
:100140002B002E00310034000201000005010801DF
:100150000B010A7374617274202874656D70657286
:100160006174757265436F6E74726F6C5359532965
:100170000A00005EBCE2613FDD83C29C7E20A3FDDD
:100180001F41009D23BE46DB65F88C11AF32CA5774
:10019000E97400002100240027002A002D0030000F
:1001A000330001010000040107010A0100000A0BED
:1001B00002090C0D0E0807030401000000000000F6
:1001C000000000000000000000000000000000002F
:1001D00000000000000000001211100000000000EC
:1001E000000000000000000000000000000000000F
:1001F0000000000020002300260029002C002F0012
:100200003200000100000301060109010505050592
:10021000070508080808020202020A0A080804047E
:1002200004040101010101010101030303030303AC
:100230000303040707070C0C0C0C0C0C0C0C02023B
:10024000020206060606060606060B0B0B0B0B0B38
:100250000B0B0102102020080810204010204080C5
:10026000020102010804020101020408102040807A
:100270008040201008040201800402018040201008
:100280000804020108040201010204081020408051
:1002900001020408102040801F1C1F1E1F1E1F1F6C
:1002A0001E1F1E1F02003A1911241FBECFEFD1E2FC
:1002B000DEBFCDBF00E00CBF29E0A8E0B7E001C081
:1002C0001D92AC36B207E1F717E0A0E0B2E0E8E13A
:1002D000FAE300E00BBF02C007900D92A830B1070F
:1002E000D9F711E0C4E5D1E000E006C0219701098B
:1002F000802FFE010E94FE1CC335D10780E0080755
:10030000A9F70E94430F0C940A1D7ACEFC01538D6D
:10031000448D252F30E0842F90E0821B930B5417DF
:1003200010F0CF96089501970895FC01918D828D6C
:10033000981761F0828DDF01A80FB11D5D968C9139
:10034000928D9F5F9F73928F90E008958FEF9FEF44
:100350000895FC01918D828D981731F0828DE80F00
:10036000F11D858D90E008958FEF9FEF0895FC01BA
:10037000918D228D892F90E0805C9F4F821B910987
:100380008F739927089587E298E0F1DF21E0892BA8
:1003900009F420E0822F0895FC01848DDF01A80F6D
:1003A000B11DA35ABF4F2C91848D90E001968F739D
:1003B0009927848FA689B7892C93A089B1898C91BC
:1003C000837080648C93938D848D981306C002880B
:1003D000F389E02D80818F7D80830895EF92FF92D5
:1003E0000F931F93CF93DF93EC0181E0888F9B8D58
:1003F0008C8D981305C0E889F989808185FD25C019
:10040000F62E0B8D10E00F5F1F4F0F731127E02E9C
:100410008C8DE8120BC00FB607FCFACFE889F9897A
:10042000808185FFF5CFCE01B7DFF2CF8B8DFE0146
:10043000E80FF11DE35AFF4FF0829FB7F8940B8F3E
:10044000EA89FB89808180620AC09FB7F894EE89AF
:10045000FF896083E889F989808183708064808363
:100460009FBF81E090E0DF91CF911F910F91FF90AE
:10047000EF900895CF93DF93EC01888D8823C1F02E
:10048000EA89FB89808185FD05C0A889B9898C919D
:1004900086FD0EC00FB607FCF5CF808185FFF2CF39
:1004A000A889B9898C9185FFEDCFCE0175DFE8CFA2
:1004B000DF91CF91089580E090E0892B19F063DF00
:1004C000811125C080E090E0892B41F080E090E030
:1004D000892B21F00E94000081111CC080E090E077
:1004E000892B41F080E090E0892B21F00E940000F0
:1004F000811113C080E090E0892BA1F080E090E0B2
:10050000892B81F00E94000081110AC008950E9489
:100510000000D8CF0E940000E1CF0E940000EACF87
:100520000C940000089590E0FC013197E231F10550
:1005300008F04EC08827E657FF4F8F4F0C94FE1CE3
:10054000809180008F7703C0809180008F7D8093A1
:100550008000089580918000877FF9CF84B58F77E0
:1005600002C084B58F7D84BD08958091B0008F77DF
:1005700003C08091B0008F7D8093B000089580917A
:1005800090008F7707C0809190008F7D03C080918D
:100590009000877F8093900008958091A0008F77CE
:1005A00007C08091A0008F7D03C08091A000877F4D
:1005B0008093A0000895809120018F7707C08091DB
:1005C00020018F7D03C080912001877F80932001CF
:1005D00008953FB7F8948091B6079091B707A0911E
:1005E000B807B091B90726B5A89B05C02F3F19F0F1
:1005F0000196A11DB11D3FBFBA2FA92F982F8827A3
:10060000820F911DA11DB11DBC01CD0142E0660FFD
:10061000771F881F991F4A95D1F70895089585ED92
:100620008093BC008091BC0084FDFCCF1092020836
:10063000089540918E07262F30E0240F311D21327E
:100640003105DCF4209102082430C9F4FC0180E07B
:1006500090E0861758F430918E072191DC01A25961
:10066000B84FA30FB11D2C930196F3CF80918E0745
:10067000680F60938E0780E0089581E0089582E01E
:100680000895089508950895E091BB078091BA07F1
:10069000E81730F4F0E0E454F84F808190E00895DA
:1006A0008FEF9FEF08959091BB078091BA0798173D
:1006B00050F4E92FF0E0E454F84F208130E09F5FE0
:1006C0009093BB0702C02FEF3FEFC90108958091BF
:1006D000BA0790E02091BB07821B91090895CF9241
:1006E000DF92EF92FF920F931F93CF93DF937C01E2
:1006F000CB018A0120910308222389F0EB016B01D1
:10070000C40ED51ECC15DD0561F06991D701ED91C0
:10071000FC910190F081E02DC7011995F3CF642F72
:1007200088DFC801DF91CF911F910F91FF90EF906B
:10073000DF90CF900895CF93DF931F92CDB7DEB7B0
:100740006983209103082223D1F0209126082032CA
:1007500040F021E030E0FC013383228380E090E030
:1007600014C080910408E82FF0E0EB5FF74F998107
:1007700090838F5F809304088093260804C061E013
:10078000CE01019656DF81E090E00F90DF91CF918E
:100790000895089580E090E00895FC01838194819C
:1007A0008230910538F0880F991F880F991F05979F
:1007B0000197F1F708950E94061DCF92DF92EF9204
:1007C000FF920F931F93CF93DF9300D000D0CDB74C
:1007D000DEB7789481E08093030888E6809325084B
:1007E000109204081092260860E084EC98E0A3DFE1
:1007F0000E94390D87E090E00E94950D84EC98E00E
:1008000052DF8F77982F92959F701AEF082F919F44
:10081000000D112484EC98E046DF9C01332794E01E
:10082000359527959A95E1F7F82E129FF00C112433
:1008300084EC98E038DF9C01332744E03595279518
:100840004A95E1F7E82E129FE00C112484EC98E021
:100850002ADF84EC98E027DF9C01332754E03595AC
:1008600027955A95E1F7D82E129FD00C112484ECCD
:1008700098E019DF9C01332764E0359527956A9548
:10088000E1F7C82E129FC00C112484EC98E00BDF16
:100890009C01332774E0359527957A95E1F7129FEF
:1008A000800D11248983CA82DB82EC82FD820E8353
:1008B00086E0FE013196AFE5B9E001900D928A9590
:1008C000E1F726960FB6F894DEBF0FBECDBFDF91DD
:1008D000CF911F910F91FF90EF90DF90CF900895EF
:1008E0001F920F920FB60F9211240BB60F922F93F7
:1008F0003F934F935F936F937F938F939F93AF93A8
:10090000BF93EF93FF9387E298E046DDFF91EF916D
:10091000BF91AF919F918F917F916F915F914F9117
:100920003F912F910F900BBE0F900FBE0F901F9015
:1009300018951F920F920FB60F9211240BB60F92BB
:100940002F938F939F93EF93FF93E0913708F0914C
:1009500038088081E0913D08F0913E0882FD12C088
:100960009081809140088F5F8F732091410882179A
:1009700051F0E0914008F0E0E95DF74F958F8093EA
:10098000400801C08081FF91EF919F918F912F913D
:100990000F900BBE0F900FBE0F901F901895CF9326
:1009A000DF93282F30E0F901E455FE4F8491F901DF
:1009B000EE5AFD4FD491F901E45FFD4FC491CC2371
:1009C00089F08111B0DDEC2FF0E0EE0FFF1FEE504B
:1009D000FE4FA591B491EC91ED2381E090E021F4DC
:1009E00080E002C080E090E0DF91CF9108951F93F6
:1009F000CF93DF93282F30E0F901E455FE4F849127
:100A0000F901EE5AFD4FD491F901E45FFD4FC49115
:100A1000CC23B9F0162F811186DDEC2FF0E0EE0F1C
:100A2000FF1FE85CFE4FA591B4919FB7F894111198
:100A300004C08C91D095D82302C0EC91DE2BDC93BE
:100A40009FBFDF91CF911F910895CF93DF9390E0E7
:100A5000FC01EE5AFD4F2491FC01E45FFD4F8491AF
:100A6000882361F190E0880F991FFC01EE56FE4F3C
:100A7000C591D491FC01E85CFE4FA591B491611140
:100A800009C09FB7F8948881209582238883EC91D0
:100A90002E230BC0623061F49FB7F8948881322F07
:100AA000309583238883EC912E2B2C939FBF06C017
:100AB0008FB7F894E8812E2B28838FBFDF91CF91D9
:100AC00008958F929F92AF92BF92CF92DF92EF9252
:100AD000FF926B017C017DDD4B015C01C114D104EF
:100AE000E104F104E9F075DDDC01CB018819990915
:100AF000AA09BB09883E9340A105B10578F321E01E
:100B0000C21AD108E108F10888EE880E83E0981E29
:100B1000A11CB11CC114D104E104F10421F7DECF02
:100B2000FF90EF90DF90CF90BF90AF909F908F900D
:100B300008952FB7F8946091B2077091B307809130
:100B4000B4079091B5072FBF08951F920F920FB66B
:100B50000F9211242F933F938F939F93AF93BF9343
:100B60008091B2079091B307A091B407B091B507F7
:100B70003091B10723E0230F2D3720F40196A11DFA
:100B8000B11D05C026E8230F0296A11DB11D2093BB
:100B9000B1078093B2079093B307A093B407B093C3
:100BA000B5078091B6079091B707A091B807B091AB
:100BB000B9070196A11DB11D8093B6079093B707A1
:100BC000A093B807B093B907BF91AF919F918F9150
:100BD0003F912F910F900FBE0F901F9018951F926D
:100BE0000F920FB60F9211240BB60F922F933F93D3
:100BF0004F935F936F937F938F939F93AF93BF9325
:100C0000EF93FF93E0910E02F0910F021995FF917F
:100C1000EF91BF91AF919F918F917F916F915F9174
:100C20004F913F912F910F900BBE0F900FBE0F90E1
:100C30001F9018951F920F920FB60F9211240BB6AA
:100C40000F922F933F934F935F936F937F938F9365
:100C50009F93AF93BF93EF93FF93E0910C02F091BA
:100C60000D021995FF91EF91BF91AF919F918F91D7
:100C70007F916F915F914F913F912F910F900BBE9C
:100C80000F900FBE0F901F9018951F920F920FB6E6
:100C90000F9211240BB60F922F933F934F935F93B4
:100CA0006F937F938F939F93AF93BF93EF93FF9334
:100CB000E0910202F09103021995FF91EF91BF912B
:100CC000AF919F918F917F916F915F914F913F91E4
:100CD0002F910F900BBE0F900FBE0F901F90189585
:100CE0001F920F920FB60F9211240BB60F922F93F3
:100CF0003F934F935F936F937F938F939F93AF93A4
:100D0000BF93EF93FF93E0910002F09101021995D8
:100D1000FF91EF91BF91AF919F918F917F916F91D3
:100D20005F914F913F912F910F900BBE0F900FBE8F
:100D30000F901F9018951F920F920FB60F921124CB
:100D40000BB60F922F933F934F935F936F937F93C5
:100D50008F939F93AF93BF93EF93FF93E0910A021A
:100D6000F0910B021995FF91EF91BF91AF919F9177
:100D70008F917F916F915F914F913F912F910F9044
:100D80000BBE0F900FBE0F901F9018951F920F92E1
:100D90000FB60F9211240BB60F922F933F934F93E0
:100DA0005F936F937F938F939F93AF93BF93EF93D3
:100DB000FF93E0910802F09109021995FF91EF91DC
:100DC000BF91AF919F918F917F916F915F914F9163
:100DD0003F912F910F900BBE0F900FBE0F901F9061
:100DE00018951F920F920FB60F9211240BB60F9207
:100DF0002F933F934F935F936F937F938F939F9323
:100E0000AF93BF93EF93FF93E0910602F091070237
:100E10001995FF91EF91BF91AF919F918F917F9124
:100E20006F915F914F913F912F910F900BBE0F905B
:100E30000FBE0F901F9018951F920F920FB60F9232
:100E400011240BB60F922F933F934F935F936F93A1
:100E50007F938F939F93AF93BF93EF93FF93E09113
:100E60000402F09105021995FF91EF91BF91AF91A6
:100E70009F918F917F916F915F914F913F912F91B2
:100E80000F900BBE0F900FBE0F901F9018951F92E2
:100E90000F920FB60F9211240BB60F922F933F9320
:100EA0004F935F936F937F938F939F93AF93BF9372
:100EB000EF93FF938091B900887F803609F49CC03E
:100EC00068F5883209F45BC090F4803109F454C0AD
:100ED00038F4882309F4F6C0883009F44DC0F5C011
:100EE000883109F44CC0803209F45DC0EEC0803412
:100EF00009F468C048F4803309F455C0883309F018
:100F0000E4C080930008D8C0803509F44FC088350C
:100F100009F45DC0883409F0D8C0D6C0883909F416
:100F2000C7C0A8F4883709F467C038F4883609F4D4
:100F300063C0803709F460C0C8C0883809F4B8C0FD
:100F4000803909F45FC0803809F0BFC05BC0803BC6
:100F500009F486C038F4803A09F466C0883A09F486
:100F60007FC0B3C0803C09F4A7C0883C09F4A4C08A
:100F7000883B09F48AC0A9C08091DD0710C0909118
:100F8000FF078091FE07981770F5E091FF0781E059
:100F90008E0F8093FF07F0E0E252F84F808180933C
:100FA000BB0085EC86C0809300088EC0E091FF07EF
:100FB00081E08E0F8093FF078091BB00F0E0E2524A
:100FC000F84F80839091FF078091FE076EC0E091FB
:100FD000FF0781E08E0F8093FF078091BB00F0E058
:100FE000E252F84F80838091010881116DC081E049
:100FF0008093DC0784EA61C083E08093020810924A
:10100000B007CFCF8091B007803208F051C0E09197
:10101000B00781E08E0F8093B0078091BB00F0E0B5
:10102000E057F84F8083BDCF85EC8093BC001092D1
:1010300002088091B007803230F4E091B007F0E010
:10104000E057F84F10826091B00770E0E091080718
:10105000F091090780E997E019951092B00735C023
:1010600084E08093020810928F0710928E07E0911F
:101070000A07F0910B07199580918E07811105C021
:1010800081E080938E0710926E07E0918F0781E0D8
:101090008E0F80938F07F0E0E259F84F80818093A4
:1010A000BB0090918F0780918E07981708F479CF35
:1010B00085E88093BC0009C085EC8093BC00109249
:1010C000020803C010920008AADAFF91EF91BF91C5
:1010D000AF919F918F917F916F915F914F913F91D0
:1010E0002F910F900BBE0F900FBE0F901F90189571
:1010F0000F931F93CF93DF93EC01062F18E061E06D
:101100008881A3DCCE0149DB00FF02C060E001C0A2
:1011100061E089819ADCCE0140DB60E0888195DC6A
:10112000CE013BDB0695115051F761E088818DDCE3
:1011300060E089818ADCCE0130DB60E0888185DC7B
:10114000CE012BDB89812BDC182F811103C061E0DC
:1011500089817BDCCE0121DB61E0888176DCCE01F8
:101160001CDB81E0111101C080E0DF91CF911F9164
:101170000F910895CF93DF93EC0161E0898165DCE5
:10118000CE010BDB60E0888160DCCE0106DB60E035
:1011900089815BDCCE01DF91CF91FFCACF93DF93D2
:1011A000EC0161E0898151DCCE01DF91CF91F5CA7C
:1011B000CF93DF9300D01F92CDB7DEB719821A828A
:1011C0001B821C82BE016F5F7F4F23D40F900F9054
:1011D0000F900F90DF91CF910895FC019081905373
:1011E0009A3008F090E0818180532AE0929F800D30
:1011F00011240895DC0180E0615098F02D91982F22
:101200009227E92FEF70F0E0EE58FE4F249192956F
:101210009F70E92FF0E0EE57FE4FE491822F8E276A
:10122000EBCF08951F920F920FB60F9211240BB6B9
:101230000F92FF920F931F932F933F934F935F93C0
:101240006F937F938F939F93AF93BF93CF93DF93CE
:10125000EF93FF938FEF86BD8091D0088823D1F163
:10126000C2EDD8E002EF18E0A991B991109701F111
:10127000FFB6F8948C918823D1F01996ED91FC91EA
:101280001A973097A1F011964D915D916D917C91D7
:101290001497415051096109710911964D935D935D
:1012A0006D937C931497452B462B472B29F0FFBE5B
:1012B0000C171D07C9F60EC015964D915D916D91E5
:1012C0007C91189711964D935D936D937C93149731
:1012D0001995EDCFFF91EF91DF91CF91BF91AF9134
:1012E0009F918F917F916F915F914F913F912F913E
:1012F0001F910F91FF900F900BBE0F900FBE0F909C
:101300001F9018950F931F93CF93DF93EC0111DC7F
:101310000A811B812C813D81DC01CB01801B910B5B
:10132000A20BB30B0E811F81288539858017910789
:10133000A207B30750F0FDDB6A837B838C839D8318
:101340008981882311F081E088838881DF91CF91A2
:101350001F910F910895CF93DF93EC01EADB6A832D
:101360007B838C839D83DF91CF9108950F931F938F
:10137000CF93DF93EC01088110E08C8110DB08171C
:10138000190711F01A820DC08A818F5F8A839B81B1
:10139000891738F0888191E0892788831A82811122
:1013A0009983DF91CF911F910F9108954F925F9292
:1013B0006F927F928F929F92AF92BF92EF92FF9225
:1013C0000F931F93CF93DF93CDB7DEB72A970FB656
:1013D000F894DEBF0FBECDBFA82EB62E942EF22EEF
:1013E0008BE996E0E7D019821A829D829FE0E92E70
:1013F000EC8262E0892D29DB1E821F82FA86E98653
:1014000062E08F2D22DB95DB2B013C0160E08A2D11
:10141000EEDA61E08B2DEBDACE010196A7DF89DBF6
:10142000DC01CB0184199509A609B70981319742DE
:10143000A105B10530F48981882371F3E12CF12CE9
:1014400003C0EE24E394F12C61E08A2DD0DA61E050
:101450008B2DCDDA6EDBDC01CB0184199509A60951
:10146000B709F80180839183A283B3838EEA96E063
:10147000A1D0F80160817181828193814AE09BD083
:1014800083EC96E097D06AE070E0C701A3D185E0D5
:1014900097E090D04EDB2B013C0160E08B2DA7DA6A
:1014A00061E08A2DA4DACE01069660DF42DBDC0122
:1014B000CB0184199509A609B70981319742A10585
:1014C000B10520F022E0E20EF11C03C08E818823DA
:1014D00051F361E08A2D8BDA61E08B2D88DA29DB0C
:1014E0004B015C0184189508A608B70881ED96E0C9
:1014F00061D04AE0C501B4015ED083EC96E05AD0D9
:101500006AE070E0C70166D185E097E053D0F8014A
:1015100080819181A281B38188159905AA05BB05B7
:1015200010F4D501C401F80180839183A283B383B1
:1015300086EE96E03FD0C7012A960FB6F894DEBF3C
:101540000FBECDBFDF91CF911F910F91FF90EF9014
:10155000BF90AF909F908F907F906F905F904F90D3
:101560000895009761F0FC0101900020E9F73197A0
:10157000AF01481B590BBC0187E298E0BBC380E078
:1015800090E00895CF93DF93EC018FE28883698325
:1015900084E690E09C838B8360E08FE256DA60E023
:1015A000898153DA60E0888122DA60E08981DF9105
:1015B000CF911DCAD6CF8F929F92AF92BF920F93B9
:1015C0001F93CF93DF93CDB7DEB7A1970FB6F894F3
:1015D000DEBF0FBECDBF19A2423008F44AE08E0133
:1015E0000F5D1F4F842E912CA12CB12CA5019401CD
:1015F0000E94DC1CE62FB901CA0101501109EA3032
:1016000014F4E05D01C0E95CD801EC93232B242B9A
:10161000252B61F7C801A5DFA1960FB6F894DEBFB0
:101620000FBECDBFDF91CF911F910F91BF90AF90B3
:101630009F908F9008958F929F92AF92BF92CF927A
:10164000DF92EF92FF920F931F93CF93DF936B0183
:101650007C01142F9B01AC010E94B81C882319F057
:1016600088EF96E027C046015701E894B7F82FEFBE
:101670003FEF4FE75FE7C501B4010E94B81C81113D
:101680000DC02FEF3FEF4FE75FE7C501B4010E94A8
:101690009D1A18161CF48CEF96E00CC02FEF3FEF4C
:1016A0004FE75FE4C701B6010E94B41C18167CF432
:1016B00080E097E0DF91CF911F910F91FF90EF9025
:1016C000DF90CF90BF90AF909F908F904ACF2FEF39
:1016D0003FEF4FE75FECC701B6010E949D1A87FDFF
:1016E000E7CF20E030E0A901C701B6010E949D1AB2
:1016F00087FF0BC06DE287E298E00E94EE01EC01EB
:10170000F7FAF094F7F8F09402C0C0E0D0E000E0FF
:1017100060E070E080E09FE3101741F020E030E0EF
:1017200040E251E40E941B1C0F5FF6CFA701960117
:101730000E94B71B6B017C010E94881C4B015C015D
:101740004AE039DFC80FD91F1123B1F1C501B40137
:101750000E94A11A9B01AC01C701B6010E94B61BF1
:101760006B017C016EE287E298E00E94EE01C80FF7
:10177000D91F20E030E040E251E4C701B6010E94E9
:10178000021B4B015C010E94881C6B01E12CF12CB7
:101790004AE0C701B6010FDFC80FD91FC701B60164
:1017A0000E94A11A9B01AC01C501B4010E94B61BA5
:1017B0006B017C011150E9F6CE01DF91CF911F91B1
:1017C0000F91FF90EF90DF90CF90BF90AF909F90E0
:1017D0008F900895CF92DF92EF92FF92CF93DF9395
:1017E0006115710559F4682F87E298E0DF91CF9178
:1017F000FF90EF90DF90CF900C94EE016C01990F69
:10180000EE08FF086A307105E1F4F7FE18C06DE2DA
:1018100087E298E00E94EE01EC0166277727CB0172
:101820006C197D098E099F094AE0C5DE8C0F9D1F4A
:10183000DF91CF91FF90EF90DF90CF9008954AE035
:1018400001C0462FC701B601DF91CF91FF90EF9005
:10185000DF90CF90B0CE9091FC08E091FD08F09120
:10186000FE08F8948181892B81832281892F8095BC
:1018700028232283A7E0B0E01197F1F7218182238A
:101880008183A3E2B0E01197F1F780817894EFECC7
:10189000F0E03197F1F7982381E009F480E00895B2
:1018A0000F931F93CF93DF9308E010E0C0E0D1E0E7
:1018B000D2DF8111CD2BDD0F01501109C9F78C2F1B
:1018C000DF91CF911F910F9108959091FC08E091C5
:1018D000FD08F091FE08292F209580FF12C0F89492
:1018E0008281822382838181892B8183A3E2B0E07C
:1018F0001197F1F78281982B9283789487ED90E08D
:1019000011C0F8948281822382838181892B818313
:10191000AFEFB0E01197F1F78281982B9283789422
:101920008FE090E00197F1F708950F931F93CF9305
:10193000DF93082FC8E0D0E011E081E0902F9123E1
:1019400009F480E0C2DF110F2197B9F7F894E09114
:10195000FD08F091FE0891818091FC088095982304
:101960009183E091FD08F091FE08928189238283A2
:101970007894DF91CF911F910F9108950F931F934A
:10198000CF93DF938C0185E5D0DFE801085F1F4F1F
:101990008991CBDFC017D107D9F7DF91CF911F9184
:1019A0000F9108952091FC08E091FD08F091FE0848
:1019B000F8948181922F90958923818378948DE783
:1019C00043E050E0815021F1DA011197F1F73081C5
:1019D0003223C1F3F8948281892382838181822B0F
:1019E00081837894ABE7B7E01197F1F7F8948181A0
:1019F0009823918383E191E00197F1F78081282377
:101A000081E009F080E07894E3E6F6E03197F1F7C1
:101A10000895EF92FF920F931F93CF93DF93EC0102
:101A20007B01BCDB60E4CE0163DBCE01A3DBCE0136
:101A3000B5DB60ECCE015CDB870184E0E80EF11CD5
:101A4000F80161918F01CE0153DB0E151F05C1F71F
:101A5000CE0190DBCE01A2DB6A816F706058CE01AF
:101A600047DBCE01DF91CF911F910F91FF90EF9057
:101A700081CB30912608313208F04BC080910208AA
:101A80008111FCCF9091250822E02093020821E0EB
:101A9000209301082FEF209300081092FF07309346
:101AA000FE07E5E0F8E0AEEDB7E020E0321721F008
:101AB00041914D932F5FFACF1092DD072091DD0702
:101AC000990F922B9093DD079091DC07913061F490
:101AD0001092DC079091DD079093BB009091BC00C1
:101AE00093FDF8CF95EC01C095EE9093BC009091DA
:101AF00002089230E1F3909100089F3F79F08091C5
:101B00000008803241F080910008803331F084E099
:101B100005C081E003C082E001C083E010920408A8
:101B200010922608109203080895909102089111CE
:101B3000FCCF982F813208F090E281E08093020878
:101B4000809301082FEF209300081092FF07290FC0
:101B50002093FE078093DD078091DD07806D8093E1
:101B6000DD078091DC07813061F41092DC07809101
:101B7000DD078093BB008091BC0083FDF8CF85EC2E
:101B800001C085EE8093BC00809102088130E1F3B2
:101B90008091FF07891710F49091FF07EEEDF7E0B1
:101BA000ACEBB7E080E0891721F021912D938F5F96
:101BB000FACF1092BB078093BA070895CF93DF93B3
:101BC00042E039DDEC0184E097E0CBDC8C0F9D1F17
:101BD000DF91CF9108957F928F929F92AF92BF92A3
:101BE000CF92DF92EF92FF920F931F93CF93DF93E9
:101BF00000D01F92CDB7DEB76C01CB0177FF03C0D9
:101C0000919581959109372F331F3327331F009703
:101C100011F0FC0104C0222381F0E0E0F0E0CE01ED
:101C200001967C014E0193E0891A910887018AE0B0
:101C3000A82EB12C90E4792E1CC019821A821B8226
:101C40008FE38C833EC03097E1F09927DC01AB56DF
:101C5000BD4F8C91D80113968C935523C1F0CF01C1
:101C6000B5010E94C81CFB01015011090815190596
:101C7000B9F0CF01B5010E94C81C582F8111E5CFE2
:101C8000E2CF2111E2CFD80113961C9202C0309707
:101C900031F7332321F3D80113967C9230E0DFCF64
:101CA000442379F09E012B5F3F4F842F8078F7010A
:101CB0009081892BD7018D937D01440FA217B30723
:101CC000A1F7BE016F5F7F4FC601A3DE0F900F909B
:101CD0000F900F90DF91CF911F910F91FF90EF9098
:101CE000DF90CF90BF90AF909F908F907F9008959E
:101CF00042E0A1CCCF92DF92EF92FF920F931F931D
:101D0000CF93DF936C017A018B01C0E0D0E0CE1558
:101D1000DF0581F0D8016D918D01D601ED91FC9127
:101D20000190F081E02DC6011995892B11F02196C3
:101D3000EECF7E01C701DF91CF911F910F91FF90F0
:101D4000EF90DF90CF9008951F920F920FB60F92F1
:101D500011240BB60F922F933F934F935F936F9382
:101D60007F938F939F93AF93BF93EF93FF93809154
:101D7000680990916909A0916A09B0916B09892B52
:101D80008A2B8B2B59F190916709E0916509F091AD
:101D9000660980818927808380916809909169090B
:101DA000A0916A09B0916B09181619061A061B064C
:101DB0000CF056C08091680990916909A0916A0958
:101DC000B0916B090197A109B109809368099093BB
:101DD0006909A0936A09B0936B0942C0809114020B
:101DE000E4EAF2E0E4919FEF90931402E230C9F04C
:101DF00050F4EE2399F0E13081F590916F009D7FD2
:101E000090936F002AC0E43019F1E0F0E53029F535
:101E1000909173009D7F909373001FC010926E008D
:101E20001CC0909170009D7F9093700091E0909302
:101E3000B0009091B100987F94609093B10010929F
:101E4000B3000BC0909171009D7F9093710005C00D
:101E5000909172009D7F9093720060E00E94F70461
:101E6000FF91EF91BF91AF919F918F917F916F9172
:101E70005F914F913F912F910F900BBE0F900FBE2E
:101E80000F901F901895CF93DF93CDB7DEB765976E
:101E90000FB6F894DEBF0FBECDBF789484B58260D4
:101EA00084BD84B5816084BD85B5826085BD85B5FE
:101EB000816085BD80916E00816080936E0010927C
:101EC00081008091810082608093810080918100F7
:101ED0008160809381008091800081608093800088
:101EE0008091B10084608093B1008091B0008160E6
:101EF0008093B000809191008260809391008091E6
:101F00009100816080939100809190008160809326
:101F100090008091A10082608093A1008091A10037
:101F200081608093A1008091A00081608093A000D7
:101F30008091210182608093210180912101816043
:101F40008093210180912001816080932001809104
:101F50007A00846080937A0080917A008260809316
:101F60007A0080917A00816080937A0080917A0073
:101F7000806880937A001092C1000E9499054B01FD
:101F80005C01E0913708F091380882E08083E091AD
:101F90003308F09134081082E0913508F09136084A
:101FA00080E1808310923F08E0913B08F0913C086B
:101FB00086E08083E0913908F0913A088081806161
:101FC0008083E0913908F0913A08808188608083AD
:101FD000E0913908F0913A08808180688083E0912F
:101FE0003908F0913A0880818F7D808389EC92E0F6
:101FF000E1DA61E08DE00E94250561E081E20E9466
:10200000250561E081E20E94F70461E082E20E941E
:10201000250561E082E20E94F70462E08FE10E9400
:10202000250562E080E20E94250561E083E20E94CE
:10203000250561E083E20E94F70461E084E20E94EA
:10204000250561E084E20E94F70462E085E20E94D7
:10205000250562E086E20E94250561E08CE10E9490
:10206000250561E08DE10E94250561E08DE10E947A
:10207000F70461E08EE10E94250561E08EE10E9497
:10208000F70489ED92E096DA1092BB071092BA0736
:1020900010920408109226081092020801E00093A2
:1020A00001081092DC0761E084E10E94F70461E01E
:1020B00085E10E94F7048091B9008E7F8093B9007A
:1020C0008091B9008D7F8093B90088E48093B80037
:1020D00085E48093BC0081E493E090930B078093A8
:1020E0000A0782E493E0909309078093080700931E
:1020F0000308A8E6FA2EF092250810920408109220
:10210000260860E084EC98E00E949B03B2DC81E04A
:1021100090E00BDD84EC98E00E94530387FF89C0B8
:1021200082EF92E047DA80E193E057D8182F8BE0F6
:1021300093E053D8D82E83E193E04FD8C82E86E1A0
:1021400093E04BD8782E89E193E047D8682E00932E
:102150000308F0922508109204081092260860E007
:1021600084EC98E00E949B03FAE0EF2E862D6E2D02
:102170000E94BC1C682F660F860F880F682F660DA3
:1021800084EC98E00E949B03872D6E2D0E94BC1C5E
:10219000682F660F860F880F682F670D84EC98E014
:1021A0000E949B038C2D6E2D0E94BC1C682F660F15
:1021B000860F880F682F6C0D84EC98E00E949B03BB
:1021C00060E084EC98E00E949B038D2D6E2D0E94B0
:1021D000BC1C682F660F860F880F682F6D0D84EC6E
:1021E00098E00E949B0361E184EC98E00E949B03CD
:1021F000812F6E2D0E94BC1C682F660F680F660F22
:10220000610F84EC98E00E949B0333DC0093030889
:10221000F0922508109204081092260867E084ECDA
:1022200098E00E949B0360E184EC98E00E949B038D
:1022300020DC62E083E00E9425058DED93E0909321
:1022400003028093020280916A00837F88608093FA
:102250006A00ED9A8CE193E0ADD983E393E0AAD9CB
:1022600088E299E00E94D80883E299E00E94D808A9
:102270008EE199E00E94D80889E199E00E94D8088F
:1022800084E199E00E94D8088FE099E00E94D80884
:102290008AE099E00E94D8088AE080932A09809316
:1022A00025098093200980931B0980931609809348
:1022B000110980930C0989E493E07CD98EE593E0C1
:1022C00079D981E793E076D9E12C662463946E0195
:1022D00029E0C20ED11C80910909811103C062DB83
:1022E000811134C01092070910920909109208094F
:1022F00081E993E05FD96E2D70E080E090E04AE0E4
:102300005AD985E097E056D982EA93E053D980EC18
:1023100093E050D982ED93E04DD985EE93E04AD910
:1023200005E217E020E24FE162E281E23FD88C0152
:10233000892B09F459C08EE394E03CD96AE070E03F
:10234000C80148DA85E097E035D94EC080EFEDDA74
:1023500001E0712C512C11E07EDAF82E7CDA31E0AC
:10236000F31203C08130C1F435C0272D30E0F812DC
:102370001EC080910709181738F4F901E450F74F8F
:102380008381802349F402C0811731F0F12C193088
:1023900068F4109308090AC0E72DF0E0E450F74F05
:1023A0008381802B8383FF24F39409C0512EF9018C
:1023B000E450F74F9381802F8095892383838F2D5D
:1023C00084DA1F5F000F11F4739401E047E04715B2
:1023D00008F0C2CF113408F485CF5092070951108C
:1023E0008FC6609209098CC68BE494E0E3D86091B3
:1023F00025077091260780912707909128074AE0CA
:10240000DAD881E694E0D6D886E694E0D3D809E21B
:1024100017E026E245E264E283E20E94D6098C01DD
:10242000892B51F08EE394E0C5D86AE070E0C801D2
:10243000D1D985E097E0BED88AE794E0BBD8609117
:10244000290770912A0780912B0790912C074AE069
:10245000B2D882E694E0AED881EC93E0ABD880E9C4
:1024600094E0A8D80E949905681979098A099B09FE
:102470004AE0A1D88EE994E09DD8FE013A96FB8708
:10248000EA877AE0272E312C412C512CE0EC8E2E5D
:10249000E7E29E2EE9E0AE2EB12C0E9499058BE476
:1024A00099E00E94820981E499E00E94820987E311
:1024B00099E00E94820985E599E00E9482098823BB
:1024C00019F183EA94E076D88FE080932A0980910D
:1024D0006409482F417080FD40E480916209609159
:1024E000630970E0F4E68F9F600D711D112421E0F7
:1024F00088E299E070DB1092550985E599E00E9429
:10250000AB098AEC94E056D88BE499E00E948209EA
:10251000882309F4BCC18CEF94E04CD860912D075E
:1025200070912E0780912F0790913007E1DB85E0B5
:1025300097E040D880E095E03DD8609131077091F8
:1025400032078091330790913407D2DB85E097E022
:1025500031D884E095E02ED8609135077091360728
:102560008091370790913807C3DB85E097E022D848
:1025700088E095E01FD86091390770913A07809103
:102580003B0790913C07B4DB85E097E013D88CE0E3
:1025900095E010D860913D0770913E0780913F070C
:1025A00090914007A5DB85E097E004D880E195E0B5
:1025B00001D8609141077091420780914307909143
:1025C000440796DB85E097E00E94DA0A8FEE94E0FC
:1025D0000E94DA0A6091450770914607809147078B
:1025E0009091480785DB85E097E00E94DA0A82EF48
:1025F00094E00E94DA0A6091490770914A0780913D
:102600004B0790914C0774DB85E097E00E94DA0A53
:1026100085EF94E00E94DA0A60914D0770914E07B1
:1026200080914F079091500763DB85E097E00E940F
:10263000DA0A88EF94E00E94DA0A609151077091FB
:102640005207809153079091540752DB85E097E041
:102650000E94DA0A8BEF94E00E94DA0A6091550733
:1026600070915607809157079091580741DB85E09C
:1026700097E00E94DA0A8FEF94E00E94DA0A6091F4
:10268000590770915A0780915B0790915C0730DB86
:1026900085E097E00E94DA0A83E095E00E94DA0A7A
:1026A00060915D0770915E0780915F079091600770
:1026B0001FDB85E097E00E94DA0A87E095E00E9440
:1026C000DA0A6091610770916207809163079091C7
:1026D00064070EDB85E097E00E94DA0A8BE095E064
:1026E0000E94DA0A6091650770916607809167071A
:1026F00090916807FDDA85E097E00E94DA0A8FE0A2
:1027000095E00E94DA0A6091690770916A078091EA
:102710006B0790916C07ECDA85E097E00E94DA0A8B
:102720000E949905688B798B8A8B9B8B82EF98E04E
:102730000E9482098091F308811110C033D9813041
:1027400019F400E010E002C00FEF10E08CECEDD8BF
:1027500084E4EBD881E08093F30873C08091F208A1
:10276000882309F46CC01092F3081092F2081092BA
:102770004B098BE499E00E94AB0965E1C62E62E04B
:10278000D62E2DE237E03D872C8700E010E0612C4B
:10279000712C08D9C601F2D88EEBC7D8AE014F5FB5
:1027A0005F4F7A014C8BFD8A7BD8D7018D937D01D9
:1027B000EA85FB85EA17FB07B9F768E08C899D89F4
:1027C0000E94FA089985891771F081E090E0062C43
:1027D00002C0880F991F0A94E2F7082B192BF9EF12
:1027E000FA8320ED298369817A818D81807611F4C5
:1027F000687F07C0803211F46C7F03C0803409F415
:102800006E7F072E000C880B990B9DD620E030E0E0
:1028100040E85DE3F7D6AC85BD856D937D938D93E0
:102820009D93BD87AC87BFEF6B1A7B0AE8E0CE0EA5
:10283000D11CF0E16F16710409F0ABCF02C000E0CB
:1028400010E083E195E00E94DA0A0E949905288948
:1028500039894A895B89621B730B840B950B4AE0AB
:102860000E94DB0A8EE994E00E94DA0A0115110544
:1028700071F080E395E00E94DA0AB80180E090E010
:1028800042E00E94DB0A85E097E00E94DA0A81E4D8
:1028900099E00E948209882309F439C18FE495E008
:1028A0000E94DA0A8AE080932509809320098093A8
:1028B0001B09809316098093110980930C0920E06D
:1028C00030E048EC52E460912D0770912E07809122
:1028D0002F079091300796D60E94831C20E040E499
:1028E00083E299E078D920E030E048EC52E460914E
:1028F000550770915607809157079091580782D6D7
:102900000E94831C20E040E48EE199E064D920E03D
:1029100030E048EC52E46091390770913A078091B9
:102920003B0790913C076ED6EED720E040E489E16A
:1029300099E051D98DE795E00E94DA0A6091390754
:1029400070913A0780913B0790913C0737D989E80D
:1029500095E00E94DA0A60913D0770913E078091F0
:102960003F07909140072AD985E995E00E94DA0A4D
:1029700060915507709156078091570790915807BD
:102980001DD98DE995E00E94DA0A6091590770918E
:102990005A0780915B0790915C0710D984EA95E013
:1029A0000E94DA0A60912D0770912E0780912F07FF
:1029B0009091300703D980EB95E00E94DA0A60918C
:1029C0003107709132078091330790913407F6D820
:1029D0008CEB95E00E94DA0A60915D0770915E07CA
:1029E00080915F0790916007E9D885E097E00E94A9
:1029F000DA0A19821A828CE08D8381E08C8362E08E
:102A00008CE00E942505CE0101960E94B609CE01F8
:102A100001960E94B60969818DE00E94F70400E0EA
:102A200010E08981882309F468C061E08DE00E948C
:102A3000F70400FD3AC020E030E040E85FE3609139
:102A400010027091110280911202909113028FD6A0
:102A50006B017C0120E030E040ED51E46ED588232D
:102A600049F0C0921002D0921102E0921202F0924C
:102A700013020CC080E090E0A8E8B1E4809310025B
:102A800090931102A0931202B0931302609110026E
:102A900070911102809112029091130234D720E0BC
:102AA00040E089E199E097D804C089E199E00E946B
:102AB000D8088EE199E00E94D80820E030E048EC88
:102AC00052E460915D0770915E0780915F0790917D
:102AD000600798D518D720E040E483E299E07BD8DE
:102AE00068EE73E080E090E00E9461050F5F1F4F89
:102AF000CE0101960E94B60994CF1092410981E45B
:102B000099E00E94AB0988EC95E00E94DA0A87E31D
:102B100099E00E948209882309F425C284EF95E098
:102B20000E94DA0A0E9499056B017C0180916D0771
:102B300081111AC020E030E040E85FE3609159075E
:102B400070915A0780915B0790915C0710D69B01AA
:102B5000AC016091390770913A0780913B079091E1
:102B60003C0702D7181614F460E001C061E08DE163
:102B70000E94F7046091390770913A0780913B07F2
:102B800090913C07C0D6673471050CF4BCC1613527
:102B900071050CF4A7C1809114028C3121F08F3F94
:102BA00009F09DC104C0E4EAF2E01491E2C08CE1B6
:102BB00080931402E4EAF2E014911F3F09F48FC1FC
:102BC000123009F46CC040F5112309F44FC01130E4
:102BD00009F0CFC010928000109281008091810096
:102BE0008860809381008091810081608093810062
:102BF000E8E2F2E0E491F0E0EE0FFF1FE85CFE4F48
:102C000085919491EEE6F2E0E491E0930F0761E0A4
:102C10008CE10E942505D6C0143009F488C008F460
:102C200064C0153009F0A5C0109220011092210156
:102C30008091210188608093210180912101816030
:102C400080932101E8E2F2E0E491F0E0EE0FFF1F53
:102C5000E85CFE4F85919491EEE6F2E0E491E0931A
:102C60000C0761E08CE10E942505DAC014BC15BC9C
:102C700084B5826084BD85B5816085BDE8E2F2E0FF
:102C8000E491F0E0EE0FFF1FE85CFE4F8591949118
:102C9000EEE6F2E0E491E093100710E06CC01092D1
:102CA000B0001092B1008091B00082608093B000BB
:102CB0008091B10081608093B100E8E2F2E0E4919C
:102CC000F0E0EE0FFF1FE85CFE4F8591949190932A
:102CD000660980936509EEE6F2E0E491E093670906
:102CE00061E08CE10E94250563C010929000109273
:102CF0009100809191008860809391008091910073
:102D0000816080939100E8E2F2E0E491F0E0EE0F60
:102D1000FF1FE85CFE4F85919491EEE6F2E0E491AE
:102D2000E0930E0761E08CE10E94250567C01092D8
:102D3000A0001092A1008091A10088608093A10062
:102D40008091A10081608093A100E8E2F2E0E4912B
:102D5000F0E0EE0FFF1FE85CFE4F85919491EEE6E8
:102D6000F2E0E491E0930D0761E08CE10E9425051B
:102D70004EC017FDB4C061E08CE10E94250511230F
:102D800019F01230A9F01CC085B5887F836085BD1D
:102D90008CE787BD8092210790922207A09223079B
:102DA000B092240780916E00826080936E0097C07D
:102DB0008091B100887F83608093B10089EF44C027
:102DC0001130D1F480918100887F816080938100EF
:102DD0008FE39FE1909389008093880080921D0784
:102DE00090921E07A0921F07B092200780916F005B
:102DF000826080936F0073C0133039F4809191002A
:102E0000887F8160809391002FC0143039F48091C5
:102E1000A100887F81608093A1003AC0153039F409
:102E200080912101887F81608093210145C013300A
:102E3000D9F02CF4123009F052C08FE305C01430E1
:102E400039F11530C9F14BC08093B3008092680905
:102E500090926909A0926A09B0926B098091700002
:102E60008260809370003BC08FE39FE19093990054
:102E7000809398008092190790921A07A0921B07DE
:102E8000B0921C078091710082608093710027C00E
:102E90008FE39FE19093A9008093A800809215078B
:102EA00090921607A0921707B092180780917200AF
:102EB00082608093720013C08FE39FE19093290199
:102EC000809328018092110790921207A092130715
:102ED000B09214078091730082608093730081E048
:102EE00080936D0760E082E20E94F70461E081E276
:102EF0000E94F70460E08DE10E94F70460E08EE13B
:102F00000E94F70430C010926D0760913D077091E8
:102F10003E0780913F0790914007F5D467317105D6
:102F20003CF080E20E94CF04892B09F057C104C015
:102F3000623171050CF458C11092370987E399E0AA
:102F40000E94AB0984E196E00E94DA0A0E9499058A
:102F50006C197D098E099F094AE00E94DB0A8EE9FF
:102F600094E00E94DA0A8DE299E00E9482098823A7
:102F700009F4C3C002E511E0F801649161110BC0CE
:102F80000E949905688B798B8A8B9B8B80916D074A
:102F9000882351F01CC087E298E00E94EE010F5F89
:102FA0001F4F892B49F7ECCF20915D0730915E07C9
:102FB00040915F07509160076091550770915607E7
:102FC0008091570790915807CFD41816E4F482E304
:102FD00096E00E94DA0A60E08EE10E94F704C09059
:102FE0001002D0901102E0901202F0901302809132
:102FF000620990E08831910500F5FC018827EE58C0
:10300000FF4F8F4FFBC461E08EE10E94F70484E420
:1030100096E071C02CEB34E743E55FE309C02EE591
:103020003AEB49E65FE304C02AE63CEB44E75FE3A2
:10303000C701B601E7D26B017C0184E596E00E94EE
:10304000DA0AC701B6010E94DE0D20915D073091BA
:103050005E0740915F07509160072C873D874E8740
:103060005F872AE939E949E15FE3C701B6017ED309
:103070009B01AC016C857D858E859F855ED287FF27
:103080000BC086E20E94CF04892B31F060E084E21D
:103090000E94F70461E0D3C02AE939E949E15FE31E
:1030A000C701B60164D39B01AC016C857D858E851B
:1030B0009F855AD4181634F485E20E94CF04892BD8
:1030C00009F0B8C010922D098DE299E00E94AB0979
:1030D0008DE796E00E94DA0A0E94990528893989CD
:1030E0004A895B89621B730B840B950B4AE00E9433
:1030F000DB0A8EE994E00E94DA0A0E945B02CDC9E5
:103100008091FF08882309F4EDC8AFEFB8E08E0185
:103110000F5F1F4FF801702EF12E8D918193CE1607
:10312000DF06D9F7D8016D918D0170E080E090E065
:1031300040E10E94DB0A89EF93E00E94DA0AC016A0
:10314000D10681F767E0872D9F2D0E94FA089885A8
:10315000891719F08CEF93E002C08AE094E00E9496
:10316000DA0A0E94D20C872D9F2D0E94BE0C8EE49D
:103170000E94950C8FEF0E94950C8FEF0E94950C8A
:103180008FE50E94950C88E40E94950C0E94D20C59
:10319000872D9F2D0E94BE0C8EEB0E94950C0E94E5
:1031A000500C0E94500C0E94500C0E94500C0E9427
:1031B000500C8F3569F485E194E00E94DA0A60E1F1
:1031C00070E08FE590E00E94EA0B8DEB93E002C087
:1031D00089E294E00E94DA0AE3947DC860E082E22A
:1031E0000E94F70461E00BC08FE10E94CF04892B9D
:1031F00009F4A2CE61E082E20E94F70460E081E27D
:103200000E94F70460912507709126078091270797
:1032100090912807A2019101CFD3CA01B9010E9460
:10322000610561E082E20E94F70461E081E20E94B0
:10323000F70482CE61E084E20E94F70460E083E25A
:103240000E94F7046091290770912A0780912B074B
:1032500090912C07A2019101AFD3CA01B9010E943C
:10326000610561E084E20E94F70461E083E20E946C
:10327000F70428CFCF9310922A081092290888EEDD
:1032800093E0A0E0B0E080932B0890932C08A093EB
:103290002D08B0932E0829EA32E0309328082093B5
:1032A000270825EC30E0309334082093330824ECD1
:1032B00030E0309336082093350820EC30E030932E
:1032C00038082093370821EC30E030933A082093F7
:1032D000390822EC30E030933C0820933B0826EC80
:1032E00030E030933E0820933D0810924008109241
:1032F000410810924208109243081092C708109299
:10330000C6088093C8089093C908A093CA08B093D0
:10331000CB088BEB92E09093C5088093C408E2ED54
:10332000F8E01192119288E0E23FF807D1F710928D
:10333000D0081092D10860E082E00E942505E4E503
:10334000F2E0E491E093FC08EEE0F2E0E491F0E0DA
:10335000EE0FFF1FEE50FE4F859194919093FE0863
:103360008093FD081092070910920909109208092C
:10337000E7E0F9E08FEF98E012928E179F07E1F7F0
:103380001092F2081092F30880E991E0A0E0B0E01A
:103390008093F8089093F908A093FA08B093FB087B
:1033A0000E9499056093F4087093F5088093F608DD
:1033B0009093F70863E388E299E00E94C20A61E310
:1033C00083E299E00E94C20A62E38EE199E00E94E2
:1033D000C20A60E389E199E00E94C20A60E384E1E5
:1033E00099E00E94C20A60E38FE099E00E94C20A5D
:1033F00060E38AE099E00E94C20A10926409109288
:1034000063091092620910925F0981E0E82FF0E0F1
:10341000E956FD4FE491823009F4EF5F91E0980F97
:10342000E11102C0892FF2CF80936009C1E0C093FF
:10343000610910925509C09356098AEF90E0A0E007
:10344000B0E080935B0990935C09A0935D09B09311
:103450005E090E94990560935709709358098093FB
:10346000590990935A0910924B09C0934C0988E965
:103470009AE3A0E0B0E08093510990935209A093A1
:103480005309B09354090E94990560934D097093B4
:103490004E0980934F099093500910924109C093AF
:1034A000420986E990E0A0E0B0E08093470990935C
:1034B0004809A0934909B0934A090E94990560936D
:1034C00043097093440980934509909346091092EB
:1034D0003709C093380980E395E7A0E0B0E0809316
:1034E0003D0990933E09A0933F09B09340090E9483
:1034F00099056093390970933A0980933B09909339
:103500003C0910922D09C0932E0980E69AEEA0E0A6
:10351000B0E08093330990933409A0933509B093B8
:1035200036090E94990560932F09709330098093A2
:10353000310990933209CF91089540D008F481E089
:103540000895E89409C097FB3EF490958095709596
:1035500061957F4F8F4F9F4F9923A9F0F92F96E9DF
:10356000BB279395F695879577956795B795F11154
:10357000F8CFFAF4BB0F11F460FF1BC06F5F7F4FF1
:103580008F4F9F4F16C0882311F096E911C0772303
:1035900021F09EE8872F762F05C0662371F096E80C
:1035A000862F70E060E02AF09A95660F771F881FDB
:1035B000DAF7880F9695879597F90895990F00087F
:1035C000550FAA0BE0E8FEEF16161706E807F907F5
:1035D000C0F012161306E407F50798F0621B730B90
:1035E000840B950B39F40A2661F0232B242B252B11
:1035F00021F408950A2609F4A140A6958FEF811DB4
:10360000811D08950BD078C069D028F06ED018F0D5
:10361000952309F05AC05FC01124A2C07ED0A0F348
:10362000959FD1F3950F50E0551F629FF001729F57
:10363000BB27F00DB11D639FAA27F00DB11DAA1F76
:10364000649F6627B00DA11D661F829F2227B00DC3
:10365000A11D621F739FB00DA11D621F839FA00D4E
:10366000611D221F749F3327A00D611D231F849F9E
:10367000600D211D822F762F6A2F11249F575040F5
:103680008AF0E1F088234AF0EE0FFF1FBB1F661F90
:10369000771F881F91505040A9F79E3F510570F049
:1036A00014C05EC05F3FECF3983EDCF386957795DF
:1036B0006795B795F795E7959F5FC1F7FE2B880F44
:1036C000911D9695879597F9089597F99F6780E8DA
:1036D00070E060E008959FEF80EC089500240A9464
:1036E0001616170618060906089500240A941216DD
:1036F0001306140605060895092E0394000C11F410
:10370000882352F0BB0F40F4BF2B11F460FF04C0BC
:103710006F5F7F4F8F4F9F4F089557FD9058440F15
:10372000551F59F05F3F71F04795880F97FB991F20
:1037300061F09F3F79F087950895121613061406DD
:10374000551FF2CF4695F1DF08C01616170618066A
:10375000991FF1CF86957105610508940895E89445
:10376000BB2766277727CB0197F908955058BB27C9
:10377000AA270ED0C1CFB2DF30F0B7DF20F031F48E
:103780009F3F11F41EF4A7CF0EF4E095E7FB9DCF09
:10379000E92FC3DF80F3BA17620773078407950721
:1037A00018F071F49EF5DBCF0EF4E0950B2EBA2FD6
:1037B000A02D0B01B90190010C01CA01A001112437
:1037C000FF27591B99F0593F50F4503E68F11A16E3
:1037D000F040A22F232F342F4427585FF3CF469574
:1037E00037952795A795F0405395C9F77EF41F1696
:1037F000BA0B620B730B840BBAF09150A1F0FF0F60
:10380000BB1F661F771F881FC2F70EC0BA0F621F4B
:10381000731F841F48F4879577956795B795F7953B
:103820009E3F08F0B3CF9395880F08F09927EE0FCD
:103830009795879508950CD05FCF57DF40F04EDF06
:1038400030F021F45F3F19F040CF511189CF43CFC1
:1038500064DF98F39923C9F35523B1F3951B550BF6
:10386000BB27AA2762177307840738F09F5F5F4F53
:10387000220F331F441FAA1FA9F333D00E2E3AF094
:10388000E0E830D091505040E695001CCAF729D0AE
:10389000FE2F27D0660F771F881FBB1F26173707FD
:1038A0004807AB07B0E809F0BB0B802DBF01FF272D
:1038B00093585F4F2AF09E3F510568F006CF50CFD6
:1038C0005F3FECF3983EDCF3869577956795B79567
:1038D000F7959F5FC9F7880F911D9695879597F982
:1038E0000895E1E0660F771F881FBB1F62177307FB
:1038F0008407BA0720F0621B730B840BBA0BEE1F10
:1039000088F7E095089504D06894B11129CF0895FF
:103910000CDF88F09F5790F0B92F9927B751A0F08E
:10392000D1F0660F771F881F991F1AF0BA95C9F753
:1039300012C0B13081F013DFB1E0089510CF672FCE
:10394000782F8827B85F39F0B93FCCF38695779503
:103950006795B395D9F73EF49095809570956195EC
:103960007F4F8F4F9F4F089529DE08F48FEF089502
:1039700025DE880B990B0895991B79E004C0991FE7
:10398000961708F0961B881F7A95C9F780950895B9
:10399000AA1BBB1B51E107C0AA1FBB1FA617B70775
:1039A00010F0A61BB70B881F991F5A95A9F7809591
:1039B0009095BC01CD010895A1E21A2EAA1BBB1B54
:1039C000FD010DC0AA1FBB1FEE1FFF1FA217B307EB
:1039D000E407F50720F0A21BB30BE40BF50B661F01
:1039E000771F881F991F1A9469F7609570958095C5
:1039F00090959B01AC01BD01CF010895EE0FFF1F13
:103A0000881F8BBF0790F691E02D199481E090E01C
:083A1000F89400C0F894FFCF08
:103A18000E030E030E030E030E030E030E030E0316
:103A28000000B841FF28180740040000CB284DF7D4
:103A3800BF04000043280000000000000028200FF9
:103A480040040000B92807BB3F040000E828000034
:103A5800000000000028000000000000002800000E
:103A680000000000002800000000000000280000FE
:103A7800000000000028FF7561681801AC28FFF6F7
:103A8800DD671801F528FF04606818018328000025
:103A980000000000002800000000000000280000CE
:103AA80000000000003F065B4F666D7D077F6F7763
:103AB8007C395E797100000000EE017A0E86013AC9
:103AC80002B7019501A901000000009B036F03CA1A
:103AD8000343036703530344030A73746172742036
:103AE800287365747570290A000A737461727420EA
:103AF80028696E697453797374656D54696D6529A5
:103B08000A00525443206973204E4F542072756E38
:103B18006E696E67210A004E6F762020362032309B
:103B280031390032303A35323A31310073746F70BE
:103B38002028696E697453797374656D54696D656D
:103B48002920000A73746172742028696E69745F91
:103B5800544D31363337290A000A73746F702028A0
:103B6800696E69745F544D31363337290A000A7318
:103B7800746172742028696E697454656D70290ABD
:103B8800000A7374617274202866696E64416C6CF3
:103B9800636F6E6E65637444533138423230290A5C
:103BA80000546F74616C2073656E736F7273202D8F
:103BB800200073746F70202866696E64416C6C63B2
:103BC8006F6E6E65637444533138423230290A008F
:103BD8000A73746F702028696E697454656D702952
:103BE8000A0053746172742028696E697456616C96
:103BF8007665290A000A43616C6C207465737456F3
:103C0800616C766554544B0A002020002020204324
:103C180052435F4641554C542000202020435243D4
:103C28005F4F4B20005265736F6C7574696F6E5FE0
:103C38007365745F4F4B2028005265736F6C757401
:103C4800696F6E5F4E4F545F736574210A00457249
:103C5800726F7220696E2E2E2E2000675F74696D58
:103C68006553776974636856616C766554544B2064
:103C780000206D730A000A43616C6C2074657374CC
:103C880056616C76655359530A00675F74696D65B0
:103C980053776974636856616C766553595320008D
:103CA80073746F7020287365747570292000206DF7
:103CB800630A000A73746172742028696E64696308
:103CC80061746F725F544D313633375F4F7574705E
:103CD80075745F74696D65290A0073746F702028A4
:103CE800696E64696361746F725F544D313633373E
:103CF8005F4F75747075745F74696D65292000363F
:103D080020003720003820003920003130200031D1
:103D1800312000313220003133200031342000318D
:103D280035200073746F70202867657454656D7052
:103D380065726174757244533138423230292000FB
:103D48004572726F7220696E2067657454656D7074
:103D58006572617475724453313842323020000AFA
:103D680073746172742028696E64696361746F7218
:103D78005F544D313633375F4F75747075745F74A7
:103D8800656D7065726174757265290A00506F649B
:103D9800616368612054544B004F627261746B61B7
:103DA8002054544B0056657268205441004E697A7D
:103DB80020544100506F6461636861205359530077
:103DC8004F627261746B612053595300506F6D6577
:103DD800736368656E69650073746F702028696E17
:103DE80064696361746F725F544D313633375F4F66
:103DF80075747075745F74656D70657261747572D1
:103E0800652920000A7374617274202874656D70C6
:103E180065726174757265436F6E74726F6C545419
:103E28004B290A0073746F70202874656D70657271
:103E38006174757265436F6E74726F6C54544B295C
:103E480020007A617075736B206E61736F736120E7
:103E58005359530073746F70206E61736F736120D0
:103E6800535953002A2A2A2A2A2A2A2A2A2A2A2A53
:103E78002A2A2A2A2A2A2A63656C657661696120BA
:103E880074656D7065726174757261200073746F0A
:103E980070202874656D7065726174757265436F02
:103EA8006E74726F6C535953292000537461727485
:103EB80020287465737456616C7665290A006675E6
:103EC8006C6C206F70656E696E672074696D652013
:103ED8003D20006D732C20657272436F64203D2075
:103EE8000066756C6C20636C6F73696E672074690B
:103EF8006D65203D200073746F702028746573749D
:103F080056616C7665290A006E616E00696E6600FE
:083F18006F7666000D0A00003F
:00000001FF
