:1000000024C1000052C1000050C100004EC10000D8
:100010004CC100004AC1000048C1000046C10000B8
:1000200044C1000042C1000040C100003EC10000C8
:100030003CC100003AC1000038C1000036C10000D8
:1000400034C1000032C1000030C100002EC10000E8
:100050002CC10000B9C5000028C100000BC500007C
:1000600024C100005FC3000034C300001EC10000B3
:100070001CC100001AC1000018C1000016C1000018
:1000800014C1000012C1000010C100000EC1000028
:100090000CC100000AC1000008C1000006C1000038
:1000A00004C1000002C1000000C10000FEC0000049
:1000B000FCC00000FAC00000F8C00000F6C000005C
:1000C000F4C00000F2C00000F0C00000EEC000006C
:1000D000ECC00000EAC00000E8C00000E6C000007C
:1000E000E4C00000AC02AF029E02A202A802E60237
:1000F000B302B702BD02C102C502CB02CF02D302D6
:10010000E602D902DD02E1020000210024002700FE
:100110002A002D0030003300010100000401070116
:100120000A0100002200250028002B002E003100CB
:10013000340002010000050108010B0100000A0B58
:1001400002090C0D0E080703040100000000000066
:10015000000000000000000000000000000000009F
:10016000000000000000000012111000000000005C
:10017000000000000000000000000000000000007F
:100180000000005EBCE2613FDD83C29C7E20A3FDD7
:100190001F41009D23BE46DB65F88C11AF32CA5764
:1001A000E974000020002300260029002C002F0005
:1001B00032000001000003010601090105050505E3
:1001C000070508080808020202020A0A08080404CF
:1001D00004040101010101010101030303030303FD
:1001E0000303040707070C0C0C0C0C0C0C0C02028C
:1001F000020206060606060606060B0B0B0B0B0B89
:100200000B0B010210202008081020401020408015
:1002100002010201080402010102040810204080CA
:100220008040201008040201800402018040201058
:1002300008040201080402010102040810204080A1
:100240000102040810204080CE0B11241FBECFEF06
:10025000D1E2DEBFCDBF00E00CBF13E0A0E0B2E012
:10026000ECE6FDE100E00BBF02C007900D92A63264
:10027000B107D9F724E0A6E2B3E001C01D92A1388E
:10028000B207E1F711E0C5E2D1E000E006C0219736
:100290000109802FFE010E94A80EC432D10780E020
:1002A0000807A9F789D70C94B40EAACECF92DF9293
:1002B000EF92FF920F931F93CF93DF936C017A011C
:1002C0008B01C0E0D0E0CE15DF0581F0D8016D9143
:1002D0008D01D601ED91FC910190F081E02DC601D8
:1002E0001995892B11F02196EECF7E01C701DF9180
:1002F000CF911F910F91FF90EF90DF90CF900895D5
:10030000089580E090E00895FC01538D448D252FE1
:1003100030E0842F90E0821B930B541710F0CF969F
:10032000089501970895FC01918D828D981761F0D1
:10033000828DDF01A80FB11D5D968C91928D9F5F1C
:100340009F73928F90E008958FEF9FEF0895FC01C7
:10035000918D828D981731F0828DE80FF11D858D7A
:1003600090E008958FEF9FEF0895FC01918D228D0D
:10037000892F90E0805C9F4F821B91098F73992792
:10038000089588E793E0F1DF21E0892B09F420E06C
:10039000822F0895FC01848DDF01A80FB11DA35A9F
:1003A000BF4F2C91848D90E001968F739927848F95
:1003B000A689B7892C93A089B1898C9183708064B8
:1003C0008C93938D848D981306C00288F389E02D59
:1003D00080818F7D80830895EF92FF920F931F930A
:1003E000CF93DF93EC0181E0888F9B8D8C8D9813E8
:1003F00005C0E889F989808185FD25C0F62E0B8D21
:1004000010E00F5F1F4F0F731127E02E8C8DE81245
:100410000BC00FB607FCFACFE889F989808185FF08
:10042000F5CFCE01B7DFF2CF8B8DFE01E80FF11DC6
:10043000E35AFF4FF0829FB7F8940B8FEA89FB894C
:10044000808180620AC09FB7F894EE89FF8960833B
:10045000E889F98980818370806480839FBF81E00F
:1004600090E0DF91CF911F910F91FF90EF90089551
:10047000CF93DF93EC01888D8823C1F0EA89FB8953
:10048000808185FD05C0A889B9898C9186FD0EC043
:100490000FB607FCF5CF808185FFF2CFA889B98917
:1004A0008C9185FFEDCFCE0175DFE8CFDF91CF9145
:1004B000089580E090E0892B19F063DF811125C059
:1004C00080E090E0892B41F080E090E0892B21F0E2
:1004D0000E94000081111CC080E090E0892B41F057
:1004E00080E090E0892B21F00E940000811113C070
:1004F00080E090E0892BA1F080E090E0892B81F0F2
:100500000E94000081110AC008950E940000D8CF07
:100510000E940000E1CF0E940000EACF0C9400008E
:10052000089590E0FC013197E231F10508F04EC0EA
:100530008827EE58FF4F8F4F0C94A80E80918000B3
:100540008F7703C0809180008F7D80938000089515
:1005500080918000877FF9CF84B58F7702C084B502
:100560008F7D84BD08958091B0008F7703C0809106
:10057000B0008F7D8093B0000895809190008F77B8
:1005800007C0809190008F7D03C080919000877F8D
:100590008093900008958091A0008F7707C080918C
:1005A000A0008F7D03C08091A000877F8093A00072
:1005B0000895809120018F7707C0809120018F7D61
:1005C00003C080912001877F8093200108953FB769
:1005D000F89480912B0390912C03A0912D03B0915E
:1005E0002E0326B5A89B05C02F3F19F00196A11D2B
:1005F000B11D3FBFBA2FA92F982F8827820F911DB9
:10060000A11DB11DBC01CD0142E0660F771F881FFF
:10061000991F4A95D1F708958F929F92AF92BF92FA
:10062000CF92DF92EF92FF926B017C01D0DF4B0102
:100630005C01C114D104E104F104E9F0C8DFDC017C
:10064000CB0188199909AA09BB09883E9340A105E5
:10065000B10578F321E0C21AD108E108F10888EE6B
:10066000880E83E0981EA11CB11CC114D104E104C2
:10067000F10421F7DECFFF90EF90DF90CF90BF9095
:10068000AF909F908F900895FC0183819481823078
:10069000910538F0880F991F880F991F05970197CA
:1006A000F1F708950E94B00ECF93DF9300D01F9210
:1006B000CDB7DEB719821A821B821C82BE016F5F22
:1006C0007F4F7BD30F900F900F900F90DF91CF91C2
:1006D00008951F920F920FB60F9211240BB60F922E
:1006E0002F933F934F935F936F937F938F939F933A
:1006F000AF93BF93EF93FF9388E793E04BDEFF91B7
:10070000EF91BF91AF919F918F917F916F915F9189
:100710004F913F912F910F900BBE0F900FBE0F90F6
:100720001F9018951F920F920FB60F9211240BB6BF
:100730000F922F938F939F93EF93FF93E0918803F2
:10074000F09189038081E0918E03F0918F0382FD07
:1007500012C09081809191038F5F8F7320919203DB
:10076000821751F0E0919103F0E0E858FC4F958F2B
:100770008093910301C08081FF91EF919F918F91B0
:100780002F910F900BBE0F900FBE0F901F901895DA
:10079000CF93DF93282F30E0F901E45CFE4F849182
:1007A000F901EE5FFD4FD491F901E454FE4FC4917D
:1007B000CC2389F08111B5DEEC2FF0E0EE0FFF1FA6
:1007C000EE55FE4FA591B491EC91ED2381E090E0C0
:1007D00021F480E002C080E090E0DF91CF910895A5
:1007E0001F93CF93DF93282F30E0F901E45CFE4F95
:1007F0008491F901EE5FFD4FD491F901E454FE4F6D
:10080000C491CC23B9F0162F81118BDEEC2FF0E0D0
:10081000EE0FFF1FEE5DFE4FA591B4919FB7F894C8
:10082000111104C08C91D095D82302C0EC91DE2B1D
:10083000DC939FBFDF91CF911F910895CF93DF93FA
:1008400090E0FC01EE5FFD4F2491FC01E454FE4F6B
:100850008491882361F190E0880F991FFC01E85F83
:10086000FE4FC591D491FC01EE5DFE4FA591B49170
:10087000611109C09FB7F8948881209582238883ED
:10088000EC912E230BC0623061F49FB7F8948881FD
:10089000322F309583238883EC912E2B2C939FBF8E
:1008A00006C08FB7F894E8812E2B28838FBFDF9185
:1008B000CF9108952FB7F894609127037091280382
:1008C0008091290390912A032FBF08950F931F93BE
:1008D000CF93DF93EC01EEDF0A811B812C813D81F8
:1008E000DC01CB01801B910BA20BB30B0E811F818E
:1008F0002885398580179107A207B30750F0DADF02
:100900006A837B838C839D838981882311F081E0B6
:1009100088838881DF91CF911F910F9108958F92E5
:100920009F92AF92BF92CF92DF92EF92FF920F937E
:100930001F93CF93DF93CDB7DEB72A970FB6F89406
:10094000DEBF0FBECDBFC82ED62E842FF22E198249
:100950001A824D839FE0E92EEC8262E06FDF1E82F7
:100960001F82FA86E98662E08F2D68DFA3DF4B01E4
:100970005C0160E08C2D34DF61E08D2D31DFCE0134
:100980000196FBD197DFDC01CB0188199909AA09EF
:10099000BB0989389341A105B10530F489818823C9
:1009A00071F3E12CF12C03C0EE24E394F12C61E00F
:1009B0008C2D16DF61E08D2D13DF7CDFDC01CB0198
:1009C00088199909AA09BB09F80180839183A28338
:1009D000B38370DF4B015C0160E08D2D01DF61E0CE
:1009E0008C2DFEDECE010696C8D164DFDC01CB0182
:1009F00088199909AA09BB0989389341A105B1054C
:100A000020F022E0E20EF11C03C08E81882351F316
:100A100061E08C2DE5DE61E08D2DE2DE4BDFDC0157
:100A2000CB0188199909AA09BB09F8018080918036
:100A3000A280B38088169906AA06BB0610F44C0162
:100A40005D01F80180829182A282B382C7012A9659
:100A50000FB6F894DEBF0FBECDBFDF91CF911F91CF
:100A60000F91FF90EF90DF90CF90BF90AF909F904D
:100A70008F9008951F920F920FB60F9211242F930B
:100A80003F938F939F93AF93BF9380912703909150
:100A90002803A0912903B0912A033091260323E073
:100AA000230F2D3720F40196A11DB11D05C026E8A6
:100AB000230F0296A11DB11D2093260380932703C7
:100AC00090932803A0932903B0932A0380912B03CA
:100AD00090912C03A0912D03B0912E030196A11D9E
:100AE000B11D80932B0390932C03A0932D03B093FF
:100AF0002E03BF91AF919F918F913F912F910F90B6
:100B00000FBE0F901F9018950F931F93CF93DF93F5
:100B1000EC01062F18E061E0888190DECE01B4DDA3
:100B200000FF02C060E001C061E0898187DECE0184
:100B3000ABDD60E0888182DECE01A6DD0695115036
:100B400051F761E088817ADE60E0898177DECE014D
:100B50009BDD60E0888172DECE0196DD898118DE42
:100B6000182F811103C061E0898168DECE018CDD20
:100B700061E0888163DECE0187DD81E0111101C073
:100B800080E0DF91CF911F910F910895CF93DF9374
:100B9000EC0161E0898152DECE0176DD60E0888182
:100BA0004DDECE0171DD60E0898148DECE01DF914E
:100BB000CF916ACDCF93DF93EC0161E089813EDE76
:100BC000CE01DF91CF9160CD1F920F920FB60F92A1
:100BD00011240BB60F92FF920F931F932F933F9305
:100BE0004F935F936F937F938F939F93AF93BF9335
:100BF000CF93DF93EF93FF938FEF86BD8091150422
:100C00008823D1F1C7E1D4E007E314E0A991B991B9
:100C1000109701F1FFB6F8948C918823D1F01996C2
:100C2000ED91FC911A973097A1F011964D915D913D
:100C30006D917C9114974150510961097109119688
:100C40004D935D936D937C931497452B462B472BC7
:100C500029F0FFBE0C171D07C9F60EC015964D9161
:100C60005D916D917C91189711964D935D936D9365
:100C70007C9314971995EDCFFF91EF91DF91CF9170
:100C8000BF91AF919F918F917F916F915F914F91A4
:100C90003F912F911F910F91FF900F900BBE0F90DE
:100CA0000FBE0F901F901895CF93DF93EC0187E252
:100CB0008883698384E690E09C838B8360E087E28D
:100CC000BDDD60E08981BADD60E0888189DD60E0BA
:100CD0008981DF91CF9184CD009761F0FC01019073
:100CE0000020E9F73197AF01481B590BBC0188E799
:100CF00093E0DCCA80E090E008958F929F92AF92DB
:100D0000BF920F931F93CF93DF93CDB7DEB7A19719
:100D10000FB6F894DEBF0FBECDBF19A2423008F463
:100D20004AE08E010F5D1F4F842E912CA12CB12C17
:100D3000A5019401EBD7E62FB901CA0101501109B1
:100D4000EA3014F4E05D01C0E95CD801EC93232B98
:100D5000242B252B69F7C801BFDFA1960FB6F894A5
:100D6000DEBF0FBECDBFDF91CF911F910F91BF901E
:100D7000AF909F908F900895AFCF0F931F93CF9315
:100D8000DF93EC01088110E08C8102DD0817190760
:100D900011F01A820DC08A818F5F8A839B81891727
:100DA00038F0888191E0892788831A82811199839C
:100DB000DF91CF911F910F910895EF92FF920F93C2
:100DC0001F93CF93DF93EC017B01F4DE60E4CE014F
:100DD0009BDECE01DBDECE01EDDE60ECCE0194DEEB
:100DE000870184E0E80EF11CF80161918F01CE01CA
:100DF0008BDE0E151F05C1F7CE01C8DECE01DADE8F
:100E00006A816F706058CE017FDECE01DF91CF9195
:100E10001F910F91FF90EF90B9CECF93DF9388EBA6
:100E200092E05ADFEC0186EB92E056DF8C0F9D1FBB
:100E3000DF91CF9108954F925F926F927F928F9240
:100E40009F92AF92BF92CF92DF92EF92FF926B018F
:100E50007C019B01AC0142D7882319F089E193E022
:100E600018C046015701E894B7F82FEF3FEF4FE75E
:100E70005FE7C501B40132D781110EC02FEF3FEFFC
:100E80004FE75FE7C501B401DBD518162CF48DE1FF
:100E900093E022DF7C0171C02FEF3FEF4FE75FE46B
:100EA000C701B601B4D618161CF481E293E0F1CF65
:100EB0002FEF3FEF4FE75FECC701B601C1D587FDCC
:100EC000F4CF20E030E0A901C701B601B9D587FF12
:100ED0000AC06DE288E793E07FDA5C01F7FAF094EC
:100EE000F7F8F09402C0A12CB12C2AE037ED43EAC8
:100EF0005BE3C701B60140D52B013C01AAD56B01CC
:100F00007C01D3D59B01AC01C301B20134D52B01C7
:100F10003C014AE0C701B601F0DE7C01EA0CFB1C93
:100F20006EE288E793E058DAE80EF91E20E030E040
:100F300040E251E4C301B2016ED62B013C0189D5D8
:100F40004B01A12CB12C4AE0C501B401D6DEE80E5C
:100F5000F91EC501B401A9D59B01AC01C301B201C1
:100F60000AD520E030E040E251E455D672D580E069
:100F700090E04AE0C2DEE80EF91E86EB92E0ACDEBD
:100F80008E0D9F1DFF90EF90DF90CF90BF90AF90A0
:100F90009F908F907F906F905F904F9008959F9259
:100FA000AF92BF92CF92DF92EF92FF920F931F9377
:100FB000CF93DF9300D01F92CDB7DEB76C01CB018A
:100FC00077FF03C0919581959109009731F41982BB
:100FD0001A821B828FE38C8343C09C01472F441FDE
:100FE0004427441F8E010F5F1F4F5E0183E0A81A44
:100FF000B108F8018AE0E82EF12C90E4992EC9019D
:10100000B70170D6582F811105C02115310511F493
:1010100013820BC09927DC01A058BD4F8C918383AC
:10102000511107C02115310521F4442311F0938299
:1010300040E0C901B70156D69B013197EA15FB057F
:10104000F1F69E012B5F3F4F80E4982F9078F801D6
:101050004081942B91938F01880F2E173F07A9F79A
:10106000BE016F5F7F4FC601A8DE0F900F900F90FB
:101070000F90DF91CF911F910F91FF90EF90DF9034
:10108000CF90BF90AF909F900895CF92DF92EF9254
:10109000FF920F931F93CF93DF9328E030E041E05E
:1010A0006FEF70E09FE0C92ED12CC3E2D0E007EDD6
:1010B00010E090914104E0914204F0914304592FD3
:1010C0005095F82EF42281F0F894F2805F2152833B
:1010D0005181592B5183DE011197F1F75281952BE4
:1010E00092837894F8010FC0F894F2805F215283C4
:1010F0005181592B5183DB011197F1F75281952BC7
:1011000092837894F6013197F1F7440F2150310919
:1011100081F6F894E0914204F0914304918180912A
:101120004104809598239183E0914204F091430417
:101130009281892382837894DF91CF911F910F91BF
:10114000FF90EF90DF90CF90089520914104E091BF
:101150004204F0914304F8948181922F9095892361
:10116000818378948DE743E050E0815021F1DA01EA
:101170001197F1F730813223C1F3F89482818923EA
:1011800082838181822B81837894ABE7B7E01197CA
:10119000F1F7F89481819823918383E191E001979D
:1011A000F1F78081282381E009F080E07894E3E67C
:1011B000F6E03197F1F70895CF93DF93CDB7DEB71F
:1011C0002B970FB6F894DEBF0FBECDBF789484B5D1
:1011D000826084BD84B5816084BD85B5826085BD33
:1011E00085B5816085BD80916E00816080936E00C1
:1011F00010928100809181008260809381008091B3
:101200008100816080938100809180008160809363
:1012100080008091B10084608093B1008091B00023
:1012200081608093B00080919100826080939100F2
:101230008091910081608093910080919000816005
:10124000809390008091A10082608093A1008091A2
:10125000A10081608093A1008091A00081608093B3
:10126000A000809121018260809321018091210161
:101270008160809321018091200181608093200111
:1012800080917A00846080937A0080917A008260F5
:1012900080937A0080917A00816080937A008091B7
:1012A0007A00806880937A001092C10003DBE0919D
:1012B0008803F091890382E08083E0918403F091B8
:1012C00085031082E0918603F091870380E180839B
:1012D00010929003E0918C03F0918D0386E080835F
:1012E000E0918A03F0918B03808180618083E0919B
:1012F0008A03F0918B03808188608083E0918A0368
:10130000F0918B03808180688083E0918A03F09163
:101310008B0380818F7D808361E08DE08FDA60E0D8
:101320008DE05EDA61E081E289DA61E081E258DA3B
:1013300061E082E283DA61E082E252DA62E08FE128
:101340007DDA62E080E27ADA61E08DE177DA61E00D
:101350008DE146DA61E08EE171DA61E08EE140DA3A
:101360008EE594E0A1D989E594E09ED984E594E0E6
:101370009BD98FE494E098D98FE0809351048093B7
:10138000600480935B048093560403E313E020E23F
:101390004FE162E281E2C3DA82EA92E0EDDC609141
:1013A00033037091340380913503909136034AE002
:1013B000A4DC86EB92E090DC0FE213E026E245E24B
:1013C00064E283E2ACDA89EB92E0D6DC609133032D
:1013D0007091340380913503909136034AE08DDC9F
:1013E00086EB92E079DC97E0A92EB12C2FEC222E2F
:1013F000312C39E1C32ED12CE12CF12C5BDA87E7BB
:1014000094E064DA8DE694E061DA83E694E05EDAF3
:1014100087E794E05BDA882309F4B3C04BDA87E30B
:1014200094E054DA80913804811109C08EDE8CEC8E
:101430002CDE84E42ADE81E080933804A2C080910F
:101440003704882309F49DC01092380410923704A1
:10145000109277042FDA6093790470937A04809362
:101460007B0490937C0487E3482E83E0582E00E0B1
:1014700012E03E018AE0680E711C67DE85E505DE3C
:101480004801085F1F4FF40181914F01FEDD0815EF
:101490001905C9F78EEBF9DDDE011196BB87AA8726
:1014A00028E030E060E071E090904104E091420477
:1014B000F0914304F8944181492941834281892C68
:1014C000809448214283C5010197F1F7418184222C
:1014D000818243E250E0CA010197F1F7408178949C
:1014E000F1013197F1F7942209F0672B770F215022
:1014F0003109D1F6EA85FB856193FB87EA876E1691
:101500007F0671F699E0E0E0915089F08D918E2789
:10151000E82FEF70F0E0EE57FE4F2491E82FE295B0
:10152000EF70F0E0EE56FE4FE491E227EDCF8985B3
:101530008E1721F0F9EFFA8380ED898369817A8132
:101540008D81807611F4687F07C0803211F46C7F42
:1015500003C0803409F46E7F072E000C880B990BB2
:10156000A6D220E030E040E85DE355D3F20161937C
:101570007193819391932F01F2E000381F0709F0D6
:101580007CCF8DE694E0A2D9882309F450C092D98B
:1015900020E030E048EC52E460913703709138036A
:1015A0008091390390913A0336D34ED28EE594E080
:1015B000F6DC20E030E048EC52E460913B037091AF
:1015C0003C0380913D0390913E0325D33DD289E5B4
:1015D00094E0E5DC20E030E048EC52E46091470321
:1015E000709148038091490390914A0314D32CD2FF
:1015F00084E594E0D4DC20E030E048EC52E46091F3
:101600003F0370914003809141039091420303D3C3
:101610001BD28FE494E0C3DC10926D044BD960932D
:101620006F0470937004809371049093720483E646
:1016300094E04CD9882309F48EC03CD960E08DE158
:10164000CFD88DEC92E098DB609143037091440316
:101650008091450390914603EEDB87ED92E08CDBB1
:1016600060914703709148038091490390914A0328
:10167000E2DB80EE92E080DB6091630370916403B3
:101680008091650390916603D6DB88EE92E074DB6F
:101690006091770370E080E090E04AE02EDB86EB1B
:1016A00092E01ADB609143037091440380914503FB
:1016B00090914603C9D1613571059CF06B35710578
:1016C0001CF081E08093770360E082E289D861E0DA
:1016D00081E286D860E08DE183D860E08EE180D839
:1016E0003AC010927703609147037091480380914C
:1016F000490390914A03A8D1663371056CF080E2EA
:1017000047D8892B49F087EF92E036DB86DB60E033
:1017100082E266D861E02AC082EF92E02DDB7DDBB9
:1017200060914703709148038091490390914A0367
:101730008BD16F32710524F48FE12AD8892B71F493
:1017400010926304B7D86093650470936604809325
:101750006704909368040E94590250CE88E093E099
:101760000BDB5BDB61E082E23BD860E081E238D8F2
:101770006091330370913403809135039091360367
:10178000A7019601C3D2CA01B9010E940C0361E00E
:1017900082E226D861E081E223D8D2CFCF931092A3
:1017A0007B0310927A0388EE93E0A0E0B0E0809390
:1017B0007C0390937D03A0937E03B0937F0384E921
:1017C00092E0909379038093780385EC90E0909376
:1017D00085038093840384EC90E090938703809347
:1017E000860380EC90E0909389038093880381ECDA
:1017F00090E090938B0380938A0382EC90E0909327
:101800008D0380938C0386EC90E090938F038093FC
:101810008E031092910310929203109293031092F0
:101820009403E7E1F4E01192119284E0E733F807C2
:10183000D1F7109215041092160460E082E00E9425
:101840001E04E4E0F2E0E491E0934104EEEBF1E009
:10185000E491F0E0EE0FFF1FEE55FE4F859194915D
:10186000909343048093420410924C0410924E04CF
:1018700010924D04ECE4F4E0129284E0E434F807B2
:10188000D9F7109237041092380480E991E0A0E073
:10189000B0E080933D0490933E04A0933F04B09346
:1018A000400408D86093390470933A0480933B0451
:1018B00090933C046DE28EE594E0F6D96CE289E504
:1018C00094E0F2D96BE284E594E0EED96EE28FE425
:1018D00094E0EAD910927704C1E0C093780484EFD1
:1018E00091E0A0E0B0E080937D0490937E04A0930B
:1018F0007F04B09380040E945A046093790470932B
:101900007A0480937B0490937C0410926D04C093BE
:101910006E0488E893E1A0E0B0E0809373049093B4
:101920007404A0937504B09376040E945A046093E3
:101930006F047093700480937104909372041092FA
:101940006304C093640480E69AEEA0E0B0E0809364
:10195000690490936A04A0936B04B0936C040E9492
:101960005A046093650470936604809367049093AF
:101970006804CF9108955058BB27AA270ED00DC1F7
:10198000FED030F003D120F031F49F3F11F41EF46B
:10199000F3C00EF4E095E7FBE9C0E92F0FD180F327
:1019A000BA17620773078407950718F071F49EF55C
:1019B00027C10EF4E0950B2EBA2FA02D0B01B90113
:1019C00090010C01CA01A0011124FF27591B99F0B5
:1019D000593F50F4503E68F11A16F040A22F232FC1
:1019E000342F4427585FF3CF469537952795A79511
:1019F000F0405395C9F77EF41F16BA0B620B730BB8
:101A0000840BBAF09150A1F0FF0FBB1F661F771F28
:101A1000881FC2F70EC0BA0F621F731F841F48F4DD
:101A2000879577956795B795F7959E3F08F0B3CF63
:101A30009395880F08F09927EE0F9795879508954D
:101A400071D008F481E0089504D06894B111D9C030
:101A50000895BCD088F09F5790F0B92F9927B751BF
:101A6000A0F0D1F0660F771F881F991F1AF0BA9562
:101A7000C9F712C0B13081F0C3D0B1E00895C0C041
:101A8000672F782F8827B85F39F0B93FCCF3869558
:101A900077956795B395D9F73EF4909580957095B5
:101AA00061957F4F8F4F9F4F0895E89409C097FB32
:101AB0003EF490958095709561957F4F8F4F9F4F25
:101AC0009923A9F0F92F96E9BB279395F695879569
:101AD00077956795B795F111F8CFFAF4BB0F11F42C
:101AE00060FF1BC06F5F7F4F8F4F9F4F16C08823D3
:101AF00011F096E911C0772321F09EE8872F762F09
:101B000005C0662371F096E8862F70E060E02AF049
:101B10009A95660F771F881FDAF7880F9695879535
:101B200097F90895990F0008550FAA0BE0E8FEEF0A
:101B300016161706E807F907C0F012161306E40791
:101B4000F50798F0621B730B840B950B39F40A268A
:101B500061F0232B242B252B21F408950A2609F468
:101B6000A140A6958FEF811D811D089597F99F676C
:101B700080E870E060E008959FEF80EC0895002415
:101B80000A941616170618060906089500240A94E2
:101B900012161306140605060895092E0394000C68
:101BA00011F4882352F0BB0F40F4BF2B11F460FFF7
:101BB00004C06F5F7F4F8F4F9F4F089557FD905820
:101BC000440F551F59F05F3F71F04795880F97FB01
:101BD000991F61F09F3F79F08795089512161306BB
:101BE0001406551FF2CF4695F1DF08C016161706EA
:101BF0001806991FF1CF869571056105089408951F
:101C0000E894BB2766277727CB0197F908958ADFE9
:101C100008F48FEF08950BD0C0CFB1DF28F0B6DF06
:101C200018F0952309F0A2CFA7CF1124EACFC6DF81
:101C3000A0F3959FD1F3950F50E0551F629FF001DF
:101C4000729FBB27F00DB11D639FAA27F00DB11D38
:101C5000AA1F649F6627B00DA11D661F829F2227C1
:101C6000B00DA11D621F739FB00DA11D621F839F48
:101C7000A00D611D221F749F3327A00D611D231F1E
:101C8000849F600D211D822F762F6A2F11249F576C
:101C900050408AF0E1F088234AF0EE0FFF1FBB1F8F
:101CA000661F771F881F91505040A9F79E3F51052E
:101CB00070F05CCFA6CF5F3FECF3983EDCF38695E7
:101CC00077956795B795F795E7959F5FC1F7FE2BD9
:101CD000880F911D9695879597F9089523DF880BB6
:101CE000990B0895AA1BBB1B51E107C0AA1FBB1F7C
:101CF000A617B70710F0A61BB70B881F991F5A9598
:101D0000A9F780959095BC01CD010895A1E21A2E06
:101D1000AA1BBB1BFD010DC0AA1FBB1FEE1FFF1F8F
:101D2000A217B307E407F50720F0A21BB30BE40BDF
:101D3000F50B661F771F881F991F1A9469F7609526
:101D40007095809590959B01AC01BD01CF010895E0
:101D5000EE0FFF1F881F8BBF0790F691E02D19949F
:0C1D600081E090E0F89400C0F894FFCF00
:101D6C0028B845A30900002C28FD10C0040000FD74
:101D7C0028FFA8A5601802EE28FF09646818016105
:101D8C0028FF19E16718011A28FFF9A9601802A4A5
:101D9C0028010000000000002800000000000000E6
:101DAC0028000000000000002800000000000000D7
:101DBC0028000000000000002800000000000000C7
:101DCC0028000000000000002800000000000000B7
:101DDC0028000000000000002800000000000000A7
:101DEC003F065B4F666D7D077F6F777C395E79713F
:101DFC0000000000EC01560184013802B50193018A
:101E0C00A70174696D6520666F20726567546573F0
:101E1C0074313A2020000D0A0074696D6520666FDC
:101E2C002072656754657374323A2020000A706F13
:101E3C00646163686120006F627261746B61200081
:101E4C006E697A2054412000675F6661696C757217
:101E5C006500656C736520506572656772657620E8
:101E6C006F627261746B69004E65646F6772657640
:101E7C00206F627261746B69006E616E00696E66D0
:061E8C00006F7666000005
:020000023000CC
:10E000000D9489F10D94B2F10D94B2F10D94B2F129
:10E010000D94B2F10D94B2F10D94B2F10D94B2F1F0
:10E020000D94B2F10D94B2F10D94B2F10D94B2F1E0
:10E030000D94B2F10D94B2F10D94B2F10D94B2F1D0
:10E040000D94B2F10D94B2F10D94B2F10D94B2F1C0
:10E050000D94B2F10D94B2F10D94B2F10D94B2F1B0
:10E060000D94B2F10D94B2F10D94B2F10D94B2F1A0
:10E070000D94B2F10D94B2F10D94B2F10D94B2F190
:10E080000D94B2F10D94B2F10D94B2F10D94B2F180
:10E090000D94B2F10D94B2F10D94B2F10D94B2F170
:10E0A0000D94B2F10D94B2F10D94B2F10D94B2F160
:10E0B0000D94B2F10D94B2F10D94B2F10D94B2F150
:10E0C0000D94B2F10D94B2F10D94B2F10D94B2F140
:10E0D0000D94B2F10D94B2F10D94B2F10D94B2F130
:10E0E0000D94B2F141546D656761323536300041AF
:10E0F000726475696E6F206578706C6F72657220DE
:10E1000073746B3530305632206279204D4C530099
:10E11000426F6F746C6F616465723E004875683F52
:10E1200000436F6D70696C6564206F6E203D200048
:10E130004350552054797065202020203D20005FF9
:10E140005F4156525F415243485F5F3D2000415658
:10E1500052204C696243205665723D20004743437C
:10E160002056657273696F6E203D20004350552024
:10E1700049442020202020203D20004C6F7720663D
:10E18000757365202020203D20004869676820665F
:10E190007573652020203D200045787420667573D6
:10E1A00065202020203D20004C6F636B2066757336
:10E1B000652020203D20004D617220203720323024
:10E1C000313300312E362E3800342E332E350056A2
:10E1D00023202020414444522020206F7020636F70
:10E1E00064652020202020696E73747275637469E1
:10E1F0006F6E2061646472202020496E74657272B3
:10E20000757074006E6F20766563746F7200726A49
:10E210006D702020006A6D70200057686174207056
:10E220006F72743A00506F7274206E6F7420737541
:10E2300070706F72746564004D7573742062652030
:10E2400061206C6574746572002000577269747483
:10E25000696E672045450052656164696E672045B7
:10E26000450045452065727220636E743D00504F35
:10E27000525400303D5A65726F2061646472003FF1
:10E280003D43505520737461747300403D454550C3
:10E29000524F4D207465737400423D426C696E6B41
:10E2A000204C454400453D44756D70204545505215
:10E2B0004F4D00463D44756D7020464C415348001B
:10E2C000483D48656C70004C3D4C69737420492F83
:10E2D0004F20506F72747300513D51756974005234
:10E2E0003D44756D702052414D00563D73686F7707
:10E2F00020696E7465727275707420566563746FF0
:10E30000727300593D506F727420626C696E6B00BD
:10E310002A0011241FBECFEFD1E2DEBFCDBF01E046
:10E320000CBF12E0A0E0B2E0EEE1FDEF03E00BBFB6
:10E3300002C007900D92A030B107D9F712E0A0E01B
:10E34000B2E001C01D92AE30B107E1F70F9460F367
:10E350000D948DFE01E20EBF0FEF0DBF11241FBE05
:10E360000D9460F30D9400F020E030E040ED57E0B4
:10E3700005C0FA013197F1F72F5F3F4F2817390792
:10E38000C0F308959C01260F311DC901A0E0B0E043
:10E390002F5F3F4FABBFFC018791882361F08093D3
:10E3A000C6008091C00086FFFCCF8091C0008064D1
:10E3B0008093C000EACF08958DE08093C6008091DD
:10E3C000C00086FFFCCF8091C00080648093C000B5
:10E3D0008AE08093C6008091C00086FFFCCF8091C8
:10E3E000C00080648093C00008950F94C2F10F9420
:10E3F000DCF10895FC019081992359F09093C600B7
:10E400008091C00086FFFCCF8091C0008064809323
:10E41000C0003196992379F70895282F982F929567
:10E420009F70892F805D8A3308F0895F8093C600D2
:10E430008091C00086FFFCCF8091C00080648093F3
:10E44000C000822F8F70982F905D9A3308F0995FEB
:10E450009093C6008091C00086FFFCCF8091C000E1
:10E4600080648093C00008959C01FB01853691056E
:10E470001CF46330710594F0C90164E670E00F94F8
:10E480002EFE605D7F4F6093C6008091C00086FFC6
:10E49000FCCF8091C00080648093C0002B30310598
:10E4A00014F43297B4F0C90164E670E00F942EFEC4
:10E4B0006AE070E00F942EFE605D7F4F6093C600AF
:10E4C0008091C00086FFFCCF8091C0008064809363
:10E4D000C000C9016AE070E00F942EFEC0968093E0
:10E4E000C6008091C00086FFFCCF8091C000806490
:10E4F0008093C00008951F93182F8EE692EE60E07F
:10E500000F94C2F11093C6008091C00086FFFCCF2B
:10E510008091C00080648093C0000F94DCF11F9153
:10E5200008952F923F924F925F926F927F928F92B7
:10E530009F92AF92BF92CF92DF92EF92FF920F9392
:10E540001F93DF93CF93CDB7DEB762970FB6F894E2
:10E55000DEBF0FBECDBF382E622ECA01DB015C01CB
:10E560006D01772420E2222E2E010894411C511CBB
:10E570008BC081E0A81680E0B80681E0C80680E084
:10E58000D80628F0C601AA27BB270F940DF2BB2797
:10E59000AD2D9C2D8B2D0F940DF28A2D0F940DF225
:10E5A0002092C6008091C00086FFFCCF8091C00001
:10E5B00080648093C0009DE29093C6008091C0006B
:10E5C00086FFFCCF8091C00080648093C0002092C1
:10E5D000C6008091C00086FFFCCF8091C00080649F
:10E5E0008093C00019828601750188249924A1E0D6
:10E5F0003A1651F03A1620F0B2E03B1661F409C029
:10E600000BBFF701779007C0C7010F9477FE782EF4
:10E6100002C0F7017080872D0F940DF22092C60082
:10E620008091C00086FFFCCF8091C0008064809301
:10E63000C000872D8052F401EF70F0708F3520F408
:10E64000E40DF51D708204C0E40DF51D8EE280839B
:10E650000894E11CF11C011D111D0894811C911CE2
:10E6600090E18916910409F0C2CF80E190E0A0E02A
:10E67000B0E0A80EB91ECA1EDB1E198AC2010F9493
:10E68000FAF10F94DCF16A94662009F072CF629679
:10E690000FB6F894DEBF0FBECDBFCF91DF911F91B3
:10E6A0000F91FF90EF90DF90CF90BF90AF909F9031
:10E6B0008F907F906F905F904F903F902F90089534
:10E6C0002F923F924F925F926F927F928F929F9282
:10E6D000AF92BF92CF92DF92EF92FF920F931F9370
:10E6E000DF93CF93CDB7DEB7CD53D1400FB6F894BB
:10E6F000DEBF0FBECDBF01E20EBF0FEF0DBF94B75F
:10E70000F894A89514BE80916000886180936000A1
:10E7100010926000789493FF05C0E0910002F091A0
:10E7200001021995279A2F9A8091C00082608093E8
:10E73000C00080E18093C40088E18093C1000000A4
:10E74000EE24FF24870144E0A42EB12CCC24DD2448
:10E7500024C0C5010197F1F70894E11CF11C011DCB
:10E76000111D21E2E2162EE4F20620E0020720E06D
:10E77000120718F031E0C32ED12CC801B70127ECE5
:10E780003BE140E050E00F9441FE611571058105C9
:10E79000910519F485B1805885B98091C00087FD35
:10E7A00003C0C114D104A9F2A6014F5F5F4FC25E3E
:10E7B000DE4F59834883CE51D140C25EDE4F8881FF
:10E7C0009981CE51D140019711F00D9410FEC05D9A
:10E7D000DE4F19821882C053D14060E0C15DDE4F28
:10E7E0001882CF52D14088249924C35DDE4F19820C
:10E7F0001882CD52D140C05EDE4F188219821A8233
:10E800001B82C052D140CE5CDE4F188219821A8220
:10E810001B82C253D140EE24FF2487010BBFF701B6
:10E8200007911691C45CDE4F19830883CC53D14005
:10E830000D940BFEC25EDE4F28813981CE51D1404E
:10E840002130310509F52091C600C25EDE4F1982E4
:10E850001882CE51D14022C02F5F3F4F4F4F5F4FA4
:10E86000213082E138078AE7480780E0580780F0C6
:10E87000C45CDE4FE881F981CC53D140EF5FFF4F9C
:10E8800019F0EE27FF27099420E030E040E050E047
:10E890008091C00087FFE0CF2091C600C35DDE4FAE
:10E8A00048815981CD52D1404F5F5F4FC35DDE4FEC
:10E8B00059834883CD52D140213209F063C64A3092
:10E8C000510508F05FC60894811C911C53E0851621
:10E8D000910409F059C600E010E018C081E280936D
:10E8E000C6008091C00086FFFCCF8091C00080648C
:10E8F0008093C0002F5F3F4F2931310579F70F9486
:10E90000DCF10F5F1F4F0530110519F020E030E0FA
:10E91000E5CF10920A0210920B0210920C02109294
:10E920000D02109206021092070210920802109235
:10E930000902109202021092030210920402109235
:10E9400005028FEE90EE60E00F94F5F180E191EE1C
:10E9500060E00F94C2F18091C00087FFFCCF9091DE
:10E96000C600903608F09F759032B8F09093C600BC
:10E970008091C00086FFFCCF8091C00080648093AE
:10E98000C000A0E2A093C6008091C00086FFFCCF2B
:10E990008091C00080648093C000983409F4D7C18E
:10E9A0009934B8F4923409F459C1933458F490333B
:10E9B00019F1903308F4E3C59F33A1F1903409F0C5
:10E9C000DEC5BDC0953409F470C1963409F0D7C5D1
:10E9D00098C1923509F42BC2933538F49C3409F46C
:10E9E000F5C1913509F0CBC518C2963509F445C279
:10E9F000993509F0C4C567C483E792EE62E00F94CD
:10EA0000F5F110920602109207021092080210927D
:10EA1000090210920A0210920B0210920C0210923C
:10EA20000D0213C18FE792EE62E00F94F5F18FEEC5
:10EA300090EE60E00F94F5F181E291EE60E00F94CA
:10EA4000C2F187EB91EE60E00F94F5F180E391EE77
:10EA500060E00F94C2F184EE90EE60E00F94F5F167
:10EA60008FE391EE60E00F94C2F186E090E061E008
:10EA700070E00F9434F20F94DCF18DE591EE60E0DC
:10EA80000F94C2F189EC91EE60E00F94F5F18EE401
:10EA900091EE60E00F94C2F183EC91EE60E00F9490
:10EAA000F5F18CE691EE60E00F94C2F18EE10F94E7
:10EAB0000DF288E90F940DF281E00F940DF20F949E
:10EAC000DCF18BE791EE60E00F94C2F119E0E0E039
:10EAD000F0E010935700E4918E2F0F940DF20F94F5
:10EAE000DCF18AE891EE60E00F94C2F1E3E0F0E03F
:10EAF00010935700E4918E2F0F940DF20F94DCF1D8
:10EB000089E991EE60E00F94C2F1E2E0F0E0109349
:10EB10005700E4918E2F0F940DF20F94DCF188EAE8
:10EB200091EE60E00F94C2F1E1E0F0E01093570045
:10EB30001491812F0F940DF20F94DCF107CF8BE825
:10EB400092EE62E00F94F5F18BE492EE60E00F94A8
:10EB5000F5F10F94DCF100E010E019C0C8016F2D51
:10EB60000F947FFEFF2031F489E492EE60E00F9471
:10EB7000C2F10BC0F092C6008091C00086FFFCCFAE
:10EB80008091C00080648093C0000F5F1F4FC80158
:10EB900081519F41A0E0B0E0ABBFFC01F790BAE229
:10EBA000FB1621F0E2E000301E07C1F60F94DCF105
:10EBB0000F94DCF187E592EE60E00F94F5F10F948D
:10EBC000DCF1CC24DD2400E010E01EC0C8010F946D
:10EBD00077FEF82E882331F489E492EE60E00F94FA
:10EBE000C2F10BC08093C6008091C00086FFFCCFAD
:10EBF0008091C00080648093C000FE1419F00894D6
:10EC0000C11CD11C0F5F1F4FC80181519F41A0E063
:10EC1000B0E0ABBFFC01E790FAE2EF1621F022E092
:10EC20000030120799F60F94DCF10F94DCF182E6C4
:10EC300092EE60E00F94C2F1C60161E070E00F94C3
:10EC400034F20F94DCF10F94DCF110920202109276
:10EC50000302109204021092050278CE89E992EE26
:10EC600062E00F94F5F1279A2F9A16C02F9880E052
:10EC700090E0E0EDF7E03197F1F7019684369105E9
:10EC8000C1F72F9A80E090E0E0EDF7E03197F1F7DF
:10EC9000019684369105C1F78091C00087FFE6CFC9
:10ECA0008091C00087FFFCCF64C485EA92EE62E0E9
:10ECB0000F94F5F140910202509103026091040219
:10ECC0007091050281E020E10F9491F2809102029F
:10ECD00090910302A0910402B091050280509F4FD1
:10ECE000AF4FBF4F8093020290930302A0930402A0
:10ECF000B093050280509041A040B04008F426CE69
:10ED0000A4CF83EB92EE62E00F94F5F140910602FE
:10ED100050910702609108027091090280E020E1A1
:10ED20000F9491F28091060290910702A09108023F
:10ED3000B091090280509F4FAF4FBF4F80930602A2
:10ED400090930702A0930802B0930902FFCD80ECD4
:10ED500092EE62E00F94F5F183E792EE60E00F949B
:10ED6000F5F18FE792EE60E00F94F5F18BE892EE0B
:10ED700060E00F94F5F189E992EE60E00F94F5F10F
:10ED800085EA92EE60E00F94F5F183EB92EE60E09D
:10ED90000F94F5F180EC92EE60E00F94F5F187ECC2
:10EDA00092EE60E00F94F5F188ED92EE60E00F9442
:10EDB000F5F18FED92EE60E00F94F5F18AEE92EEB0
:10EDC00060E00F94F5F183E093EEBDCD87EC92EE19
:10EDD00062E00F94F5F181E40F947BF282E40F94EA
:10EDE0007BF283E40F947BF284E40F947BF285E45E
:10EDF0000F947BF286E40F947BF287E40F947BF20E
:10EE000088E40F947BF28AE40F947BF28BE40F94F6
:10EE10007BF28CE40F947BF299CD88ED92EE62E068
:10EE20000F94F5F1772473948824992409C48FED05
:10EE300092EE62E00F94F5F140910A0250910B02BC
:10EE400060910C0270910D0282E020E10F9491F22A
:10EE500080910A0290910B02A0910C02B0910D02D8
:10EE600080509F4FAF4FBF4F80930A0290930B0289
:10EE7000A0930C02B0930D0269CD8AEE92EE62E08F
:10EE80000F94F5F184EE90EE60E00F94F5F18FECC5
:10EE900091EE60E00F94F5F1662477244301CC5D98
:10EEA000DE4F19821882C452D140D401C301B695F5
:10EEB000A79597958795CA5DDE4F88839983AA8326
:10EEC000BB83C652D140CC5DDE4FA881B981C4520C
:10EED000D1401196CC5DDE4FB983A883C452D14096
:10EEE000CD0162E070E00F9434F2B0E2B093C6005E
:10EEF0008091C00086FFFCCF8091C0008064809329
:10EF0000C000EDE2E093C6008091C00086FFFCCF18
:10EF10008091C00080648093C000F0E2F093C6004E
:10EF20008091C00086FFFCCF8091C00080648093F8
:10EF3000C000CA5DDE4FE880F9800A811B81C6529D
:10EF4000D140BB27A12F902F8F2D0F940DF2CA5DBA
:10EF5000DE4F8881C652D1400F940DF2B0E2FB2EF5
:10EF6000F092C6008091C00086FFFCCF8091C00067
:10EF700080648093C0000DE30093C6008091C000C0
:10EF800086FFFCCF8091C00080648093C00010E2B7
:10EF90001093C6008091C00086FFFCCF8091C00016
:10EFA00080648093C0008BBEF3012791C65DDE4F65
:10EFB0002883CA52D140A22EBB24CC24DD2408943D
:10EFC000611C711C811C911C8BBEF3018791282E42
:10EFD0003324442455240894611C711C811C911C09
:10EFE0008BBEF3013791C55DDE4F3883CB52D140E4
:10EFF0000894611C711C811C911C8BBEF30147910C
:10F00000C45DDE4F4883CC52D140ADEFEA2EAFEF66
:10F01000FA2EAFEF0A2FAFEF1A2F6E0C7F1C801E57
:10F02000911E142D032DF22CEE24EA0CFB1C0C1D5A
:10F030001D1D0F940DF220E22093C6008091C000A8
:10F0400086FFFCCF8091C00080648093C000C65DC5
:10F05000DE4F8881CA52D1400F940DF230E23093D6
:10F06000C6008091C00086FFFCCF8091C000806404
:10F070008093C000C45DDE4F8881CC52D1400F9494
:10F080000DF240E24093C6008091C00086FFFCCFA5
:10F090008091C00080648093C000C55DDE4F888190
:10F0A000CB52D1400F940DF250E25093C6008091A4
:10F0B000C00086FFFCCF8091C00080648093C000B8
:10F0C0008FEFE8168FEFF80680E0080780E018075A
:10F0D00031F484E092EE60E00F94C2F1DFC0D80119
:10F0E000C7018070907CA070B0708050904CA040A0
:10F0F000B040D1F52FEF3FE340E050E0E222F322B1
:10F1000004231523CA5DDE4FA880B980CA80DB8046
:10F11000C652D140AE0CBF1CC01ED11EAA0CBB1CD7
:10F12000CC1CDD1C8EE092EE60E00F94C2F1BB2798
:10F13000A12F902F8F2D0F940DF28E2D0F940DF285
:10F1400030E23093C6008091C00086FFFCCF8091F2
:10F15000C00080648093C0004EE34093C60080915D
:10F16000C00086FFFCCF87C08EE09EEFA0E0B0E03D
:10F17000E822F9220A231B239CE0E91694E9F90608
:10F1800090E0090790E0190709F088C0C45DDE4FE0
:10F19000A881CC52D140EA2EFF2400E010E0102FCD
:10F1A0000F2DFE2CEE24C55DDE4FB881CB52D14031
:10F1B000EB0EF11C011D111DD601C501817090706F
:10F1C000A070B070DC0199278827E80EF91E0A1F8D
:10F1D0001B1F20EF30E040E050E0A222B322C42207
:10F1E000D52241E1AA0CBB1CCC1CDD1C4A95D1F7F1
:10F1F000EA0CFB1C0C1D1D1D81E090E0A0E0B0E0BE
:10F20000282239224A225B2235E1220C331C441C7D
:10F21000551C3A95D1F7E20CF31C041D151D57013E
:10F220006801AA0CBB1CCC1CDD1C85E192EE60E0E1
:10F230000F94C2F1C801AA27BB270F940DF2BB2778
:10F24000A12F902F8F2D0F940DF28E2D0F940DF274
:10F2500090E29093C6008091C00086FFFCCF809121
:10F26000C00080648093C000AEE3A093C60080918C
:10F27000C00086FFFCCF8091C00080648093C000F6
:10F28000C601AA27BB270F940DF2BB27AD2D9C2DDD
:10F290008B2D0F940DF28A2D0F940DF20F94DCF14B
:10F2A000CC5DDE4FE881F981C452D140F99709F471
:10F2B0004DCBF4E0EF2EF12C012D112D6E0C7F1CA7
:10F2C000801E911EF2CD83E093EE62E00F94F5F183
:10F2D0008AE192EE60E00F94C2F18091C00087FF56
:10F2E000FCCF1091C6001F751093C6008091C0001E
:10F2F00086FFFCCF8091C00080648093C0000F9493
:10F30000DCF1812F81548A3108F036C1163409F4BA
:10F3100095C0173490F4133409F44EC0143430F40B
:10F320001134F1F0123409F01DC130C0143409F465
:10F3300059C0153409F016C16BC01A3409F4C4C0A1
:10F340001B3438F4173409F48FC0183409F00AC19B
:10F35000A1C01B3409F4D2C01C3409F003C1E8C0B9
:10F360008FEF81B90DC082B1809582B980E090E0C5
:10F37000E0EDF7E03197F1F70196883C9105C1F790
:10F380008091C00087FFEFCF12B8EFC08FEF84B934
:10F390000DC085B1809585B980E090E0E0EDF7E0A3
:10F3A0003197F1F70196883C9105C1F78091C00033
:10F3B00087FFEFCF15B8D9C08FEF87B90DC088B1DF
:10F3C000809588B980E090E0E0EDF7E03197F1F7C3
:10F3D0000196883C9105C1F78091C00087FFEFCF6F
:10F3E00018B8C3C08FEF8AB90DC08BB180958BB9A7
:10F3F00080E090E0E0EDF7E03197F1F70196883C8E
:10F400009105C1F78091C00087FFEFCF1BB8ADC059
:10F410008FEF8DB90DC08EB180958EB980E090E0F0
:10F42000E0EDF7E03197F1F70196883C9105C1F7DF
:10F430008091C00087FFEFCF1EB897C08FEF80BBD1
:10F440000DC081B3809581BB80E090E0E0EDF7E0F6
:10F450003197F1F70196883C9105C1F78091C00082
:10F4600087FFEFCF11BA81C08FEF83BB0DC084B38C
:10F47000809584BB80E090E0E0EDF7E03197F1F714
:10F480000196883C9105C1F78091C00087FFEFCFBE
:10F4900014BA6BC08FEF809301010FC080910201FD
:10F4A00080958093020180E090E0E0EDF7E03197F5
:10F4B000F1F70196883C9105C1F78091C00087FF64
:10F4C000EDCF1092020151C08FEF809304010FC065
:10F4D0008091050180958093050180E090E0E0ED4A
:10F4E000F7E03197F1F70196883C9105C1F78091DB
:10F4F000C00087FFEDCF1092050137C08FEF8093DA
:10F5000007010FC08091080180958093080180E079
:10F5100090E0E0EDF7E03197F1F70196883C910536
:10F52000C1F78091C00087FFEDCF109208011DC088
:10F530008FEF80930A010FC080910B01809580931B
:10F540000B0180E090E0E0EDF7E03197F1F70196F4
:10F55000883C9105C1F78091C00087FFEDCF1092E4
:10F560000B0103C085E292EEEEC98091C00087FFD7
:10F57000FCCF8091C600EAC988E392EEE4C98CE131
:10F5800091EEE1C988249924933011F1943028F444
:10F59000913089F09230B8F408C0953061F195301F
:10F5A000F0F0963009F048C043C02B3109F042C951
:10F5B00091E06BE13FC96227C15DDE4F2883CF52E6
:10F5C000D14092E037C9B22FA0E0622793E032C960
:10F5D000822F90E0A82BB92B622794E02BC92E3004
:10F5E00009F039C3622795E0C05DDE4F19821882A9
:10F5F000C053D1401FC9E1E0F0E0EC0FFD1FC05D3A
:10F60000DE4F08811981C053D140E00FF11F2083E4
:10F610000F5F1F4FC05DDE4F19830883C053D14079
:10F6200062270A171B0709F005C9D80196E002C92D
:10F63000261709F010C303C0973009F0FBC87724E0
:10F640009981933109F412C19431C8F4963009F4C8
:10F65000D8C0973050F4923009F406C1933009F4C1
:10F660006DC0913009F059C253C0913109F477C08F
:10F67000923108F0BBC0903109F04FC2F5C098310B
:10F6800009F487C0993150F4953109F4EFC09531F0
:10F6900008F4C6C1963109F040C2C2C19A3109F4DA
:10F6A0006CC09A3108F491C09B3109F45BC09D3164
:10F6B00009F033C29D81903359F48F81882311F46E
:10F6C0009EE11CC0813011F091E018C098E916C08D
:10F6D000892F807591F0903539F4E0E0F0E089E011
:10F6E0008093570094910AC0983539F4E3E0F0E034
:10F6F00089E080935700949101C090E01A821B82A8
:10F700008D818C831D829E831F8227E030E009C299
:10F710001A8288E08B8381E48C8386E58D8382E581
:10F720008E8389E48F8383E5888780E589878FE5E9
:10F730008A8782E38B872BE030E0F3C18A818139AD
:10F7400041F0823941F0803911F48FE005C080E04A
:10F7500003C082E001C08AE01A828B8344C0772410
:10F76000739482C08D81882311F48EE12CC0813086
:10F7700011F081E028C088E926C01A82E1E0F0E0BB
:10F7800089E08093570084918B831C8224E030E0D1
:10F79000C8C18B81803589F48C81883039F4E2E0EE
:10F7A000F0E089E08093570084910DC0E0E0F0E044
:10F7B00089E080935700849106C0E3E0F0E089E09F
:10F7C0008093570084911A82DFCF8D81836C99E0FA
:10F7D000E1E0F0E0082E90935700E89507B600FCB2
:10F7E000FDCF1A821B8223E030E09BC180EC8A832C
:10F7F000CE5CDE4F188219821A821B82C253D1401E
:10F800008EC18A8190E0A0E0B0E0582F44273327D2
:10F8100022278B8190E0A0E0B0E0DC0199278827C7
:10F82000282B392B4A2B5B2B8D8190E0A0E0B0E098
:10F83000282B392B4A2B5B2B8C8190E0A0E0B0E089
:10F84000BA2FA92F982F8827282B392B4A2B5B2BCF
:10F85000220F331F441F551FC05EDE4F288339839C
:10F860004A835B83C052D1401A8259C13A81C95C34
:10F87000DE4F3883C753D140CA5CDE4F1882C6536F
:10F88000D1408B81C82EDD24CA5CDE4F488159816E
:10F89000C653D140C42AD52A933109F082C0CE5C28
:10F8A000DE4F88819981AA81BB81C253D1408050AB
:10F8B000904CA340B04030F583E0CE5CDE4FE88052
:10F8C000F9800A811B81C253D140F70100935B008C
:10F8D00080935700E89507B600FCFDCFCE5CDE4F65
:10F8E000088119812A813B81C253D14000501F4FAA
:10F8F0002F4F3F4FCE5CDE4F088319832A833B8313
:10F90000C253D140C05EDE4F488159816A817B81FC
:10F91000C052D140DE011B9631E08C9111962C91A2
:10F9200011971296C75CDE4F2883C953D140C85C3B
:10F93000DE4F1882C853D14090E0C85CDE4FE881AA
:10F94000F981C853D1408E2B9F2B0C01FA01609393
:10F950005B0030935700E89511244E5F5F4F6F4F67
:10F960007F4F0EEFE02E0FEFF02ECE0CDF1CC114F8
:10F97000D10499F685E0C05EDE4F088119812A81A5
:10F980003B81C052D140F80120935B008093570027
:10F99000E89507B600FCFDCF81E180935700E8951C
:10F9A00035C0C05EDE4F88819981AA81BB81C0527B
:10F9B000D140B695A795979587957C018601ABE0D8
:10F9C000AA2EB12CAC0EBD1E0BC0D5016D915D01F0
:10F9D000C7010F947FFE0894E11CF11C01501040F8
:10F9E0000115110591F7A60160E070E0440F551F65
:10F9F000661F771FC05EDE4FE880F9800A811B8199
:10FA0000C052D1404E0D5F1D601F711F1A82C05E33
:10FA1000DE4F488359836A837B83C052D1407FC0C5
:10FA2000FA80C55CDE4FF882CB53D140C65CDE4F16
:10FA30001882CA53D1408B81C82EDD24C65CDE4FAC
:10FA400008811981CA53D140C02AD12A1A828981DA
:10FA5000BE016D5F7F4F843121F59601C05EDE4FA0
:10FA6000E880F9800A811B81C052D1400BBFF701A9
:10FA700087919691DB018C9311969C936E5F7F4FDB
:10FA8000D801C7010296A11DB11DC05EDE4F88835B
:10FA90009983AA83BB83C052D14022503040F1F6F3
:10FAA00036C0C05EDE4F288139814A815B81C052F9
:10FAB000D1400894C108D108760100E010E0089414
:10FAC000C11CD11C0894E11CF11C011D111DE20E8A
:10FAD000F31E041F151F21BDBB27A52F942F832FB5
:10FAE00082BD2F5F3F4F4F4F5F4FF89A80B5DB01CC
:10FAF0008D93BD012E153F054007510761F7C05E8C
:10FB0000DE4F288339834A835B83C052D1409601FC
:10FB10002D5F3F4FFB01108204C080EC8A8322E0FE
:10FB200030E08BE18093C6008091C00086FFFCCF5F
:10FB30008091C00080648093C000C15DDE4FF88179
:10FB4000CF52D140F093C6008091C00086FFFCCF19
:10FB50008091C00080648093C000432F3093C60022
:10FB60008091C00086FFFCCF8091C00080648093AC
:10FB7000C000922F2093C6008091C00086FFFCCF6A
:10FB80008091C00080648093C0008EE08093C600A6
:10FB90008091C00086FFFCCF8091C000806480937C
:10FBA000C00065E1C15DDE4FE880CF52D1406E25D7
:10FBB00069276427FE01319610C090819093C6009A
:10FBC0008091C00086FFFCCF31968091C000806498
:10FBD0008093C0006927215030402115310569F715
:10FBE0006093C6008091C00086FFFCCF8091C0006A
:10FBF00080648093C00085B1805885B9772081F4F6
:10FC0000C15DDE4F0881CF52D1400F5FC15DDE4F35
:10FC10000883CF52D14090E0A0E0B0E00D941AF4F8
:10FC200027982F9880E090E020ED37E0F901319798
:10FC3000F1F7019684369105C9F700008091C00064
:10FC40008D7F8093C00081E180935700E895EE2777
:10FC5000FF270994FFCF90E00D941AF497FB092E2B
:10FC600007260AD077FD04D02ED006D000201AF443
:10FC7000709561957F4F0895F6F7909581959F4F08
:10FC80000895A1E21A2EAA1BBB1BFD010DC0AA1FDD
:10FC9000BB1FEE1FFF1FA217B307E407F50720F0F5
:10FCA000A21BB30BE40BF50B661F771F881F991F70
:10FCB0001A9469F760957095809590959B01AC01B9
:10FCC000BD01CF010895AA1BBB1B51E107C0AA1FAC
:10FCD000BB1FA617B70710F0A61BB70B881F991FED
:10FCE0005A95A9F780959095BC01CD010895F99991
:10FCF000FECF92BD81BDF89A992780B50895262F31
:10FD0000F999FECF1FBA92BD81BD20BD0FB6F89400
:0EFD1000FA9AF99A0FBE01960895F894FFCF63
:040000033000E000E9
:00000001FF