:100000002BC10000EFC60000C2C6000095C600006C
:1000100068C600003BC600000EC60000E1C5000037
:10002000B4C500004AC1000048C1000046C100003C
:1000300044C100000C949D0D40C100003EC1000071
:100040003CC100003AC1000038C1000036C10000C8
:1000500034C100000C94D00830C100004CC5000031
:100060002CC100003CC4000011C4000026C10000E7
:1000700024C1000022C1000020C100001EC10000F8
:100080001CC100001AC1000018C1000016C1000008
:1000900014C1000012C1000010C10000CEC6000053
:1000A0000CC100000AC1000008C1000006C1000028
:1000B00004C1000002C1000000C10000FEC0000039
:1000C000FCC00000FAC00000F8C00000F6C000004C
:1000D000F4C00000F2C00000F0C00000EEC000005C
:1000E000ECC000008602890278027C028202C00213
:1000F0008D02910297029B029F02A502A902AD0206
:10010000C002B302B702BB02005EBCE2613FDD8306
:10011000C29C7E20A3FD1F41009D23BE46DB65F8E7
:100120008C11AF32CA57E974000022002500280064
:100130002B002E00310034000201000005010801EF
:100140000B0100002100240027002A002D003000B0
:10015000330001010000040107010A0100000A0B3D
:1001600002090C0D0E080703040100000000000046
:10017000000000000000000000000000000000007F
:10018000000000000000000012111000000000003C
:10019000000000000000000000000000000000005F
:1001A0000000000020002300260029002C002F0062
:1001B00032000001000003010601090105050505E3
:1001C000070508080808020202020A0A08080404CF
:1001D00004040101010101010101030303030303FD
:1001E0000303040707070C0C0C0C0C0C0C0C02028C
:1001F000020206060606060606060B0B0B0B0B0B89
:100200000B0B010210202008081020401020408015
:1002100002010201080402010102040810204080CA
:100220008040201008040201800402018040201058
:1002300008040201080402010102040810204080A1
:1002400001020408102040801F1C1F1E1F1E1F1FBC
:100250001E1F1E1F0200AE1411241FBECFEFD1E2DD
:10026000DEBFCDBF00E00CBF25E0A4E3B3E001C0DA
:100270001D92A839B207E1F713E0A0E0B2E0EEE288
:10028000F0E300E00BBF02C007900D92A433B1076A
:10029000D9F711E0CCE2D1E000E006C021970109D6
:1002A000802FFE010E940918CB32D10780E0080799
:1002B000A9F70E943C0E0C941518A2CEFC01538D98
:1002C000448D252F30E0842F90E0821B930B541730
:1002D00010F0CF96089501970895FC01918D828DBD
:1002E000981761F0828DDF01A80FB11D5D968C918A
:1002F000928D9F5F9F73928F90E008958FEF9FEF95
:100300000895FC01918D828D981731F0828DE80F50
:10031000F11D858D90E008958FEF9FEF0895FC010A
:10032000918D228D892F90E0805C9F4F821B9109D7
:100330008F739927089583E594E0F1DF21E0892BFD
:1003400009F420E0822F0895FC01848DDF01A80FBD
:10035000B11DA35ABF4F2C91848D90E001968F73ED
:100360009927848FA689B7892C93A089B1898C910C
:10037000837080648C93938D848D981306C002885B
:10038000F389E02D80818F7D80830895EF92FF9225
:100390000F931F93CF93DF93EC0181E0888F9B8DA8
:1003A0008C8D981305C0E889F989808185FD25C069
:1003B000F62E0B8D10E00F5F1F4F0F731127E02EED
:1003C0008C8DE8120BC00FB607FCFACFE889F989CB
:1003D000808185FFF5CFCE01B7DFF2CF8B8DFE0197
:1003E000E80FF11DE35AFF4FF0829FB7F8940B8F8F
:1003F000EA89FB89808180620AC09FB7F894EE8900
:10040000FF896083E889F9898081837080648083B3
:100410009FBF81E090E0DF91CF911F910F91FF90FE
:10042000EF900895CF93DF93EC01888D8823C1F07E
:10043000EA89FB89808185FD05C0A889B9898C91ED
:1004400086FD0EC00FB607FCF5CF808185FFF2CF89
:10045000A889B9898C9185FFEDCFCE0175DFE8CFF2
:10046000DF91CF91089580E090E0892B19F063DF50
:10047000811125C080E090E0892B41F080E090E080
:10048000892B21F00E94000081111CC080E090E0C7
:10049000892B41F080E090E0892B21F00E94000040
:1004A000811113C080E090E0892BA1F080E090E002
:1004B000892B81F00E94000081110AC008950E94DA
:1004C0000000D8CF0E940000E1CF0E940000EACFD8
:1004D0000C940000089590E0FC013197E231F105A1
:1004E00008F04EC08827EE58FF4F8F4F0C94091824
:1004F000809180008F7703C0809180008F7D8093F2
:100500008000089580918000877FF9CF84B58F7730
:1005100002C084B58F7D84BD08958091B0008F772F
:1005200003C08091B0008F7D8093B00008958091CA
:1005300090008F7707C0809190008F7D03C08091DD
:100540009000877F8093900008958091A0008F771E
:1005500007C08091A0008F7D03C08091A000877F9D
:100560008093A0000895809120018F7707C080912B
:1005700020018F7D03C080912001877F809320011F
:1005800008953FB7F8948091E2039091E303A0911E
:10059000E403B091E50326B5A89B05C02F3F19F0F1
:1005A0000196A11DB11D3FBFBA2FA92F982F8827F3
:1005B000820F911DA11DB11DBC01CD0142E0660F4E
:1005C000771F881F991F4A95D1F70895089585EDE3
:1005D0008093BC008091BC0084FDFCCF10922E045F
:1005E00008954091BA03262F30E0240F311D2132A7
:1005F0003105DCF420912E042430C9F4FC0180E0A4
:1006000090E0861758F43091BA032191DC01A65688
:10061000BC4FA30FB11D2C930196F3CF8091BA0369
:10062000680F6093BA0380E0089581E0089582E046
:100630000895089508950895E091E7038091E603F1
:10064000E81730F4F0E0E851FC4F808190E0089525
:100650008FEF9FEF08959091E7038091E60398173D
:1006600050F4E92FF0E0E851FC4F208130E09F5F2B
:100670009093E70302C02FEF3FEFC90108958091E7
:10068000E60390E02091E703821B91090895CF9241
:10069000DF92EF92FF920F931F93CF93DF937C0132
:1006A000CB018A0120912F04222389F0EB016B01F9
:1006B000C40ED51ECC15DD0561F06991D701ED9111
:1006C000FC910190F081E02DC7011995F3CF642FC3
:1006D00088DFC801DF91CF911F910F91FF90EF90BC
:1006E000DF90CF900895CF93DF931F92CDB7DEB701
:1006F000698320912F042223D1F0209152042032CB
:1007000040F021E030E0FC013383228380E090E080
:1007100014C080913004E82FF0E0EF5CFB4F99812A
:1007200090838F5F809330048093520404C061E013
:10073000CE01019656DF81E090E00F90DF91CF91DE
:100740000895089580E090E00895FC0183819481EC
:100750008230910538F0880F991F880F991F0597EF
:100760000197F1F708950E941118CF92DF92EF924E
:10077000FF920F931F93CF93DF9300D000D0CDB79C
:10078000DEB7789481E080932F0488E6809351044B
:10079000109230041092520460E080EF94E0A3DFE6
:1007A0009ED687E090E0F7D680EF94E054DF8F7715
:1007B000982F92959F701AEF082F919F000D11248A
:1007C00080EF94E048DF9C01332794E0359527952E
:1007D0009A95E1F7F82E129FF00C112480EF94E027
:1007E0003ADF9C01332744E0359527954A95E1F798
:1007F000E82E129FE00C112480EF94E02CDF80EFB4
:1008000094E029DF9C01332754E0359527955A95CC
:10081000E1F7D82E129FD00C112480EF94E01BDF5B
:100820009C01332764E0359527956A95E1F7C82E3A
:10083000129FC00C112480EF94E00DDF9C01332740
:1008400074E0359527957A95E1F7129F800D112474
:100850008983CA82DB82EC82FD820E8386E0FE0100
:100860003196ABE8B5E001900D928A95E1F72696B6
:100870000FB6F894DEBF0FBECDBFDF91CF911F91B1
:100880000F91FF90EF90DF90CF9008951F920F92FD
:100890000FB60F9211240BB60F922F933F934F93E5
:1008A0005F936F937F938F939F93AF93BF93EF93D8
:1008B000FF9383E594E048DDFF91EF91BF91AF9105
:1008C0009F918F917F916F915F914F913F912F9168
:1008D0000F900BBE0F900FBE0F901F9018951F9298
:1008E0000F920FB60F9211240BB60F922F938F9386
:1008F0009F93EF93FF93E0916304F09164048081F0
:10090000E0916904F0916A0482FD12C090818091A7
:100910006C048F5F8F7320916D04821751F0E0910A
:100920006C04F0E0ED5AFB4F958F80936C0401C08E
:100930008081FF91EF919F918F912F910F900BBE2E
:100940000F900FBE0F901F901895CF93DF93282F15
:1009500030E0F901E45AFE4F8491F901EE5FFD4F5A
:10096000D491F901E454FE4FC491CC2389F0811154
:10097000B2DDEC2FF0E0EE0FFF1FEE55FE4FA5911C
:10098000B491EC91ED2381E090E021F480E002C08D
:1009900080E090E0DF91CF9108951F93CF93DF9394
:1009A000282F30E0F901E45AFE4F8491F901EE5FFF
:1009B000FD4FD491F901E454FE4FC491CC23B9F01A
:1009C000162F811188DDEC2FF0E0EE0FFF1FE85DA0
:1009D000FE4FA591B4919FB7F894111104C08C916A
:1009E000D095D82302C0EC91DE2BDC939FBFDF9122
:1009F000CF911F910895CF93DF9390E0FC01EE5FBC
:100A0000FD4F2491FC01E454FE4F8491882361F151
:100A100090E0880F991FFC01EE5BFE4FC591D491C9
:100A2000FC01E85DFE4FA591B491611109C09FB72B
:100A3000F8948881209582238883EC912E230BC023
:100A4000623061F49FB7F8948881322F3095832308
:100A50008883EC912E2B2C939FBF06C08FB7F89400
:100A6000E8812E2B28838FBFDF91CF9108958F923D
:100A70009F92AF92BF92CF92DF92EF92FF926B0163
:100A80007C017FDD4B015C01C114D104E104F10460
:100A9000E9F077DDDC01CB0188199909AA09BB09C6
:100AA000883E9340A105B10578F321E0C21AD10830
:100AB000E108F10888EE880E83E0981EA11CB11CA5
:100AC000C114D104E104F10421F7DECFFF90EF90CF
:100AD000DF90CF90BF90AF909F908F9008952FB7E9
:100AE000F8946091DE037091DF038091E0039091B0
:100AF000E1032FBF08951F920F920FB60F9211249A
:100B00002F933F938F939F93AF93BF938091DE0377
:100B10009091DF03A091E003B091E1033091DD03F8
:100B200023E0230F2D3720F40196A11DB11D05C030
:100B300026E8230F0296A11DB11D2093DD038093AB
:100B4000DE039093DF03A093E003B093E103809171
:100B5000E2039091E303A091E403B091E5030196D1
:100B6000A11DB11D8093E2039093E303A093E403DE
:100B7000B093E503BF91AF919F918F913F912F91DA
:100B80000F900FBE0F901F9018951F920F920FB6E7
:100B90000F9211240BB60F922F933F934F935F93B5
:100BA0006F937F938F939F93AF93BF93EF93FF9335
:100BB000E0910E02F0910F021995FF91EF91BF9114
:100BC000AF919F918F917F916F915F914F913F91E5
:100BD0002F910F900BBE0F900FBE0F901F90189586
:100BE0001F920F920FB60F9211240BB60F922F93F4
:100BF0003F934F935F936F937F938F939F93AF93A5
:100C0000BF93EF93FF93E0910C02F0910D021995C1
:100C1000FF91EF91BF91AF919F918F917F916F91D4
:100C20005F914F913F912F910F900BBE0F900FBE90
:100C30000F901F9018951F920F920FB60F921124CC
:100C40000BB60F922F933F934F935F936F937F93C6
:100C50008F939F93AF93BF93EF93FF93E091020223
:100C6000F09103021995FF91EF91BF91AF919F9180
:100C70008F917F916F915F914F913F912F910F9045
:100C80000BBE0F900FBE0F901F9018951F920F92E2
:100C90000FB60F9211240BB60F922F933F934F93E1
:100CA0005F936F937F938F939F93AF93BF93EF93D4
:100CB000FF93E0910002F09101021995FF91EF91ED
:100CC000BF91AF919F918F917F916F915F914F9164
:100CD0003F912F910F900BBE0F900FBE0F901F9062
:100CE00018951F920F920FB60F9211240BB60F9208
:100CF0002F933F934F935F936F937F938F939F9324
:100D0000AF93BF93EF93FF93E0910A02F0910B0230
:100D10001995FF91EF91BF91AF919F918F917F9125
:100D20006F915F914F913F912F910F900BBE0F905C
:100D30000FBE0F901F9018951F920F920FB60F9233
:100D400011240BB60F922F933F934F935F936F93A2
:100D50007F938F939F93AF93BF93EF93FF93E09114
:100D60000802F09109021995FF91EF91BF91AF919F
:100D70009F918F917F916F915F914F913F912F91B3
:100D80000F900BBE0F900FBE0F901F9018951F92E3
:100D90000F920FB60F9211240BB60F922F933F9321
:100DA0004F935F936F937F938F939F93AF93BF9373
:100DB000EF93FF93E0910602F09107021995FF91DE
:100DC000EF91BF91AF919F918F917F916F915F91C3
:100DD0004F913F912F910F900BBE0F900FBE0F9030
:100DE0001F9018951F920F920FB60F9211240BB6F9
:100DF0000F922F933F934F935F936F937F938F93B4
:100E00009F93AF93BF93EF93FF93E0910402F09110
:100E100005021995FF91EF91BF91AF919F918F912D
:100E20007F916F915F914F913F912F910F900BBEEA
:100E30000F900FBE0F901F9018951F920F920FB634
:100E40000F9211240BB60F922F933F934F935F9302
:100E50006F937F938F939F93AF93BF93EF93FF9382
:100E60008091B900887F803609F49CC068F588328B
:100E700009F45BC090F4803109F454C038F488233D
:100E800009F4F6C0883009F44DC0F5C0883109F482
:100E90004CC0803209F45DC0EEC0803409F468C0F3
:100EA00048F4803309F455C0883309F0E4C08093D6
:100EB0002C04D8C0803509F44FC0883509F45DC0D2
:100EC000883409F0D8C0D6C0883909F4C7C0A8F45E
:100ED000883709F467C038F4883609F463C080376E
:100EE00009F460C0C8C0883809F4B8C0803909F472
:100EF0005FC0803809F0BFC05BC0803B09F486C08A
:100F000038F4803A09F466C0883A09F47FC0B3C067
:100F1000803C09F4A7C0883C09F4A4C0883B09F4CC
:100F20008AC0A9C08091090410C090912B048091BF
:100F30002A04981770F5E0912B0481E08E0F8093BE
:100F40002B04F0E0E65FFB4F80818093BB0085ECD3
:100F500086C080932C048EC0E0912B0481E08E0F1C
:100F600080932B048091BB00F0E0E65FFB4F808311
:100F700090912B0480912A046EC0E0912B0481E0B3
:100F80008E0F80932B048091BB00F0E0E65FFB4F57
:100F9000808380912D0481116DC081E080930804CD
:100FA00084EA61C083E080932E041092DC03CFCFEB
:100FB0008091DC03803208F051C0E091DC0381E0D5
:100FC0008E0F8093DC038091BB00F0E0E454FC4F73
:100FD0008083BDCF85EC8093BC0010922E0480915D
:100FE000DC03803230F4E091DC03F0E0E454FC4FA9
:100FF00010826091DC0370E0E0913403F0913503DE
:101000008CEB93E019951092DC0335C084E080935B
:101010002E041092BB031092BA03E0913603F091B4
:10102000370319958091BA03811105C081E080933F
:10103000BA0310929A03E091BB0381E08E0F809374
:10104000BB03F0E0E656FC4F80818093BB0090919B
:10105000BB038091BA03981708F479CF85E8809391
:10106000BC0009C085EC8093BC0010922E0403C024
:1010700010922C04ACDAFF91EF91BF91AF919F9148
:101080008F917F916F915F914F913F912F910F9031
:101090000BBE0F900FBE0F901F9018950F931F93CC
:1010A000CF93DF93EC01062F18E061E08881A3DC89
:1010B000CE014BDB00FF02C060E001C061E089812E
:1010C0009ADCCE0142DB60E0888195DCCE013DDB1D
:1010D0000695115051F761E088818DDC60E08981CF
:1010E0008ADCCE0132DB60E0888185DCCE012DDB3D
:1010F00089812BDC182F811103C061E089817BDCA1
:10110000CE0123DB61E0888176DCCE011EDB81E04D
:10111000111101C080E0DF91CF911F910F910895CF
:10112000CF93DF93EC0161E0898165DCCE010DDBBB
:1011300060E0888160DCCE0108DB60E089815BDCF7
:10114000CE01DF91CF9101CBCF93DF93EC0161E032
:10115000898151DCCE01DF91CF91F7CACF93DF9324
:1011600000D01F92CDB7DEB719821A821B821C8273
:10117000BE016F5F7F4F83D10F900F900F900F9044
:10118000DF91CF910895FC01908190539A3008F03F
:1011900090E0818180532AE0929F800D1124089570
:1011A0001F920F920FB60F9211240BB60F92FF925F
:1011B0000F931F932F933F934F935F936F937F935F
:1011C0008F939F93AF93BF93CF93DF93EF93FF934F
:1011D0008FEF86BD8091FC048823D1F1CEEFD4E05F
:1011E0000EE115E0A991B991109701F1FFB6F894BD
:1011F0008C918823D1F01996ED91FC911A97309734
:10120000A1F011964D915D916D917C911497415093
:1012100051096109710911964D935D936D937C930A
:101220001497452B462B472B29F0FFBE0C171D07A3
:10123000C9F60EC015964D915D916D917C911897F0
:1012400011964D935D936D937C9314971995EDCF03
:10125000FF91EF91DF91CF91BF91AF919F918F91CE
:101260007F916F915F914F913F912F911F910F91BE
:10127000FF900F900BBE0F900FBE0F901F90189510
:101280000F931F93CF93DF93EC0129DC0A811B811D
:101290002C813D81DC01CB01801B910BA20BB30B98
:1012A0000E811F812885398580179107A207B30712
:1012B00050F015DC6A837B838C839D83898188232E
:1012C00011F081E088838881DF91CF911F910F9188
:1012D0000895CF93DF93EC0102DC6A837B838C83D8
:1012E0009D83DF91CF9108958F929F92AF92BF928D
:1012F000CF92DF92EF92FF920F931F93CF93DF93E2
:10130000CDB7DEB72A970FB6F894DEBF0FBECDBFBC
:10131000C82ED62E842FF22E19821A824D839FE07A
:10132000E92EEC8262E067DB1E821F82FA86E98684
:1013300062E08F2D60DBD3DB4B015C0160E08C2D24
:101340002CDB61E08D2D29DBCE01019678D0C7DB47
:10135000DC01CB0188199909AA09BB09813197429F
:10136000A105B10530F48981882371F3E12CF12CBA
:1013700003C0EE24E394F12C61E08C2D0EDB61E0E0
:101380008D2D0BDBACDBDC01CB0188199909AA0997
:10139000BB09F80180839183A283B383A0DB4B0157
:1013A0005C0160E08D2DF9DA61E08C2DF6DACE017A
:1013B000069645D094DBDC01CB0188199909AA096E
:1013C000BB0981319742A105B10520F022E0E20E70
:1013D000F11C03C08E81882351F361E08C2DDDDA8E
:1013E00061E08D2DDADA7BDBDC01CB01881999090C
:1013F000AA09BB09F80180809180A280B380881679
:101400009906AA06BB0610F44C015D01F801808222
:101410009182A282B382C7012A960FB6F894DEBFEA
:101420000FBECDBFDF91CF911F910F91FF90EF9035
:10143000DF90CF90BF90AF909F908F9008950F93C3
:101440001F93CF93DF93EC01088110E08C817DDA4C
:101450000817190711F01A820DC08A818F5F8A83DD
:101460009B81891738F0888191E0892788831A82C7
:1014700081119983DF91CF911F910F910895EF9280
:10148000FF920F931F93CF93DF93EC017B015CDE00
:1014900060E4CE0103DECE0143DECE0155DE60EC1A
:1014A000CE01FCDD870184E0E80EF11CF8016191BA
:1014B0008F01CE01F3DD0E151F05C1F7CE0130DE21
:1014C000CE0142DE6A816F706058CE01E7DDCE0149
:1014D000DF91CF911F910F91FF90EF9021CE30912E
:1014E0005204313208F04BC080912E048111FCCFA0
:1014F0009091510422E020932E0421E020932D04AA
:101500002FEF20932C0410922B0430932A04E1E354
:10151000F4E0AAE0B4E020E0321721F041914D93CD
:101520002F5FFACF1092090420910904990F922B92
:101530009093090490910804913061F4109208048A
:10154000909109049093BB009091BC0093FDF8CF5B
:1015500095EC01C095EE9093BC0090912E049230D2
:10156000E1F390912C049F3F79F080912C0480321C
:1015700041F080912C04803331F084E005C081E09B
:1015800003C082E001C083E0109230041092520444
:1015900010922F04089590912E049111FCCF982F52
:1015A000813208F090E281E080932E0480932D0434
:1015B0002FEF20932C0410922B04290F20932A0440
:1015C0008093090480910904806D809309048091BF
:1015D0000804813061F4109208048091090480931A
:1015E000BB008091BC0083FDF8CF85EC01C085EE87
:1015F0008093BC0080912E048130E1F380912B0414
:10160000891710F490912B04EAE0F4E0A8EEB3E01F
:1016100080E0891721F021912D938F5FFACF1092EE
:10162000E7038093E6030895009761F0FC010190C1
:101630000020E9F73197AF01481B590BBC0183E546
:1016400094E004C080E090E00895EECFCF92DF9266
:10165000EF92FF920F931F93CF93DF936C017A0168
:101660008B01C0E0D0E0CE15DF0581F0D8016D918F
:101670008D01D601ED91FC910190F081E02DC60124
:101680001995892B11F02196EECF7E01C701DF91CC
:10169000CF911F910F91FF90EF90DF90CF90089521
:1016A0002F923F924F925F926F927F928F929F9272
:1016B000AF92BF92CF92DF92EF92FF920F931F9360
:1016C000CF93DF93CDB7DEB7A4970FB6F894DEBF04
:1016D0000FBECDBF4B015C019B01AC010E94C31743
:1016E000882319F085E293E01AC075016401E8943B
:1016F000F7F82FEF3FEF4FE75FE7C701B6010E9412
:10170000C31781110FC02FEF3FEF4FE75FE7C7010E
:10171000B6010E94101618162CF489E293E084DFBB
:101720008C01ADC02FEF3FEF4FE75FE4C501B4017F
:101730000E94BF1718161CF48DE293E0F0CF2FEF34
:101740003FEF4FE75FECC501B4010E94101687FD23
:10175000F3CF20E030E0A901C501B4010E941016CA
:1017600087FF0BC06DE283E594E00E94C6016C0127
:10177000B7FAB094B7F8B09402C0C12CD12C2AE0CB
:1017800037ED43EA5BE3C501B4010E942A174B0120
:101790005C010E9493172B013C010E9414169B01CF
:1017A000AC01C501B4010E9429174B015C0119A2CB
:1017B0007E0181E2E80EF11CEAA2FBA2C301B201A4
:1017C0002AE030E040E050E00E94E71729013A01AA
:1017D000605DF70162937F01232B242B252B71F78A
:1017E000CF0122DF8C016EE283E594E00E94C60106
:1017F000800F911F8C010C0D1D1D83E0F82E9AE0C7
:10180000292E312C412C512CFA94FF20C1F120E0DB
:1018100030E040E251E4C501B4010E9475164B016D
:101820005C010E9493179B0140E050E019A26AA05E
:101830007BA06CA3C32ED42EE52ECA01B901A20150
:1018400091010E94E717605DF30162933F0121154A
:1018500031054105510589F7CF01E6DE080F191F53
:101860006CA17C2D8D2D9E2D0E9414169B01AC0128
:10187000C501B4010E9429174B015C01C5CF81E36A
:1018800093E0D2DE800F911FA4960FB6F894DEBFCE
:101890000FBECDBFDF91CF911F910F91FF90EF90C1
:1018A000DF90CF90BF90AF909F908F907F906F9080
:1018B0005F904F903F902F9008957F928F929F92CC
:1018C000AF92BF92CF92DF92EF92FF920F931F934E
:1018D000CF93DF9300D01F92CDB7DEB76C01CB0161
:1018E00077FF03C0919581959109372F331F3327D7
:1018F000331F009711F0FC0104C0222381F0E0E0C7
:10190000F0E0CE0101967C014E0193E0891A910826
:1019100087018AE0A82EB12C90E4792E1CC0198290
:101920001A821B828FE38C833EC03097E1F09927A7
:10193000DC01AB54BD4F8C91D80113968C93552389
:10194000C1F0CF01B5010E94D317FB01015011096D
:1019500008151905B9F0CF01B5010E94D317582F0A
:101960008111E5CFE2CF2111E2CFD80113961C926D
:1019700002C0309731F7332321F3D80113967C92BC
:1019800030E0DFCF442379F09E012B5F3F4F842F5F
:101990008078F7019081892BD7018D937D01440FC9
:1019A000A217B307A1F7BE016F5F7F4FC60167DDC6
:1019B0000F900F900F900F90DF91CF911F910F918B
:1019C000FF90EF90DF90CF90BF90AF909F908F905F
:1019D0007F900895CF92DF92EF92FF920F931F9323
:1019E000CF93DF9328E030E041E06FEF70E09FE0BD
:1019F000C92ED12CC3E2D0E007ED10E0909128056C
:101A0000E0912905F0912A05592F5095F82EF422DE
:101A100081F0F894F2805F2152835181592B5183D8
:101A2000DE011197F1F75281952B92837894F8019A
:101A30000FC0F894F2805F2152835181592B51835A
:101A4000DB011197F1F75281952B92837894F6017F
:101A50003197F1F7440F2150310981F6F894E09164
:101A60002905F0912A059181809128058095982378
:101A70009183E0912905F0912A059281892382833F
:101A80007894DF91CF911F910F91FF90EF90DF90AD
:101A9000CF90089520912805E0912905F0912A051D
:101AA000F8948181922F90958923818378948DE792
:101AB00043E050E0815021F1DA011197F1F73081D4
:101AC0003223C1F3F8948281892382838181822B1E
:101AD00081837894ABE7B7E01197F1F7F8948181AF
:101AE0009823918383E191E00197F1F78081282386
:101AF00081E009F080E07894E3E6F6E03197F1F7D1
:101B00000895CF93DF93EC018FE28883698384E6A5
:101B100090E09C838B8360E08FE20E94FB0460E096
:101B200089810E94FB0460E088810E94CD0460E00E
:101B30008981DF91CF910C94CD041F920F920FB643
:101B40000F9211240BB60F922F933F934F935F93F5
:101B50006F937F938F939F93AF93BF93EF93FF9375
:101B60008091940590919505A0919605B091970567
:101B7000892B8A2B8B2B59F190919305E09191053C
:101B8000F0919205808189278083809194059091BE
:101B90009505A0919605B0919705181619061A0695
:101BA0001B060CF056C08091940590919505A0916C
:101BB0009605B09197050197A109B1098093940505
:101BC00090939505A0939605B093970542C0809198
:101BD0001002E4E5F2E0E4919FEF90931002E2300E
:101BE000C9F050F4EE2399F0E13081F590916F0047
:101BF0009D7F90936F002AC0E43019F1E0F0E5304A
:101C000029F5909173009D7F909373001FC01092EF
:101C10006E001CC0909170009D7F9093700091E0C9
:101C20009093B0009091B100987F94609093B10030
:101C30001092B3000BC0909171009D7F9093710042
:101C400005C0909172009D7F9093720060E00E94A9
:101C5000CD04FF91EF91BF91AF919F918F917F91B3
:101C60006F915F914F913F912F910F900BBE0F900D
:101C70000FBE0F901F901895CF93DF93CDB7DEB7AF
:101C80002B970FB6F894DEBF0FBECDBF789484B506
:101C9000826084BD84B5816084BD85B5826085BD68
:101CA00085B5816085BD80916E00816080936E00F6
:101CB00010928100809181008260809381008091E8
:101CC0008100816080938100809180008160809399
:101CD00080008091B10084608093B1008091B00059
:101CE00081608093B0008091910082608093910028
:101CF000809191008160809391008091900081603B
:101D0000809390008091A10082608093A1008091D7
:101D1000A10081608093A1008091A00081608093E8
:101D2000A000809121018260809321018091210196
:101D30008160809321018091200181608093200146
:101D400080917A00846080937A0080917A0082602A
:101D500080937A0080917A00816080937A008091EC
:101D60007A00806880937A001092C1000E946F050B
:101D7000E0916304F091640482E08083E0915F0469
:101D8000F09160041082E0916104F091620480E1BE
:101D9000808310926B04E0916704F091680486E000
:101DA0008083E0916504F091660480818061808386
:101DB000E0916504F0916604808188608083E09101
:101DC0006504F0916604808180688083E0916504F9
:101DD000F091660480818F7D808361E08DE00E94B8
:101DE000FB0461E081E20E94FB0461E081E20E9469
:101DF000CD0461E082E20E94FB0461E082E20E9485
:101E0000CD0462E08FE10E94FB0462E080E20E9468
:101E1000FB0461E083E20E94FB0461E083E20E9434
:101E2000CD0461E084E20E94FB0461E084E20E9450
:101E3000CD0462E085E20E94FB0462E086E20E943B
:101E4000FB0461E08CE10E94FB0461E08DE10E94F3
:101E5000FB0461E08DE10E94CD0461E08EE10E940F
:101E6000FB0461E08EE10E94CD041092E703109222
:101E7000E603109230041092520410922E0401E0F6
:101E800000932D041092080461E084E10E94CD04C7
:101E900061E085E10E94CD048091B9008E7F80933E
:101EA000B9008091B9008D7F8093B90088E4809358
:101EB000B80085E48093BC0089E193E090933703F8
:101EC000809336038AE193E0909335038093340343
:101ED00000932F04B8E6FB2EF092510410923004C8
:101EE0001092520460E080EF94E00E947303F7DAEE
:101EF00081E090E050DB80EF94E00E942B0387FFAD
:101F000084C08EEC92E03FD9182F89EC92E03BD947
:101F1000D82E81ED92E037D9C82E84ED92E033D9E6
:101F2000B82E87ED92E02FD9A82E00932F04F092BF
:101F30005104109230041092520460E080EF94E05B
:101F40000E947303AAE0EA2E8A2D6E2D0E94C71705
:101F5000682F660F860F880F682F6A0D80EF94E058
:101F60000E9473038B2D6E2D0E94C717682F660F7A
:101F7000860F880F682F6B0D80EF94E00E9473032B
:101F80008C2D6E2D0E94C717682F660F860F880F45
:101F9000682F6C0D80EF94E00E94730360E080EF87
:101FA00094E00E9473038D2D6E2DF1D7682F660F7C
:101FB000860F880F682F6D0D80EF94E00E947303E9
:101FC00061E180EF94E00E947303812F6E2DDFD7D3
:101FD000682F660F680F660F610F80EF94E00E9414
:101FE00073037DDA00932F04F092510410923004B1
:101FF0001092520467E080EF94E00E94730360E166
:1020000080EF94E00E9473036ADA62E083E00E944A
:10201000FB0485EB93E0909303028093020280918E
:102020006A00837F886080936A00ED9A84E595E07A
:1020300095D88FE495E092D88AE495E08FD885E42E
:1020400095E08CD880E495E089D88BE395E086D83C
:1020500086E395E083D88AE0809356058093510506
:1020600080934C05809347058093420580933D05FE
:102070008093380501E513E020E24FE162E281E25E
:1020800033D905E513E026E245E264E283E22CD988
:1020900077E0A72EB12CEFEC2E2E312CFAE0CF2ECC
:1020A000D12CE12CF12C0E946F0587E795E0E8D850
:1020B0008DE695E0E5D883E695E0E2D881E895E005
:1020C000DFD88823E1F08FE080935605809190055A
:1020D000482F417080FD40E480918E0560918F050E
:1020E00070E094E6899F600D711D112421E084E564
:1020F00095E0E3DB1092810581E895E0EAD887E777
:1021000095E0BED8882309F4AEC00E946F058EE129
:1021100095E0B6D880911F05811109C0BBDC8CEC1D
:1021200059DC84E457DC81E080931F059CC08091DA
:102130001E05882309F497C010921F0510921E05F2
:102140001092770587E795E0C4D869E5462E63E0ED
:10215000562E01E112E03E01EAE06E0E711C9ADC9F
:1021600085E538DC4801085F1F4FF40181914F017C
:1021700031DC80169106C9F78EEB2CDCDE0111965E
:10218000BB87AA8728E030E060E071E090902805E6
:10219000E0912905F0912A05F8944181492941836C
:1021A0004281892C809448214283C5010197F1F72F
:1021B00041818422818243E250E0CA010197F1F714
:1021C00040817894F1013197F1F7942209F0672B5F
:1021D000770F21503109D1F6EA85FB856193FB87A2
:1021E000EA87E615F70571F699E0E0E0915089F08D
:1021F0008D918E27E82FEF70F0E0E85FFE4F24917D
:10220000E82FE295EF70F0E0E85EFE4FE491E22700
:10221000EDCF89858E1721F0F9EFFA8380ED898360
:1022200069817A818D81807611F4687F07C0803260
:1022300011F46C7F03C0803409F46E7F072E000C0C
:10224000880B990BF3D420E030E040E85DE34DD5F6
:10225000F20161937193819391932F01F2E001391F
:102260001F0709F07CCF8DE695E00AD8882309F492
:10227000A3C08AE08093510580934C058093470565
:102280008093420580933D058093380520E030E03F
:1022900048EC52E46091590370915A0380915B03BA
:1022A00090915C0322D53AD620E040E48FE495E09B
:1022B00004DB20E030E048EC52E46091810370914F
:1022C000820380918303909184030FD527D620E069
:1022D00040E48AE495E0F1DA20E030E048EC52E4B2
:1022E0006091650370916603809167039091680324
:1022F000FCD414D620E040E485E495E0DEDA8AEDF3
:1023000092E0A3D9609165037091660380916703A1
:1023100090916803C5D986EE92E097D960916903E0
:1023200070916A0380916B0390916C03B9D982EF2D
:1023300092E08BD960918103709182038091830335
:1023400090918403ADD98AEF92E07FD960918503A3
:10235000709186038091870390918803A1D981E0D1
:1023600093E073D96091590370915A0380915B0394
:1023700090915C0395D98DE093E067D960915D03FE
:1023800070915E0380915F039091600389D989E128
:1023900093E05BD96091890370918A0380918B03EC
:1023A00090918C037DD982E393E04FD910926D0513
:1023B0008DE695E00E94690983E695E00E94400958
:1023C000882309F426C20E946F0580919903811128
:1023D00018C06091650370916603809167039091C6
:1023E00068039CD58B016091850370918603809171
:1023F00087039091880392D5665F7F4F60177107BE
:1024000014F460E001C061E08DE10E94CD046091B0
:1024100065037091660380916703909168037ED590
:10242000673471050CF4D6C1613571050CF4C1C176
:10243000809110028C3121F08F3F09F0B7C104C0A8
:10244000E4E5F2E01491E3C08CE180931002E4E54E
:10245000F2E0E491EF3F09F4A9C1E23009F46CC065
:1024600040F5EE2309F44FC0E13009F0CFC01092DF
:1024700080001092810080918100886080938100AB
:1024800080918100816080938100E8EDF1E0E4912A
:10249000F0E0EE0FFF1FE85DFE4F85919491EEE1B5
:1024A000F2E0E491E0933B0361E08CE10E94FB04E5
:1024B000DBC0E43009F488C008F464C0E53009F0FA
:1024C000A5C0109220011092210180912101886005
:1024D0008093210180912101816080932101E8EDA9
:1024E000F1E0E491F0E0EE0FFF1FE85DFE4F859113
:1024F0009491EEE1F2E0E491E093380361E08CE145
:102500000E94FB04E3C014BC15BC84B5826084BD8A
:1025100085B5816085BDE8EDF1E0E491F0E0EE0F76
:10252000FF1FE85DFE4F85919491EEE1F2E0E491AA
:10253000E0933C0310E06DC01092B0001092B10027
:102540008091B00082608093B0008091B100816082
:102550008093B100E8EDF1E0E491F0E0EE0FFF1FB1
:10256000E85DFE4F8591949190939205809391053B
:10257000EEE1F2E0E491E093930561E08CE10E94EA
:10258000FB0468C01092900010929100809191001D
:102590008860809391008091910081608093910088
:1025A000E8EDF1E0E491F0E0EE0FFF1FE85DFE4F93
:1025B00085919491EEE1F2E0E491E0933A0361E0D9
:1025C0008CE10E94FB0470C01092A0001092A10048
:1025D0008091A10088608093A1008091A10081601A
:1025E0008093A100E8EDF1E0E491F0E0EE0FFF1F31
:1025F000E85DFE4F85919491EEE1F2E0E491E09385
:10260000390361E08CE10E94FB0457C01E2F17FDC7
:10261000CDC061E08CE10E94FB04112319F012305F
:10262000C9F020C085B5887F836085BD8CE787BDF4
:1026300080EC97E2A9E0B0E080934D0390934E03C5
:10264000A0934F03B093500380916E0082608093FB
:102650006E00ACC08091B100887F83608093B10030
:1026600089EF49C01130F1F480918100887F816049
:10267000809381008FE39FE190938900809388008D
:1026800080EC97E2A9E0B0E08093490390934A037D
:10269000A0934B03B0934C0380916F0082608093B2
:1026A0006F0084C0133039F480919100887F81607D
:1026B0008093910034C0143039F48091A100887F58
:1026C00081608093A10043C0153039F480912101CD
:1026D000887F81608093210152C0133001F12CF476
:1026E000123009F063C08FE306C0143081F1153059
:1026F00009F445C05BC08093B30080EC97E2A9E089
:10270000B0E08093940590939505A0939605B093BF
:1027100097058091700082608093700047C08FE3BE
:102720009FE1909399008093980080EC97E2A9E054
:10273000B0E08093450390934603A0934703B09382
:102740004803809171008260809371002FC08FE3F5
:102750009FE19093A9008093A80080EC97E2A9E004
:10276000B0E08093410390934203A0934303B0935E
:1027700044038091720082608093720017C08FE3DF
:102780009FE1909329018093280180EC97E2A9E0D2
:10279000B0E080933D0390933E03A0933F03B0933A
:1027A00040038091730082608093730081E0809386
:1027B000990360E082E20E94CD0461E081E20E9420
:1027C000CD0460E08DE10E94CD0460E08EE10E94C6
:1027D000CD041FC0109299036091690370916A0340
:1027E00080916B0390916C0399D3613271053CF039
:1027F00080E20E94A504892B09F064C004C06C31FA
:1028000071050CF453C01092630583E695E00E94B5
:10281000690989E595E00E944009882309F443C0CD
:102820000E946F0580919903811118C06091810306
:102830007091820380918303909184036FD38B0105
:102840006091890370918A0380918B0390918C032E
:1028500065D3665F7F4F601771078CF460E08EE18F
:102860000E94CD046091890370918A0380918B034B
:1028700090918C0353D36331710564F405C061E01A
:102880008EE10E94CD040FC086E20E94A504892B30
:10289000C9F503C066317105DCF51092590589E56B
:1028A00095E00E9469090E943302FDCB8FE10E94EE
:1028B000A504892B09F4A7CF61E082E20E94CD0430
:1028C00060E005C060E082E20E94CD0461E081E248
:1028D0000E94CD0460915103709152038091530383
:1028E00090915403A701960172D3CA01B9010E94C5
:1028F000370561E082E20E94CD0461E081E20E943E
:10290000CD0481CF60E084E20E94CD0461E00BC081
:1029100085E20E94A504892B09F4BFCF61E084E21F
:102920000E94CD0460E083E20E94CD0460915503D3
:10293000709156038091570390915803A701960117
:1029400046D3CA01B9010E94370561E084E20E94C2
:10295000CD0461E083E20E94CD049FCFCF92DF924D
:10296000EF92FF92CF93109256041092550488EE86
:1029700093E0A0E0B0E08093570490935804A093B4
:102980005904B0935A0425E932E03093540420935B
:10299000530425EC30E03093600420935F0424EC72
:1029A00030E0309362042093610420EC30E03093F7
:1029B00064042093630421EC30E030936604209398
:1029C000650422EC30E0309368042093670426EC21
:1029D00030E030936A042093690410926C041092E2
:1029E0006D0410926E0410926F041092F304109212
:1029F000F2048093F4049093F504A093F604B0934A
:102A0000F70487EA92E09093F1048093F004EEEFEC
:102A1000F4E01192119285E0EE31F807D1F71092AF
:102A2000FC041092FD0460E082E00E94FB04E4E0FC
:102A3000F2E0E491E0932805EEEBF1E0E491F0E0C0
:102A4000EE0FFF1FEE55FE4F8591949190932A054E
:102A500080932905109233051092350510923405A4
:102A6000E3E3F5E08BE295E012928E179F07E1F722
:102A700010921E0510921F0580E991E0A0E0B0E0E1
:102A80008093240590932505A0932605B0932705F0
:102A90000E946F05609320057093210580932205A5
:102AA0009093230563E384E595E02BD861E38FE4FD
:102AB00095E027D862E38AE495E023D860E385E4D3
:102AC00095E01FD860E380E495E01BD860E38BE3DA
:102AD00095E017D860E386E395E013D8109290054F
:102AE00010928F0510928E0510928B0581E0E82FD1
:102AF000F0E0E95BFD4FE491823009F4EF5F91E093
:102B0000980FE11102C0892FF2CF80938C05C1E0AC
:102B1000C0938D0510928105C09382058AEF90E0E5
:102B2000A0E0B0E08093870590938805A093890585
:102B3000B0938A050E946F056093830570938405A6
:102B4000809385059093860510927705C09378054C
:102B500088E9C82E8AE3D82EE12CF12CC0927D059D
:102B6000D0927E05E0927F05F09280050E946F056D
:102B70006093790570937A0580937B0590937C052B
:102B800010926D05C0936E05C0927305D0927405C6
:102B9000E0927505F09276050E946F0560936F05CF
:102BA0007093700580937105909372051092630580
:102BB000C093640580E395E7A0E0B0E080936905E9
:102BC00090936A05A0936B05B0936C050E946F0506
:102BD000609365057093660580936705909368051B
:102BE00010925905C0935A0580E69AEEA0E0B0E035
:102BF00080935F0590936005A0936105B093620593
:102C00000E946F0560935B0570935C0580935D0582
:102C100090935E05CF91FF90EF90DF90CF90089555
:102C200040D008F481E00895E89409C097FB3EF491
:102C300090958095709561957F4F8F4F9F4F992309
:102C4000A9F0F92F96E9BB279395F6958795779587
:102C50006795B795F111F8CFFAF4BB0F11F460FF47
:102C60001BC06F5F7F4F8F4F9F4F16C0882311F09F
:102C700096E911C0772321F09EE8872F762F05C0B3
:102C8000662371F096E8862F70E060E02AF09A954E
:102C9000660F771F881FDAF7880F9695879597F943
:102CA0000895990F0008550FAA0BE0E8FEEF1616DD
:102CB0001706E807F907C0F012161306E407F50730
:102CC00098F0621B730B840B950B39F40A2661F0A4
:102CD000232B242B252B21F408950A2609F4A14047
:102CE000A6958FEF811D811D08950BD078C069D006
:102CF00028F06ED018F0952309F05AC05FC0112457
:102D0000A2C07ED0A0F3959FD1F3950F50E0551F40
:102D1000629FF001729FBB27F00DB11D639FAA2730
:102D2000F00DB11DAA1F649F6627B00DA11D661F7F
:102D3000829F2227B00DA11D621F739FB00DA11DA0
:102D4000621F839FA00D611D221F749F3327A00D5A
:102D5000611D231F849F600D211D822F762F6A2FF6
:102D600011249F5750408AF0E1F088234AF0EE0F7B
:102D7000FF1FBB1F661F771F881F91505040A9F788
:102D80009E3F510570F014C05EC05F3FECF3983E6B
:102D9000DCF3869577956795B795F795E7959F5FEF
:102DA000C1F7FE2B880F911D9695879597F9089589
:102DB00097F99F6780E870E060E008959FEF80ECEE
:102DC000089500240A941616170618060906089591
:102DD00000240A9412161306140605060895092EF7
:102DE0000394000C11F4882352F0BB0F40F4BF2B66
:102DF00011F460FF04C06F5F7F4F8F4F9F4F0895A6
:102E000057FD9058440F551F59F05F3F71F047959B
:102E1000880F97FB991F61F09F3F79F08795089580
:102E2000121613061406551FF2CF4695F1DF08C09F
:102E3000161617061806991FF1CF869571056105BC
:102E400008940895E894BB2766277727CB0197F964
:102E500008955058BB27AA270ED0C1CFB2DF30F05B
:102E6000B7DF20F031F49F3F11F41EF4A7CF0EF42A
:102E7000E095E7FB9DCFE92FC3DF80F3BA17620728
:102E800073078407950718F071F49EF5DBCF0EF4F5
:102E9000E0950B2EBA2FA02D0B01B90190010C016A
:102EA000CA01A0011124FF27591B99F0593F50F482
:102EB000503E68F11A16F040A22F232F342F4427DA
:102EC000585FF3CF469537952795A795F0405395D2
:102ED000C9F77EF41F16BA0B620B730B840BBAF0A2
:102EE0009150A1F0FF0FBB1F661F771F881FC2F70D
:102EF0000EC0BA0F621F731F841F48F48795779521
:102F00006795B795F7959E3F08F0B3CF9395880FD7
:102F100008F09927EE0F97958795089504D0689447
:102F2000B11191CF089574DF88F09F5790F0B92FB9
:102F30009927B751A0F0D1F0660F771F881F991F0E
:102F40001AF0BA95C9F712C0B13081F07BDFB1E059
:102F5000089578CF672F782F8827B85F39F0B93F69
:102F6000CCF3869577956795B395D9F73EF4909510
:102F70008095709561957F4F8F4F9F4F089591DE9B
:102F800008F48FEF08958DDE880B990B0895991B37
:102F900079E004C0991F961708F0961B881F7A9550
:102FA000C9F780950895AA1BBB1B51E107C0AA1F52
:102FB000BB1FA617B70710F0A61BB70B881F991FDA
:102FC0005A95A9F780959095BC01CD010895A1E28D
:102FD0001A2EAA1BBB1BFD010DC0AA1FBB1FEE1F93
:102FE000FF1FA217B307E407F50720F0A21BB30BDE
:102FF000E40BF50B661F771F881F991F1A9469F75A
:1030000060957095809590959B01AC01BD01CF01B5
:103010000895EE0FFF1F881F8BBF0790F691E02DDC
:0E302000199481E090E0F89400C0F894FFCF7E
:10302E00E602E602E602E602E602E602E602E60252
:10303E00FF28180740040000CB284DF7BF040000FE
:10304E0043280000000000000028200F400400006C
:10305E00B92807BB3F040000E8280000000000006C
:10306E000028000000000000002800000000000002
:10307E0000280000000000000028000000000000F2
:10308E000028FF7561681801AC28FFF6DD6718018E
:10309E00F528FF0460681801832800000000000076
:1030AE0000280000000000000028000000000000C2
:1030BE000000000000C601260B5E0112028F016D9A
:1030CE000181010000000073034703A2031B033FAD
:1030DE00032B031C033F065B4F666D7D077F6F77E7
:1030EE007C395E79714E6F76202033203230313943
:1030FE000031313A35323A303000506F64616368D6
:10310E00612054544B004F627261746B61205454B1
:10311E004B0056657268205441004E697A20544126
:10312E0000506F646163686120535953004F62729F
:10313E0061746B612053595300506F6D65736368F2
:10314E00656E6965006E616E00696E66006F76660B
:04315E00000D0A0056
:020000023000CC
:10E000000D9489F10D94B2F10D94B2F10D94B2F129
:10E010000D94B2F10D94B2F10D94B2F10D94B2F1F0
:10E020000D94B2F10D94B2F10D94B2F10D94B2F1E0
:10E030000D94B2F10D94B2F10D94B2F10D94B2F1D0
:10E040000D94B2F10D94B2F10D94B2F10D94B2F1C0
:10E050000D94B2F10D94B2F10D94B2F10D94B2F1B0
:10E060000D94B2F10D94B2F10D94B2F10D94B2F1A0
:10E070000D94B2F10D94B2F10D94B2F10D94B2F190
:10E080000D94B2F10D94B2F10D94B2F10D94B2F180
:10E090000D94B2F10D94B2F10D94B2F10D94B2F170
:10E0A0000D94B2F10D94B2F10D94B2F10D94B2F160
:10E0B0000D94B2F10D94B2F10D94B2F10D94B2F150
:10E0C0000D94B2F10D94B2F10D94B2F10D94B2F140
:10E0D0000D94B2F10D94B2F10D94B2F10D94B2F130
:10E0E0000D94B2F141546D656761323536300041AF
:10E0F000726475696E6F206578706C6F72657220DE
:10E1000073746B3530305632206279204D4C530099
:10E11000426F6F746C6F616465723E004875683F52
:10E1200000436F6D70696C6564206F6E203D200048
:10E130004350552054797065202020203D20005FF9
:10E140005F4156525F415243485F5F3D2000415658
:10E1500052204C696243205665723D20004743437C
:10E160002056657273696F6E203D20004350552024
:10E1700049442020202020203D20004C6F7720663D
:10E18000757365202020203D20004869676820665F
:10E190007573652020203D200045787420667573D6
:10E1A00065202020203D20004C6F636B2066757336
:10E1B000652020203D20004D617220203720323024
:10E1C000313300312E362E3800342E332E350056A2
:10E1D00023202020414444522020206F7020636F70
:10E1E00064652020202020696E73747275637469E1
:10E1F0006F6E2061646472202020496E74657272B3
:10E20000757074006E6F20766563746F7200726A49
:10E210006D702020006A6D70200057686174207056
:10E220006F72743A00506F7274206E6F7420737541
:10E2300070706F72746564004D7573742062652030
:10E2400061206C6574746572002000577269747483
:10E25000696E672045450052656164696E672045B7
:10E26000450045452065727220636E743D00504F35
:10E27000525400303D5A65726F2061646472003FF1
:10E280003D43505520737461747300403D454550C3
:10E29000524F4D207465737400423D426C696E6B41
:10E2A000204C454400453D44756D70204545505215
:10E2B0004F4D00463D44756D7020464C415348001B
:10E2C000483D48656C70004C3D4C69737420492F83
:10E2D0004F20506F72747300513D51756974005234
:10E2E0003D44756D702052414D00563D73686F7707
:10E2F00020696E7465727275707420566563746FF0
:10E30000727300593D506F727420626C696E6B00BD
:10E310002A0011241FBECFEFD1E2DEBFCDBF01E046
:10E320000CBF12E0A0E0B2E0EEE1FDEF03E00BBFB6
:10E3300002C007900D92A030B107D9F712E0A0E01B
:10E34000B2E001C01D92AE30B107E1F70F9460F367
:10E350000D948DFE01E20EBF0FEF0DBF11241FBE05
:10E360000D9460F30D9400F020E030E040ED57E0B4
:10E3700005C0FA013197F1F72F5F3F4F2817390792
:10E38000C0F308959C01260F311DC901A0E0B0E043
:10E390002F5F3F4FABBFFC018791882361F08093D3
:10E3A000C6008091C00086FFFCCF8091C0008064D1
:10E3B0008093C000EACF08958DE08093C6008091DD
:10E3C000C00086FFFCCF8091C00080648093C000B5
:10E3D0008AE08093C6008091C00086FFFCCF8091C8
:10E3E000C00080648093C00008950F94C2F10F9420
:10E3F000DCF10895FC019081992359F09093C600B7
:10E400008091C00086FFFCCF8091C0008064809323
:10E41000C0003196992379F70895282F982F929567
:10E420009F70892F805D8A3308F0895F8093C600D2
:10E430008091C00086FFFCCF8091C00080648093F3
:10E44000C000822F8F70982F905D9A3308F0995FEB
:10E450009093C6008091C00086FFFCCF8091C000E1
:10E4600080648093C00008959C01FB01853691056E
:10E470001CF46330710594F0C90164E670E00F94F8
:10E480002EFE605D7F4F6093C6008091C00086FFC6
:10E49000FCCF8091C00080648093C0002B30310598
:10E4A00014F43297B4F0C90164E670E00F942EFEC4
:10E4B0006AE070E00F942EFE605D7F4F6093C600AF
:10E4C0008091C00086FFFCCF8091C0008064809363
:10E4D000C000C9016AE070E00F942EFEC0968093E0
:10E4E000C6008091C00086FFFCCF8091C000806490
:10E4F0008093C00008951F93182F8EE692EE60E07F
:10E500000F94C2F11093C6008091C00086FFFCCF2B
:10E510008091C00080648093C0000F94DCF11F9153
:10E5200008952F923F924F925F926F927F928F92B7
:10E530009F92AF92BF92CF92DF92EF92FF920F9392
:10E540001F93DF93CF93CDB7DEB762970FB6F894E2
:10E55000DEBF0FBECDBF382E622ECA01DB015C01CB
:10E560006D01772420E2222E2E010894411C511CBB
:10E570008BC081E0A81680E0B80681E0C80680E084
:10E58000D80628F0C601AA27BB270F940DF2BB2797
:10E59000AD2D9C2D8B2D0F940DF28A2D0F940DF225
:10E5A0002092C6008091C00086FFFCCF8091C00001
:10E5B00080648093C0009DE29093C6008091C0006B
:10E5C00086FFFCCF8091C00080648093C0002092C1
:10E5D000C6008091C00086FFFCCF8091C00080649F
:10E5E0008093C00019828601750188249924A1E0D6
:10E5F0003A1651F03A1620F0B2E03B1661F409C029
:10E600000BBFF701779007C0C7010F9477FE782EF4
:10E6100002C0F7017080872D0F940DF22092C60082
:10E620008091C00086FFFCCF8091C0008064809301
:10E63000C000872D8052F401EF70F0708F3520F408
:10E64000E40DF51D708204C0E40DF51D8EE280839B
:10E650000894E11CF11C011D111D0894811C911CE2
:10E6600090E18916910409F0C2CF80E190E0A0E02A
:10E67000B0E0A80EB91ECA1EDB1E198AC2010F9493
:10E68000FAF10F94DCF16A94662009F072CF629679
:10E690000FB6F894DEBF0FBECDBFCF91DF911F91B3
:10E6A0000F91FF90EF90DF90CF90BF90AF909F9031
:10E6B0008F907F906F905F904F903F902F90089534
:10E6C0002F923F924F925F926F927F928F929F9282
:10E6D000AF92BF92CF92DF92EF92FF920F931F9370
:10E6E000DF93CF93CDB7DEB7CD53D1400FB6F894BB
:10E6F000DEBF0FBECDBF01E20EBF0FEF0DBF94B75F
:10E70000F894A89514BE80916000886180936000A1
:10E7100010926000789493FF05C0E0910002F091A0
:10E7200001021995279A2F9A8091C00082608093E8
:10E73000C00080E18093C40088E18093C1000000A4
:10E74000EE24FF24870144E0A42EB12CCC24DD2448
:10E7500024C0C5010197F1F70894E11CF11C011DCB
:10E76000111D21E2E2162EE4F20620E0020720E06D
:10E77000120718F031E0C32ED12CC801B70127ECE5
:10E780003BE140E050E00F9441FE611571058105C9
:10E79000910519F485B1805885B98091C00087FD35
:10E7A00003C0C114D104A9F2A6014F5F5F4FC25E3E
:10E7B000DE4F59834883CE51D140C25EDE4F8881FF
:10E7C0009981CE51D140019711F00D9410FEC05D9A
:10E7D000DE4F19821882C053D14060E0C15DDE4F28
:10E7E0001882CF52D14088249924C35DDE4F19820C
:10E7F0001882CD52D140C05EDE4F188219821A8233
:10E800001B82C052D140CE5CDE4F188219821A8220
:10E810001B82C253D140EE24FF2487010BBFF701B6
:10E8200007911691C45CDE4F19830883CC53D14005
:10E830000D940BFEC25EDE4F28813981CE51D1404E
:10E840002130310509F52091C600C25EDE4F1982E4
:10E850001882CE51D14022C02F5F3F4F4F4F5F4FA4
:10E86000213082E138078AE7480780E0580780F0C6
:10E87000C45CDE4FE881F981CC53D140EF5FFF4F9C
:10E8800019F0EE27FF27099420E030E040E050E047
:10E890008091C00087FFE0CF2091C600C35DDE4FAE
:10E8A00048815981CD52D1404F5F5F4FC35DDE4FEC
:10E8B00059834883CD52D140213209F063C64A3092
:10E8C000510508F05FC60894811C911C53E0851621
:10E8D000910409F059C600E010E018C081E280936D
:10E8E000C6008091C00086FFFCCF8091C00080648C
:10E8F0008093C0002F5F3F4F2931310579F70F9486
:10E90000DCF10F5F1F4F0530110519F020E030E0FA
:10E91000E5CF10920A0210920B0210920C02109294
:10E920000D02109206021092070210920802109235
:10E930000902109202021092030210920402109235
:10E9400005028FEE90EE60E00F94F5F180E191EE1C
:10E9500060E00F94C2F18091C00087FFFCCF9091DE
:10E96000C600903608F09F759032B8F09093C600BC
:10E970008091C00086FFFCCF8091C00080648093AE
:10E98000C000A0E2A093C6008091C00086FFFCCF2B
:10E990008091C00080648093C000983409F4D7C18E
:10E9A0009934B8F4923409F459C1933458F490333B
:10E9B00019F1903308F4E3C59F33A1F1903409F0C5
:10E9C000DEC5BDC0953409F470C1963409F0D7C5D1
:10E9D00098C1923509F42BC2933538F49C3409F46C
:10E9E000F5C1913509F0CBC518C2963509F445C279
:10E9F000993509F0C4C567C483E792EE62E00F94CD
:10EA0000F5F110920602109207021092080210927D
:10EA1000090210920A0210920B0210920C0210923C
:10EA20000D0213C18FE792EE62E00F94F5F18FEEC5
:10EA300090EE60E00F94F5F181E291EE60E00F94CA
:10EA4000C2F187EB91EE60E00F94F5F180E391EE77
:10EA500060E00F94C2F184EE90EE60E00F94F5F167
:10EA60008FE391EE60E00F94C2F186E090E061E008
:10EA700070E00F9434F20F94DCF18DE591EE60E0DC
:10EA80000F94C2F189EC91EE60E00F94F5F18EE401
:10EA900091EE60E00F94C2F183EC91EE60E00F9490
:10EAA000F5F18CE691EE60E00F94C2F18EE10F94E7
:10EAB0000DF288E90F940DF281E00F940DF20F949E
:10EAC000DCF18BE791EE60E00F94C2F119E0E0E039
:10EAD000F0E010935700E4918E2F0F940DF20F94F5
:10EAE000DCF18AE891EE60E00F94C2F1E3E0F0E03F
:10EAF00010935700E4918E2F0F940DF20F94DCF1D8
:10EB000089E991EE60E00F94C2F1E2E0F0E0109349
:10EB10005700E4918E2F0F940DF20F94DCF188EAE8
:10EB200091EE60E00F94C2F1E1E0F0E01093570045
:10EB30001491812F0F940DF20F94DCF107CF8BE825
:10EB400092EE62E00F94F5F18BE492EE60E00F94A8
:10EB5000F5F10F94DCF100E010E019C0C8016F2D51
:10EB60000F947FFEFF2031F489E492EE60E00F9471
:10EB7000C2F10BC0F092C6008091C00086FFFCCFAE
:10EB80008091C00080648093C0000F5F1F4FC80158
:10EB900081519F41A0E0B0E0ABBFFC01F790BAE229
:10EBA000FB1621F0E2E000301E07C1F60F94DCF105
:10EBB0000F94DCF187E592EE60E00F94F5F10F948D
:10EBC000DCF1CC24DD2400E010E01EC0C8010F946D
:10EBD00077FEF82E882331F489E492EE60E00F94FA
:10EBE000C2F10BC08093C6008091C00086FFFCCFAD
:10EBF0008091C00080648093C000FE1419F00894D6
:10EC0000C11CD11C0F5F1F4FC80181519F41A0E063
:10EC1000B0E0ABBFFC01E790FAE2EF1621F022E092
:10EC20000030120799F60F94DCF10F94DCF182E6C4
:10EC300092EE60E00F94C2F1C60161E070E00F94C3
:10EC400034F20F94DCF10F94DCF110920202109276
:10EC50000302109204021092050278CE89E992EE26
:10EC600062E00F94F5F1279A2F9A16C02F9880E052
:10EC700090E0E0EDF7E03197F1F7019684369105E9
:10EC8000C1F72F9A80E090E0E0EDF7E03197F1F7DF
:10EC9000019684369105C1F78091C00087FFE6CFC9
:10ECA0008091C00087FFFCCF64C485EA92EE62E0E9
:10ECB0000F94F5F140910202509103026091040219
:10ECC0007091050281E020E10F9491F2809102029F
:10ECD00090910302A0910402B091050280509F4FD1
:10ECE000AF4FBF4F8093020290930302A0930402A0
:10ECF000B093050280509041A040B04008F426CE69
:10ED0000A4CF83EB92EE62E00F94F5F140910602FE
:10ED100050910702609108027091090280E020E1A1
:10ED20000F9491F28091060290910702A09108023F
:10ED3000B091090280509F4FAF4FBF4F80930602A2
:10ED400090930702A0930802B0930902FFCD80ECD4
:10ED500092EE62E00F94F5F183E792EE60E00F949B
:10ED6000F5F18FE792EE60E00F94F5F18BE892EE0B
:10ED700060E00F94F5F189E992EE60E00F94F5F10F
:10ED800085EA92EE60E00F94F5F183EB92EE60E09D
:10ED90000F94F5F180EC92EE60E00F94F5F187ECC2
:10EDA00092EE60E00F94F5F188ED92EE60E00F9442
:10EDB000F5F18FED92EE60E00F94F5F18AEE92EEB0
:10EDC00060E00F94F5F183E093EEBDCD87EC92EE19
:10EDD00062E00F94F5F181E40F947BF282E40F94EA
:10EDE0007BF283E40F947BF284E40F947BF285E45E
:10EDF0000F947BF286E40F947BF287E40F947BF20E
:10EE000088E40F947BF28AE40F947BF28BE40F94F6
:10EE10007BF28CE40F947BF299CD88ED92EE62E068
:10EE20000F94F5F1772473948824992409C48FED05
:10EE300092EE62E00F94F5F140910A0250910B02BC
:10EE400060910C0270910D0282E020E10F9491F22A
:10EE500080910A0290910B02A0910C02B0910D02D8
:10EE600080509F4FAF4FBF4F80930A0290930B0289
:10EE7000A0930C02B0930D0269CD8AEE92EE62E08F
:10EE80000F94F5F184EE90EE60E00F94F5F18FECC5
:10EE900091EE60E00F94F5F1662477244301CC5D98
:10EEA000DE4F19821882C452D140D401C301B695F5
:10EEB000A79597958795CA5DDE4F88839983AA8326
:10EEC000BB83C652D140CC5DDE4FA881B981C4520C
:10EED000D1401196CC5DDE4FB983A883C452D14096
:10EEE000CD0162E070E00F9434F2B0E2B093C6005E
:10EEF0008091C00086FFFCCF8091C0008064809329
:10EF0000C000EDE2E093C6008091C00086FFFCCF18
:10EF10008091C00080648093C000F0E2F093C6004E
:10EF20008091C00086FFFCCF8091C00080648093F8
:10EF3000C000CA5DDE4FE880F9800A811B81C6529D
:10EF4000D140BB27A12F902F8F2D0F940DF2CA5DBA
:10EF5000DE4F8881C652D1400F940DF2B0E2FB2EF5
:10EF6000F092C6008091C00086FFFCCF8091C00067
:10EF700080648093C0000DE30093C6008091C000C0
:10EF800086FFFCCF8091C00080648093C00010E2B7
:10EF90001093C6008091C00086FFFCCF8091C00016
:10EFA00080648093C0008BBEF3012791C65DDE4F65
:10EFB0002883CA52D140A22EBB24CC24DD2408943D
:10EFC000611C711C811C911C8BBEF3018791282E42
:10EFD0003324442455240894611C711C811C911C09
:10EFE0008BBEF3013791C55DDE4F3883CB52D140E4
:10EFF0000894611C711C811C911C8BBEF30147910C
:10F00000C45DDE4F4883CC52D140ADEFEA2EAFEF66
:10F01000FA2EAFEF0A2FAFEF1A2F6E0C7F1C801E57
:10F02000911E142D032DF22CEE24EA0CFB1C0C1D5A
:10F030001D1D0F940DF220E22093C6008091C000A8
:10F0400086FFFCCF8091C00080648093C000C65DC5
:10F05000DE4F8881CA52D1400F940DF230E23093D6
:10F06000C6008091C00086FFFCCF8091C000806404
:10F070008093C000C45DDE4F8881CC52D1400F9494
:10F080000DF240E24093C6008091C00086FFFCCFA5
:10F090008091C00080648093C000C55DDE4F888190
:10F0A000CB52D1400F940DF250E25093C6008091A4
:10F0B000C00086FFFCCF8091C00080648093C000B8
:10F0C0008FEFE8168FEFF80680E0080780E018075A
:10F0D00031F484E092EE60E00F94C2F1DFC0D80119
:10F0E000C7018070907CA070B0708050904CA040A0
:10F0F000B040D1F52FEF3FE340E050E0E222F322B1
:10F1000004231523CA5DDE4FA880B980CA80DB8046
:10F11000C652D140AE0CBF1CC01ED11EAA0CBB1CD7
:10F12000CC1CDD1C8EE092EE60E00F94C2F1BB2798
:10F13000A12F902F8F2D0F940DF28E2D0F940DF285
:10F1400030E23093C6008091C00086FFFCCF8091F2
:10F15000C00080648093C0004EE34093C60080915D
:10F16000C00086FFFCCF87C08EE09EEFA0E0B0E03D
:10F17000E822F9220A231B239CE0E91694E9F90608
:10F1800090E0090790E0190709F088C0C45DDE4FE0
:10F19000A881CC52D140EA2EFF2400E010E0102FCD
:10F1A0000F2DFE2CEE24C55DDE4FB881CB52D14031
:10F1B000EB0EF11C011D111DD601C501817090706F
:10F1C000A070B070DC0199278827E80EF91E0A1F8D
:10F1D0001B1F20EF30E040E050E0A222B322C42207
:10F1E000D52241E1AA0CBB1CCC1CDD1C4A95D1F7F1
:10F1F000EA0CFB1C0C1D1D1D81E090E0A0E0B0E0BE
:10F20000282239224A225B2235E1220C331C441C7D
:10F21000551C3A95D1F7E20CF31C041D151D57013E
:10F220006801AA0CBB1CCC1CDD1C85E192EE60E0E1
:10F230000F94C2F1C801AA27BB270F940DF2BB2778
:10F24000A12F902F8F2D0F940DF28E2D0F940DF274
:10F2500090E29093C6008091C00086FFFCCF809121
:10F26000C00080648093C000AEE3A093C60080918C
:10F27000C00086FFFCCF8091C00080648093C000F6
:10F28000C601AA27BB270F940DF2BB27AD2D9C2DDD
:10F290008B2D0F940DF28A2D0F940DF20F94DCF14B
:10F2A000CC5DDE4FE881F981C452D140F99709F471
:10F2B0004DCBF4E0EF2EF12C012D112D6E0C7F1CA7
:10F2C000801E911EF2CD83E093EE62E00F94F5F183
:10F2D0008AE192EE60E00F94C2F18091C00087FF56
:10F2E000FCCF1091C6001F751093C6008091C0001E
:10F2F00086FFFCCF8091C00080648093C0000F9493
:10F30000DCF1812F81548A3108F036C1163409F4BA
:10F3100095C0173490F4133409F44EC0143430F40B
:10F320001134F1F0123409F01DC130C0143409F465
:10F3300059C0153409F016C16BC01A3409F4C4C0A1
:10F340001B3438F4173409F48FC0183409F00AC19B
:10F35000A1C01B3409F4D2C01C3409F003C1E8C0B9
:10F360008FEF81B90DC082B1809582B980E090E0C5
:10F37000E0EDF7E03197F1F70196883C9105C1F790
:10F380008091C00087FFEFCF12B8EFC08FEF84B934
:10F390000DC085B1809585B980E090E0E0EDF7E0A3
:10F3A0003197F1F70196883C9105C1F78091C00033
:10F3B00087FFEFCF15B8D9C08FEF87B90DC088B1DF
:10F3C000809588B980E090E0E0EDF7E03197F1F7C3
:10F3D0000196883C9105C1F78091C00087FFEFCF6F
:10F3E00018B8C3C08FEF8AB90DC08BB180958BB9A7
:10F3F00080E090E0E0EDF7E03197F1F70196883C8E
:10F400009105C1F78091C00087FFEFCF1BB8ADC059
:10F410008FEF8DB90DC08EB180958EB980E090E0F0
:10F42000E0EDF7E03197F1F70196883C9105C1F7DF
:10F430008091C00087FFEFCF1EB897C08FEF80BBD1
:10F440000DC081B3809581BB80E090E0E0EDF7E0F6
:10F450003197F1F70196883C9105C1F78091C00082
:10F4600087FFEFCF11BA81C08FEF83BB0DC084B38C
:10F47000809584BB80E090E0E0EDF7E03197F1F714
:10F480000196883C9105C1F78091C00087FFEFCFBE
:10F4900014BA6BC08FEF809301010FC080910201FD
:10F4A00080958093020180E090E0E0EDF7E03197F5
:10F4B000F1F70196883C9105C1F78091C00087FF64
:10F4C000EDCF1092020151C08FEF809304010FC065
:10F4D0008091050180958093050180E090E0E0ED4A
:10F4E000F7E03197F1F70196883C9105C1F78091DB
:10F4F000C00087FFEDCF1092050137C08FEF8093DA
:10F5000007010FC08091080180958093080180E079
:10F5100090E0E0EDF7E03197F1F70196883C910536
:10F52000C1F78091C00087FFEDCF109208011DC088
:10F530008FEF80930A010FC080910B01809580931B
:10F540000B0180E090E0E0EDF7E03197F1F70196F4
:10F55000883C9105C1F78091C00087FFEDCF1092E4
:10F560000B0103C085E292EEEEC98091C00087FFD7
:10F57000FCCF8091C600EAC988E392EEE4C98CE131
:10F5800091EEE1C988249924933011F1943028F444
:10F59000913089F09230B8F408C0953061F195301F
:10F5A000F0F0963009F048C043C02B3109F042C951
:10F5B00091E06BE13FC96227C15DDE4F2883CF52E6
:10F5C000D14092E037C9B22FA0E0622793E032C960
:10F5D000822F90E0A82BB92B622794E02BC92E3004
:10F5E00009F039C3622795E0C05DDE4F19821882A9
:10F5F000C053D1401FC9E1E0F0E0EC0FFD1FC05D3A
:10F60000DE4F08811981C053D140E00FF11F2083E4
:10F610000F5F1F4FC05DDE4F19830883C053D14079
:10F6200062270A171B0709F005C9D80196E002C92D
:10F63000261709F010C303C0973009F0FBC87724E0
:10F640009981933109F412C19431C8F4963009F4C8
:10F65000D8C0973050F4923009F406C1933009F4C1
:10F660006DC0913009F059C253C0913109F477C08F
:10F67000923108F0BBC0903109F04FC2F5C098310B
:10F6800009F487C0993150F4953109F4EFC09531F0
:10F6900008F4C6C1963109F040C2C2C19A3109F4DA
:10F6A0006CC09A3108F491C09B3109F45BC09D3164
:10F6B00009F033C29D81903359F48F81882311F46E
:10F6C0009EE11CC0813011F091E018C098E916C08D
:10F6D000892F807591F0903539F4E0E0F0E089E011
:10F6E0008093570094910AC0983539F4E3E0F0E034
:10F6F00089E080935700949101C090E01A821B82A8
:10F700008D818C831D829E831F8227E030E009C299
:10F710001A8288E08B8381E48C8386E58D8382E581
:10F720008E8389E48F8383E5888780E589878FE5E9
:10F730008A8782E38B872BE030E0F3C18A818139AD
:10F7400041F0823941F0803911F48FE005C080E04A
:10F7500003C082E001C08AE01A828B8344C0772410
:10F76000739482C08D81882311F48EE12CC0813086
:10F7700011F081E028C088E926C01A82E1E0F0E0BB
:10F7800089E08093570084918B831C8224E030E0D1
:10F79000C8C18B81803589F48C81883039F4E2E0EE
:10F7A000F0E089E08093570084910DC0E0E0F0E044
:10F7B00089E080935700849106C0E3E0F0E089E09F
:10F7C0008093570084911A82DFCF8D81836C99E0FA
:10F7D000E1E0F0E0082E90935700E89507B600FCB2
:10F7E000FDCF1A821B8223E030E09BC180EC8A832C
:10F7F000CE5CDE4F188219821A821B82C253D1401E
:10F800008EC18A8190E0A0E0B0E0582F44273327D2
:10F8100022278B8190E0A0E0B0E0DC0199278827C7
:10F82000282B392B4A2B5B2B8D8190E0A0E0B0E098
:10F83000282B392B4A2B5B2B8C8190E0A0E0B0E089
:10F84000BA2FA92F982F8827282B392B4A2B5B2BCF
:10F85000220F331F441F551FC05EDE4F288339839C
:10F860004A835B83C052D1401A8259C13A81C95C34
:10F87000DE4F3883C753D140CA5CDE4F1882C6536F
:10F88000D1408B81C82EDD24CA5CDE4F488159816E
:10F89000C653D140C42AD52A933109F082C0CE5C28
:10F8A000DE4F88819981AA81BB81C253D1408050AB
:10F8B000904CA340B04030F583E0CE5CDE4FE88052
:10F8C000F9800A811B81C253D140F70100935B008C
:10F8D00080935700E89507B600FCFDCFCE5CDE4F65
:10F8E000088119812A813B81C253D14000501F4FAA
:10F8F0002F4F3F4FCE5CDE4F088319832A833B8313
:10F90000C253D140C05EDE4F488159816A817B81FC
:10F91000C052D140DE011B9631E08C9111962C91A2
:10F9200011971296C75CDE4F2883C953D140C85C3B
:10F93000DE4F1882C853D14090E0C85CDE4FE881AA
:10F94000F981C853D1408E2B9F2B0C01FA01609393
:10F950005B0030935700E89511244E5F5F4F6F4F67
:10F960007F4F0EEFE02E0FEFF02ECE0CDF1CC114F8
:10F97000D10499F685E0C05EDE4F088119812A81A5
:10F980003B81C052D140F80120935B008093570027
:10F99000E89507B600FCFDCF81E180935700E8951C
:10F9A00035C0C05EDE4F88819981AA81BB81C0527B
:10F9B000D140B695A795979587957C018601ABE0D8
:10F9C000AA2EB12CAC0EBD1E0BC0D5016D915D01F0
:10F9D000C7010F947FFE0894E11CF11C01501040F8
:10F9E0000115110591F7A60160E070E0440F551F65
:10F9F000661F771FC05EDE4FE880F9800A811B8199
:10FA0000C052D1404E0D5F1D601F711F1A82C05E33
:10FA1000DE4F488359836A837B83C052D1407FC0C5
:10FA2000FA80C55CDE4FF882CB53D140C65CDE4F16
:10FA30001882CA53D1408B81C82EDD24C65CDE4FAC
:10FA400008811981CA53D140C02AD12A1A828981DA
:10FA5000BE016D5F7F4F843121F59601C05EDE4FA0
:10FA6000E880F9800A811B81C052D1400BBFF701A9
:10FA700087919691DB018C9311969C936E5F7F4FDB
:10FA8000D801C7010296A11DB11DC05EDE4F88835B
:10FA90009983AA83BB83C052D14022503040F1F6F3
:10FAA00036C0C05EDE4F288139814A815B81C052F9
:10FAB000D1400894C108D108760100E010E0089414
:10FAC000C11CD11C0894E11CF11C011D111DE20E8A
:10FAD000F31E041F151F21BDBB27A52F942F832FB5
:10FAE00082BD2F5F3F4F4F4F5F4FF89A80B5DB01CC
:10FAF0008D93BD012E153F054007510761F7C05E8C
:10FB0000DE4F288339834A835B83C052D1409601FC
:10FB10002D5F3F4FFB01108204C080EC8A8322E0FE
:10FB200030E08BE18093C6008091C00086FFFCCF5F
:10FB30008091C00080648093C000C15DDE4FF88179
:10FB4000CF52D140F093C6008091C00086FFFCCF19
:10FB50008091C00080648093C000432F3093C60022
:10FB60008091C00086FFFCCF8091C00080648093AC
:10FB7000C000922F2093C6008091C00086FFFCCF6A
:10FB80008091C00080648093C0008EE08093C600A6
:10FB90008091C00086FFFCCF8091C000806480937C
:10FBA000C00065E1C15DDE4FE880CF52D1406E25D7
:10FBB00069276427FE01319610C090819093C6009A
:10FBC0008091C00086FFFCCF31968091C000806498
:10FBD0008093C0006927215030402115310569F715
:10FBE0006093C6008091C00086FFFCCF8091C0006A
:10FBF00080648093C00085B1805885B9772081F4F6
:10FC0000C15DDE4F0881CF52D1400F5FC15DDE4F35
:10FC10000883CF52D14090E0A0E0B0E00D941AF4F8
:10FC200027982F9880E090E020ED37E0F901319798
:10FC3000F1F7019684369105C9F700008091C00064
:10FC40008D7F8093C00081E180935700E895EE2777
:10FC5000FF270994FFCF90E00D941AF497FB092E2B
:10FC600007260AD077FD04D02ED006D000201AF443
:10FC7000709561957F4F0895F6F7909581959F4F08
:10FC80000895A1E21A2EAA1BBB1BFD010DC0AA1FDD
:10FC9000BB1FEE1FFF1FA217B307E407F50720F0F5
:10FCA000A21BB30BE40BF50B661F771F881F991F70
:10FCB0001A9469F760957095809590959B01AC01B9
:10FCC000BD01CF010895AA1BBB1B51E107C0AA1FAC
:10FCD000BB1FA617B70710F0A61BB70B881F991FED
:10FCE0005A95A9F780959095BC01CD010895F99991
:10FCF000FECF92BD81BDF89A992780B50895262F31
:10FD0000F999FECF1FBA92BD81BD20BD0FB6F89400
:0EFD1000FA9AF99A0FBE01960895F894FFCF63
:040000033000E000E9
:00000001FF