:10000000D3C10000E8C70000BBC700008EC70000D6
:1000100061C7000034C7000007C70000DAC600004F
:10002000ADC60000F2C10000F0C10000EEC100004A
:10003000ECC10000EAC10000E8C10000E6C1000018
:10004000E4C10000E2C10000E0C10000DEC1000028
:10005000DCC100000C94E70AD8C1000045C60000CE
:10006000D4C10000E6C40000BBC40000CEC1000043
:10007000CCC10000CAC10000C8C10000C6C1000058
:10008000C4C10000C2C10000C0C10000BEC1000068
:10009000BCC10000BAC10000B8C10000C7C7000061
:1000A000B4C10000B2C10000B0C10000AEC1000088
:1000B000ACC10000AAC10000A8C10000A6C1000098
:1000C000A4C10000A2C10000A0C100009EC10000A8
:1000D0009CC100009AC1000098C1000096C10000B8
:1000E00094C10000C914C914C914C914CE14D3147E
:1000F000D314D314CE14CE14CE14CE14CE14CE14E6
:10010000CE14CE14D314DC14DC14DC14DC14DC1494
:10011000D314D3142E033103200324032A036803CA
:10012000350339033F03430347034D03510355038D
:1001300068035B035F036303005EBCE2613FDD8332
:10014000C29C7E20A3FD1F41009D23BE46DB65F8B7
:100150008C11AF32CA57E9746D630073746F7020ED
:100160002874656D7065726174757265436F6E7425
:10017000726F6C535953292000D09DD0B0D187D0D5
:10018000B0D0BBD0BE20D0BFD180D0BED186D0B53C
:10019000D0B4D183D180D18B20D180D0B5D0B3D190
:1001A00083D0BBD0B8D180D0BED0B2D0B0D0BDD07B
:1001B000B8D18F2E2043656C6576616961207465C6
:1001C0006D7065726174757261200073746F702058
:1001D0006E61736F7320535953007A617075736B3E
:1001E000206E61736F73612053595300D092D18B8D
:1001F000D0BAD0BBD18ED187D0B5D0BDD0B8D0B514
:1002000020D18DD0BBD0B5D0BAD182D180D0BED0D4
:10021000BAD0BED182D0BBD0B02E20D092D180D067
:10022000B5D0BCD18F2000D097D0B0D0BFD183D172
:1002300081D0BA20D18DD0BBD0B5D0BAD182D180F7
:10024000D0BED0BAD0BED182D0BBD0B02E20D092FA
:10025000D180D0B5D0BCD18F20000A737461727484
:10026000202874656D7065726174757265436F6E78
:1002700074726F6C535953290A0000002100240046
:1002800027002A002D003000330001010000040186
:1002900007010A0100002200250028002B002E0083
:1002A0003100340002010000050108010B010000CB
:1002B0000A0B02090C0D0E080703040100000000E0
:1002C000000000000000000000000000000000002E
:1002D00000000000000000000000121110000000EB
:1002E000000000000000000000000000000000000E
:1002F00000000000000020002300260029002C0040
:100300002F0032000001000003010601090105056C
:100310000505070508080808020202020A0A08087B
:1003200004040404010101010101010103030303A9
:1003300003030303040707070C0C0C0C0C0C0C0C38
:100340000202020206060606060606060B0B0B0B49
:100350000B0B0B0B0102102020080810204010206E
:100360004080020102010804020101020408102079
:100370004080804020100804020180040201804077
:1003800020100804020108040201010204081020E0
:10039000408001020408102040801F1C1F1E1F1EE9
:1003A0001F1F1E1F1E1F9D1611241FBECFEFD1E25F
:1003B000DEBFCDBF00E00CBF26E0A6ECB3E001C07D
:1003C0001D92A033B207E1F713E0A0E0B2E0E6ED42
:1003D000F4E300E00BBF02C007900D92A63CB1070A
:1003E000D9F711E0C4EDD1E000E006C02197010982
:1003F000802FFE010E945D1AC33DD10780E00807EF
:10040000A9F70E948C0F0C94691AFACDFC01538D48
:10041000448D252F30E0842F90E0821B930B5417DE
:1004200010F0CF96089501970895FC01918D828D6B
:10043000981761F0828DDF01A80FB11D5D968C9138
:10044000928D9F5F9F73928F90E008958FEF9FEF43
:100450000895FC01918D828D981731F0828DE80FFF
:10046000F11D858D90E008958FEF9FEF0895FC01B9
:10047000918D228D892F90E0805C9F4F821B910986
:100480008F73992708958CEC94E0F1DF21E0892B9C
:1004900009F420E0822F0895FC01848DDF01A80F6C
:1004A000B11DA35ABF4F2C91848D90E001968F739C
:1004B0009927848FA689B7892C93A089B1898C91BB
:1004C000837080648C93938D848D981306C002880A
:1004D000F389E02D80818F7D80830895EF92FF92D4
:1004E0000F931F93CF93DF93EC0181E0888F9B8D57
:1004F0008C8D981305C0E889F989808185FD25C018
:10050000F62E0B8D10E00F5F1F4F0F731127E02E9B
:100510008C8DE8120BC00FB607FCFACFE889F98979
:10052000808185FFF5CFCE01B7DFF2CF8B8DFE0145
:10053000E80FF11DE35AFF4FF0829FB7F8940B8F3D
:10054000EA89FB89808180620AC09FB7F894EE89AE
:10055000FF896083E889F989808183708064808362
:100560009FBF81E090E0DF91CF911F910F91FF90AD
:10057000EF900895CF93DF93EC01888D8823C1F02D
:10058000EA89FB89808185FD05C0A889B9898C919C
:1005900086FD0EC00FB607FCF5CF808185FFF2CF38
:1005A000A889B9898C9185FFEDCFCE0175DFE8CFA1
:1005B000DF91CF91089580E090E0892B19F063DFFF
:1005C000811125C080E090E0892B41F080E090E02F
:1005D000892B21F00E94000081111CC080E090E076
:1005E000892B41F080E090E0892B21F00E940000EF
:1005F000811113C080E090E0892BA1F080E090E0B1
:10060000892B81F00E94000081110AC008950E9488
:100610000000D8CF0E940000E1CF0E940000EACF86
:100620000C940000089590E0FC013197E231F1054F
:1006300008F04EC08827E657FF4F8F4F0C945D1A85
:10064000809180008F7703C0809180008F7D8093A0
:100650008000089580918000877FF9CF84B58F77DF
:1006600002C084B58F7D84BD08958091B0008F77DE
:1006700003C08091B0008F7D8093B0000895809179
:1006800090008F7707C0809190008F7D03C080918C
:100690009000877F8093900008958091A0008F77CD
:1006A00007C08091A0008F7D03C08091A000877F4C
:1006B0008093A0000895809120018F7707C08091DA
:1006C00020018F7D03C080912001877F80932001CE
:1006D00008953FB7F89480915B0490915C04A091D9
:1006E0005D04B0915E0426B5A89B05C02F3F19F0AC
:1006F0000196A11DB11D3FBFBA2FA92F982F8827A2
:10070000820F911DA11DB11DBC01CD0142E0660FFC
:10071000771F881F991F4A95D1F70895089585ED91
:100720008093BC008091BC0084FDFCCF1092A70494
:10073000089540913304262F30E0240F311D2132DB
:100740003105DCF42091A7042430C9F4FC0180E0D9
:1007500090E0861758F4309133042191DC01AD5EAE
:10076000BB4FA30FB11D2C930196F3CF809133049F
:10077000680F6093330480E0089581E0089582E07B
:100780000895089508950895E091600480915F04AC
:10079000E81730F4F0E0EF59FB4F808190E00895C6
:1007A0008FEF9FEF08959091600480915F049817F8
:1007B00050F4E92FF0E0EF59FB4F208130E09F5FCC
:1007C0009093600402C02FEF3FEFC901089580911C
:1007D0005F0490E020916004821B91090895CF92FC
:1007E000DF92EF92FF920F931F93CF93DF937C01E1
:1007F000CB018A012091A804222389F0EB016B012F
:10080000C40ED51ECC15DD0561F06991D701ED91BF
:10081000FC910190F081E02DC7011995F3CF642F71
:1008200088DFC801DF91CF911F910F91FF90EF906A
:10083000DF90CF900895CF93DF931F92CDB7DEB7AF
:1008400069832091A8042223D1F02091CB04203287
:1008500040F021E030E0FC013383228380E090E02F
:1008600014C08091A904E82FF0E0E655FB4F998170
:1008700090838F5F8093A9048093CB0404C061E0D0
:10088000CE01019656DF81E090E00F90DF91CF918D
:100890000895089580E090E00895FC01838194819B
:1008A0008230910538F0880F991F880F991F05979E
:1008B0000197F1F708950E94651ACF92DF92EF92A7
:1008C000FF920F931F93CF93DF9300D000D0CDB74B
:1008D000DEB7789481E08093A80488E68093CA0408
:1008E0001092A9041092CB0460E089E695E0A3DFA2
:1008F0000E94CF0D87E090E00E942B0E89E695E0E4
:1009000052DF8F77982F92959F701AEF082F919F43
:10091000000D112489E695E046DF9C01332794E021
:10092000359527959A95E1F7F82E129FF00C112432
:1009300089E695E038DF9C01332744E0359527951B
:100940004A95E1F7E82E129FE00C112489E695E024
:100950002ADF89E695E027DF9C01332754E03595AF
:1009600027955A95E1F7D82E129FD00C112489E6CD
:1009700095E019DF9C01332764E0359527956A954A
:10098000E1F7C82E129FC00C112489E695E00BDF19
:100990009C01332774E0359527957A95E1F7129FEE
:1009A000800D11248983CA82DB82EC82FD820E8352
:1009B00086E0FE013196AAE2B6E001900D928A959A
:1009C000E1F726960FB6F894DEBF0FBECDBFDF91DC
:1009D000CF911F910F91FF90EF90DF90CF900895EE
:1009E0001F920F920FB60F9211240BB60F922F93F6
:1009F0003F934F935F936F937F938F939F93AF93A7
:100A0000BF93EF93FF938CEC94E046DDFF91EF9161
:100A1000BF91AF919F918F917F916F915F914F9116
:100A20003F912F910F900BBE0F900FBE0F901F9014
:100A300018951F920F920FB60F9211240BB60F92BA
:100A40002F938F939F93EF93FF93E091DC04F091AA
:100A5000DD048081E091E204F091E30482FD12C0A4
:100A600090818091E5048F5F8F732091E604821757
:100A700051F0E091E504F0E0E453FB4F958F809353
:100A8000E50401C08081FF91EF919F918F912F919B
:100A90000F900BBE0F900FBE0F901F901895CF9325
:100AA000DF93282F30E0F901E255FD4F8491F901E1
:100AB000EC5AFC4FD491F901E25FFC4FC491CC2376
:100AC00089F08111B0DDEC2FF0E0EE0FFF1FEC504C
:100AD000FD4FA591B491EC91ED2381E090E021F4DC
:100AE00080E002C080E090E0DF91CF9108951F93F5
:100AF000CF93DF93282F30E0F901E255FD4F849129
:100B0000F901EC5AFC4FD491F901E25FFC4FC4911A
:100B1000CC23B9F0162F811186DDEC2FF0E0EE0F1B
:100B2000FF1FEC56FD4FA591B4919FB7F89411119A
:100B300004C08C91D095D82302C0EC91DE2BDC93BD
:100B40009FBFDF91CF911F910895CF93DF9390E0E6
:100B5000FC01EC5AFC4F2491FC01E25FFC4F8491B4
:100B6000882361F190E0880F991FFC01E658FD4F42
:100B7000C591D491FC01EC56FD4FA591B491611142
:100B800009C09FB7F8948881209582238883EC91CF
:100B90002E230BC0623061F49FB7F8948881322F06
:100BA000309583238883EC912E2B2C939FBF06C016
:100BB0008FB7F894E8812E2B28838FBFDF91CF91D8
:100BC00008958F929F92AF92BF92CF92DF92EF9251
:100BD000FF926B017C017DDD4B015C01C114D104EE
:100BE000E104F104E9F075DDDC01CB018819990914
:100BF000AA09BB09883E9340A105B10578F321E01D
:100C0000C21AD108E108F10888EE880E83E0981E28
:100C1000A11CB11CC114D104E104F10421F7DECF01
:100C2000FF90EF90DF90CF90BF90AF909F908F900C
:100C300008950F931F93CF93DF938C0160E0FC0125
:100C4000848155DF61E070E080E090E0BADFC801A8
:100C50000E948F0EC82FD0E0DC2FCC27C8010E9445
:100C60008F0EC82B61E0F801848141DFC2FD13C003
:100C7000BE0183E0759567958A95E1F7072E000C14
:100C8000880B990B0E94541820E030E040E85EE3A6
:100C90000E94B31804C060E070E080EC9FE7DF9131
:100CA000CF911F910F910895C4DF26E636E646EEF8
:100CB0005FE30E94B31820E030E040E052E40C947F
:100CC0007E19B7DF23E333E948E853E40C947E1937
:100CD0002FB7F8946091570470915804809159048B
:100CE00090915A042FBF08951F920F920FB60F9242
:100CF00011242F933F938F939F93AF93BF93809132
:100D0000570490915804A0915904B0915A0430911D
:100D1000560423E0230F2D3720F40196A11DB11DA9
:100D200005C026E8230F0296A11DB11D209356048D
:100D30008093570490935804A0935904B0935A0495
:100D400080915B0490915C04A0915D04B0915E047D
:100D50000196A11DB11D80935B0490935C04A09348
:100D60005D04B0935E04BF91AF919F918F913F91CD
:100D70002F910F900FBE0F901F9018951F920F92FA
:100D80000FB60F9211240BB60F922F933F934F93F0
:100D90005F936F937F938F939F93AF93BF93EF93E3
:100DA000FF93E0910E02F0910F021995FF91EF91E0
:100DB000BF91AF919F918F917F916F915F914F9173
:100DC0003F912F910F900BBE0F900FBE0F901F9071
:100DD00018951F920F920FB60F9211240BB60F9217
:100DE0002F933F934F935F936F937F938F939F9333
:100DF000AF93BF93EF93FF93E0910C02F0910D023C
:100E00001995FF91EF91BF91AF919F918F917F9134
:100E10006F915F914F913F912F910F900BBE0F906B
:100E20000FBE0F901F9018951F920F920FB60F9242
:100E300011240BB60F922F933F934F935F936F93B1
:100E40007F938F939F93AF93BF93EF93FF93E09123
:100E50000202F09103021995FF91EF91BF91AF91BA
:100E60009F918F917F916F915F914F913F912F91C2
:100E70000F900BBE0F900FBE0F901F9018951F92F2
:100E80000F920FB60F9211240BB60F922F933F9330
:100E90004F935F936F937F938F939F93AF93BF9382
:100EA000EF93FF93E0910002F09101021995FF91F9
:100EB000EF91BF91AF919F918F917F916F915F91D2
:100EC0004F913F912F910F900BBE0F900FBE0F903F
:100ED0001F9018951F920F920FB60F9211240BB608
:100EE0000F922F933F934F935F936F937F938F93C3
:100EF0009F93AF93BF93EF93FF93E0910A02F0911A
:100F00000B021995FF91EF91BF91AF919F918F9136
:100F10007F916F915F914F913F912F910F900BBEF9
:100F20000F900FBE0F901F9018951F920F920FB643
:100F30000F9211240BB60F922F933F934F935F9311
:100F40006F937F938F939F93AF93BF93EF93FF9391
:100F5000E0910802F09109021995FF91EF91BF917C
:100F6000AF919F918F917F916F915F914F913F9141
:100F70002F910F900BBE0F900FBE0F901F901895E2
:100F80001F920F920FB60F9211240BB60F922F9350
:100F90003F934F935F936F937F938F939F93AF9301
:100FA000BF93EF93FF93E0910602F091070219952A
:100FB000FF91EF91BF91AF919F918F917F916F9131
:100FC0005F914F913F912F910F900BBE0F900FBEED
:100FD0000F901F9018951F920F920FB60F92112429
:100FE0000BB60F922F933F934F935F936F937F9323
:100FF0008F939F93AF93BF93EF93FF93E09104027E
:10100000F09105021995FF91EF91BF91AF919F91DA
:101010008F917F916F915F914F913F912F910F90A1
:101020000BBE0F900FBE0F901F9018951F920F923E
:101030000FB60F9211240BB60F922F933F934F933D
:101040005F936F937F938F939F93AF93BF93EF9330
:10105000FF938091B900887F803609F49CC068F5C1
:10106000883209F45BC090F4803109F454C038F43C
:10107000882309F4F6C0883009F44DC0F5C08831E2
:1010800009F44CC0803209F45DC0EEC0803409F42C
:1010900068C048F4803309F455C0883309F0E4C0CF
:1010A0008093A504D8C0803509F44FC0883509F471
:1010B0005DC0883409F0D8C0D6C0883909F4C7C0EB
:1010C000A8F4883709F467C038F4883609F463C097
:1010D000803709F460C0C8C0883809F4B8C08039C6
:1010E00009F45FC0803809F0BFC05BC0803B09F4E1
:1010F00086C038F4803A09F466C0883A09F47FC0A3
:10110000B3C0803C09F4A7C0883C09F4A4C0883B64
:1011100009F48AC0A9C08091820410C09091A404EF
:101120008091A304981770F5E091A40481E08E0FDC
:101130008093A404F0E0ED57FB4F80818093BB00C7
:1011400085EC86C08093A5048EC0E091A40481E064
:101150008E0F8093A4048091BB00F0E0ED57FB4F0D
:1011600080839091A4048091A3046EC0E091A404B4
:1011700081E08E0F8093A4048091BB00F0E0ED57D6
:10118000FB4F80838091A60481116DC081E0809324
:10119000810484EA61C083E08093A704109255041F
:1011A000CFCF80915504803208F051C0E0915504B2
:1011B00081E08E0F809355048091BB00F0E0EB5CE2
:1011C000FB4F8083BDCF85EC8093BC001092A704B9
:1011D00080915504803230F4E0915504F0E0EB5CEE
:1011E000FB4F10826091550470E0E091C603F091CE
:1011F000C70385E394E019951092550435C084E047
:101200008093A7041092340410923304E091C80331
:10121000F091C903199580913304811105C081E0D3
:101220008093330410921304E091340481E08E0F14
:1012300080933404F0E0ED5EFB4F80818093BB002F
:101240009091340480913304981708F479CF85E89D
:101250008093BC0009C085EC8093BC001092A70469
:1012600003C01092A5045BDAFF91EF91BF91AF919B
:101270009F918F917F916F915F914F913F912F91AE
:101280000F900BBE0F900FBE0F901F901895FA0194
:101290009A012C5F3F4F862F80789081892B819314
:1012A000660F2E173F07B9F708950F931F93CF933B
:1012B000DF93EC01062F18E061E0888146DCCE0167
:1012C000ECDA00FF02C060E001C061E089813DDC32
:1012D000CE01E3DA60E0888138DCCE01DEDA069503
:1012E000115051F761E0888130DC60E089812DDCAC
:1012F000CE01D3DA60E0888128DCCE01CEDA8981A4
:10130000CEDB182F811103C061E089811EDCCE0184
:10131000C4DA61E0888119DCCE01BFDA81E0111105
:1013200001C080E0DF91CF911F910F910895CF937D
:10133000DF93EC0161E0898108DCCE01AEDA60E088
:10134000888103DCCE01A9DA60E08981FEDBCE0171
:10135000DF91CF91A2CACF93DF93EC0161E0898145
:10136000F4DBCE01DF91CF9198CA8F929F92AF921A
:10137000BF92EF92FF920F931F93CF93DF9300D012
:101380001F92CDB7DEB77C014A015B01122F20E02E
:1013900030E0A901C501B4010E944E1887FF0FC0BB
:1013A000B7FAB094B7F8B094113039F008F49AC095
:1013B000123009F0DBC011E035C011E003C011307C
:1013C00051F510E02DEC3CEC4CE45DE3C501B401BB
:1013D0000E947E1920E030E040E251E40E94B31800
:1013E0000E94E719AB0111110BC06031774210F078
:1013F0004FE057E24A30510508F4ABC06AE008C03C
:10140000683E23E0720708F488C047EE53E066EFB9
:1014100000E020E264C0113008F472C0123009F01C
:10142000A5C010E02AE037ED43EA5BE3C501B40153
:101430000E947E1920E030E048EC52E40E94B3188C
:101440000E94E719AB01111140C0403187E25807F3
:1014500010F04FE057E244365105A8F5411551050B
:1014600031F48FE38C831B821A82198226C0CA0151
:101470006AE070E00E94271A5B01FC01E057FD4F13
:1014800020812C83BC0180E090E04AE068D288E3B0
:1014900093E053D2F501E057FD4F80818B838FE3BA
:1014A0008A83112319F080E4898301C01982AE0177
:1014B0004F5F5F4F60E4C701EADEBE016F5F7F4FA1
:1014C000C701ADD253C08AE007C0483E83E0580749
:1014D00048F147EE53E086EF00E020E4682FC701B3
:1014E000CED244C0C501B4010E94E719AB01683EE9
:1014F000734010F047EE53E086EF00E020E0EECFBF
:10150000C501B4010E94E719AB01403187E25807D9
:1015100010F04FE057E28AE0F0CF6A30710508F032
:1015200076CF04C044365105B0F698CF61157105E9
:1015300009F497CFFB01E057FD4F80818C838FE347
:101540008B8380E48A831982AE014F5F5F4F60E234
:10155000B2CF4115510509F484CFFA01E057FD4F90
:1015600080818C838FE38B831A82EDCF0F900F9055
:101570000F900F90DF91CF911F910F91FF90EF90FF
:10158000BF90AF909F908F900895CF93DF9300D03E
:101590001F92CDB7DEB719821A821B821C82BE0150
:1015A0006F5F7F4F3CD20F900F900F900F90DF91A5
:1015B000CF910895FC01908190539A3008F090E00B
:1015C000818180532AE0929F800D112408951F92FB
:1015D0000F920FB60F9211240BB60F92FF920F933A
:1015E0001F932F933F934F935F936F937F938F93AB
:1015F0009F93AF93BF93CF93DF93EF93FF938FEFBF
:1016000086BD809175058823D1F1C7E7D5E007E94C
:1016100015E0A991B991109701F1FFB6F8948C915A
:101620008823D1F01996ED91FC911A973097A1F08B
:1016300011964D915D916D917C9114974150510996
:101640006109710911964D935D936D937C93149785
:10165000452B462B472B29F0FFBE0C171D07C9F65B
:101660000EC015964D915D916D917C9118971196D4
:101670004D935D936D937C9314971995EDCFFF91E6
:10168000EF91DF91CF91BF91AF919F918F917F911A
:101690006F915F914F913F912F911F910F91FF900B
:1016A0000F900BBE0F900FBE0F901F9018950F93C9
:1016B0001F93CF93DF93EC010BDB0A811B812C81FD
:1016C0003D81DC01CB01801B910BA20BB30B0E8182
:1016D0001F812885398580179107A207B30750F02D
:1016E000F7DA6A837B838C839D838981882311F059
:1016F00081E088838881DF91CF911F910F910895B8
:10170000CF93DF93EC01E4DA6A837B838C839D8340
:10171000DF91CF9108950F931F93CF93DF93EC0147
:10172000088110E08C81BBD90817190711F01A82C3
:101730000DC08A818F5F8A839B81891738F08881E9
:1017400091E0892788831A8281119983DF91CF9153
:101750001F910F9108954F925F926F927F928F9297
:101760009F92AF92BF92EF92FF920F931F93CF93EE
:10177000DF93CDB7DEB72A970FB6F894DEBF0FBE62
:10178000CDBFA82EB62E842FF22E19821A824D8339
:101790009FE0E92EEC8262E0D8D91E821F82FA8691
:1017A000E98662E08F2DD1D993DA2B013C0160E00C
:1017B0008A2D9DD961E08B2D9AD9CE010196ABDFA0
:1017C00087DADC01CB0184199509A609B7098131B3
:1017D0009742A105B10530F48981882371F3E12C8A
:1017E000F12C03C0EE24E394F12C61E08A2D7FD923
:1017F00061E08B2D7CD96CDADC01CB018419950971
:10180000A609B709F80180839183A283B3838DE889
:1018100093E0A4D0F80160817181828193814AE0D4
:101820009ED082EA93E09AD04AE0B7010F2C000CD8
:10183000880B990B94D088E393E07FD049DA2B0191
:101840003C0160E08B2D53D961E08A2D50D9CE0147
:10185000069661DF3DDADC01CB0184199509A60902
:10186000B70981319742A105B10520F022E0E20ECF
:10187000F11C03C08E81882351F361E08A2D37D992
:1018800061E08B2D34D924DA4B015C018418950872
:10189000A608B70880EB93E061D04AE0C501B40127
:1018A0005ED082EA93E05AD04AE0B7010F2C000CD8
:1018B000880B990B54D089E393E050D0F8018081D4
:1018C0009181A281B38188159905AA05BB0510F401
:1018D000D501C401F80180839183A283B383C7013A
:1018E0002A960FB6F894DEBF0FBECDBFDF91CF9121
:1018F0001F910F91FF90EF90BF90AF909F908F90AE
:101900007F906F905F904F900895CF93DF93EC019D
:101910008AE38883698384E690E09C838B8360E01C
:101920008AE313D960E0898110D960E08881DFD82B
:1019300060E08981DF91CF91DAC8009761F0FC0106
:1019400001900020E9F73197AF01481B590BBC010A
:101950008CEC94E0B7C280E090E00895EECF8F92D7
:101960009F92AF92BF920F931F93CF93DF93CDB708
:10197000DEB7A1970FB6F894DEBF0FBECDBF19A298
:10198000423008F44AE08E010F5D1F4F842E912CE7
:10199000A12CB12CA50194010E943B1AE62FB9019C
:1019A000CA0101501109EA3014F4E05D01C0E95C9C
:1019B000D801EC93232B242B252B61F7C801BDDF25
:1019C000A1960FB6F894DEBF0FBECDBFDF91CF91C9
:1019D0001F910F91BF90AF909F908F900895CF92DD
:1019E000DF92EF92FF92CF93DF936B017C016DE268
:1019F0008CEC94E00E946E02EC0166277727CB0105
:101A00006C197D098E099F094AE0A9DF8C0F9D1F83
:101A1000DF91CF91FF90EF90DF90CF900895EF92FC
:101A2000FF920F931F93CF93DF93EC017B0193DC25
:101A300060E4CE013ADCCE017ADCCE018CDC60ECD5
:101A4000CE0133DC870184E0E80EF11CF8016191DE
:101A50008F01CE012ADC0E151F05C1F7CE0167DC10
:101A6000CE0179DC6A816F706058CE011EDCCE0138
:101A7000DF91CF911F910F91FF90EF9058CC6F9213
:101A80007F928F929F92AF92BF92CF92DF92EF920E
:101A9000FF920F93CF93DF9300D01F92CDB7DEB7A5
:101AA0005C014A0167FF03C0619531E001C030E08D
:101AB0008114910461F0CE0101966C013E0193E026
:101AC000691A7108E62E660FFF0840E420C0011174
:101AD000F2CF19821A821B828FE38C8336C0811465
:101AE0009104E9F08F70E82FF0E0E057FD4F80811E
:101AF000F60183839923C1F0C401B7010E94271A1C
:101B00004B01F1E0CF1AD108C614D704B1F0C401DB
:101B1000B7010E94271A982F8111E4CFE0CF01115D
:101B2000E1CFF601138203C08114910429F7332316
:101B300019F3F601438330E0DFCF222331F0AE0109
:101B40004F5F5F4F622FC501A2DBBE016F5F7F4F0A
:101B5000C50165DF0F900F900F900F90DF91CF912F
:101B60000F91FF90EF90DF90CF90BF90AF909F903C
:101B70008F907F906F9008950F93342FAB0177FF74
:101B800004C044275527461B570B77FD02C06AE067
:101B900001C066EF022F232F72DF0F91089530915D
:101BA000CB04313208F04BC08091A7048111FCCFE7
:101BB0009091CA0422E02093A70421E02093A60478
:101BC0002FEF2093A5041092A4043093A304EAEA13
:101BD000F4E0A3E8B4E020E0321721F041914D9306
:101BE0002F5FFACF1092820420918204990F922BDA
:101BF0009093820490918104913061F41092810459
:101C0000909182049093BB009091BC0093FDF8CF1B
:101C100095EC01C095EE9093BC009091A704923092
:101C2000E1F39091A5049F3F79F08091A504803263
:101C300041F08091A504803331F084E005C081E05B
:101C400003C082E001C083E01092A9041092CB048B
:101C50001092A80408959091A7049111FCCF982F99
:101C6000813208F090E281E08093A7048093A6047B
:101C70002FEF2093A5041092A404290F2093A3040E
:101C80008093820480918204806D8093820480918D
:101C90008104813061F410928104809182048093E8
:101CA000BB008091BC0083FDF8CF85EC01C085EEC0
:101CB0008093BC008091A7048130E1F38091A4045B
:101CC000891710F49091A404E3E8F4E0A1E6B4E0ED
:101CD00080E0891721F021912D938F5FFACF109228
:101CE000600480935F0408950F931F93CF93DF9355
:101CF0008C01C0E0D0E0F801EC0FFD1F6491662379
:101D000041F08CEC94E00E946E02892B11F0219638
:101D1000F2CFCE01DF91CF911F910F910895CF9215
:101D2000DF92EF92FF921F93CF93DF937C0110E03D
:101D3000C7E0D0E0CC24C394D12C60E0F7018281CD
:101D40000E94770561E070E080E090E00E94E1058C
:101D5000F70186810E944F05892B39F0C6010C2EB0
:101D600001C0880F0A94EAF7182B61E0F70182811D
:101D70000E94770561E070E080E090E00E94E1055C
:101D80002197D8F6812FDF91CF911F91FF90EF908F
:101D9000DF90CF900895CF92DF92EF92FF920F9352
:101DA0001F93CF93DF9328E030E041E06FEF70E0C6
:101DB0009FE0C92ED12CC3E2D0E007ED10E0909156
:101DC000A105E091A205F091A305592F5095F82E99
:101DD000F42281F0F894F2805F2152835181592BD3
:101DE0005183DE011197F1F75281952B92837894FC
:101DF000F8010FC0F894F2805F2152835181592B72
:101E00005183DB011197F1F75281952B92837894DE
:101E1000F6013197F1F7440F2150310981F6F8941A
:101E2000E091A205F091A30591818091A105809593
:101E300098239183E091A205F091A30592818923D3
:101E400082837894DF91CF911F910F91FF90EF9053
:101E5000DF90CF9008952091A105E091A205F09127
:101E6000A305F8948181922F90958923818378949A
:101E70008DE743E050E0815021F1DA011197F1F74D
:101E800030813223C1F3F894828189238283818156
:101E9000822B81837894ABE7B7E01197F1F7F89440
:101EA00081819823918383E191E00197F1F780810B
:101EB000282381E009F080E07894E3E6F6E03197AA
:101EC000F1F70895CF92DF92EF92FF920F931F9355
:101ED000CF93DF936C017A018B01C0E0D0E0CE1587
:101EE000DF0581F0D8016D918D01D601ED91FC9156
:101EF0000190F081E02DC6011995892B11F02196F2
:101F0000EECF7E01C701DF91CF911F910F91FF901E
:101F1000EF90DF90CF900895CF93DF93CDB7DEB7EA
:101F20002D970FB6F894DEBF0FBECDBF789484B561
:101F3000826084BD84B5816084BD85B5826085BDC5
:101F400085B5816085BD80916E00816080936E0053
:101F50001092810080918100826080938100809145
:101F600081008160809381008091800081608093F6
:101F700080008091B10084608093B1008091B000B6
:101F800081608093B0008091910082608093910085
:101F90008091910081608093910080919000816098
:101FA000809390008091A10082608093A100809135
:101FB000A10081608093A1008091A0008160809346
:101FC000A0008091210182608093210180912101F4
:101FD00081608093210180912001816080932001A4
:101FE00080917A00846080937A0080917A00826088
:101FF00080937A0080917A00816080937A0080914A
:102000007A00806880937A001092C1000E9468066E
:10201000E091DC04F091DD0482E08083E091D8045B
:10202000F091D9041082E091DA04F091DB0480E1B0
:1020300080831092E404E091E004F091E10486E0F2
:102040008083E091DE04F091DF04808180618083F1
:10205000E091DE04F091DF04808188608083E0916C
:10206000DE04F091DF04808180688083E091DE04EB
:10207000F091DF0480818F7D808361E08DE00E949C
:10208000A50561E08CE10E94A50561E08CE10E945C
:10209000770561E08DE10E94A50561E08DE10E9478
:1020A000770561E08EE10E94A50561E08EE10E9466
:1020B000770561E084E30E94A50561E084E30E9466
:1020C000770561E085E30E94A50561E085E30E9454
:1020D00077051092600410925F041092A904109288
:1020E000CB041092A70401E00093A604109281048F
:1020F00061E084E10E94770561E085E10E94770557
:102100008091B9008E7F8093B9008091B9008D7F56
:102110008093B90088E48093B80085E48093BC0084
:1021200081EC93E09093C9038093C80382EC93E021
:102130009093C7038093C6030093A80458E6F52E36
:10214000F092CA041092A9041092CB0460E089E6D0
:1021500095E00E941B0423DD81E090E07CDD89E6B0
:1021600095E00E94D30387FD31C562E083E00E94C1
:10217000A5058DE594E0909303028093020280917F
:102180006A00837F886080936A00ED9A8EEE95E006
:10219000FCD989EE95E0F9D984EE95E0F6D98FED7A
:1021A00095E0F3D98AED95E0F0D985ED95E0EDD98C
:1021B00080ED95E0EAD98BEC95E0E7D986EC95E0E7
:1021C000E4D981EC95E0E1D98CEB95E0DED987EBA1
:1021D00095E0DBD99FE09093F0058CE08093EB05D0
:1021E0008093E6058093E1058093DC058093D70515
:1021F0008093D20524E02093CD058093C805909369
:10220000C30589E08093BE058AE08093B90520E08C
:1022100040EF68EB72E289EE95E0AEDC20E040EF43
:1022200068EB72E284EE95E0A7DC20E040EF68EB1B
:1022300072E28FED95E0A0DC20E040EF68EB72E207
:102240008AED95E099DC20E040EF68EB72E285EDE5
:1022500095E092DC20E040EF68EB72E280ED95E0E3
:102260008BDC20E040EF68EB72E28BEC95E084DCE5
:1022700020E040EF68EB72E286EC95E07DDC20E048
:1022800040EF68EB72E281EC95E076DC20E040EF15
:1022900068EB72E28CEB95E06FDC20E040EF68EBDE
:1022A00072E287EB95E068DC61E081E20E94A505BF
:1022B00061E081E20E94770561E082E20E94A5056B
:1022C00061E082E20E94770562E08FE10E94A5054D
:1022D00062E080E20E94A50561E083E20E94A5051C
:1022E00061E083E20E94770561E084E20E94A50537
:1022F00061E084E20E94770562E085E20E94A50524
:1023000062E086E20E94A5050AEC13E020E24FE1BC
:1023100062E281E220DA8EEC92E020DB6091CA0377
:102320007091CB038091CC039091CD034AE017DBF1
:1023300084EE92E013DB0EEC13E026E245E264E269
:1023400083E209DA89EE92E009DB6091CE037091B5
:10235000CF038091D0039091D1034AE000DB85EE5A
:1023600092E0FCDA0E94680681E196E0A0D987E05D
:1023700096E09DD98DEF95E09AD98BE196E097D9BB
:102380008823C9F080912F06482F417080FD40E4DA
:1023900080912D0660912E0670E024E6829F600DEC
:1023A000711D112421E08EEE95E0E6DB10921B06F4
:1023B0008BE196E0A5D981E196E079D9882309F4EB
:1023C000C4C00E94680687E995E071D9809198059C
:1023D000811109C040DD8CECDEDC84E4DCDC81E0D2
:1023E00080939805B2C080919705882309F4ADC009
:1023F000109298051092970592ED292E93E0392EB0
:1024000020E1E22E22E0F22E2E013AE0430E511C92
:102410003FEC632E712C49EF942E08E010E0570139
:1024200048E0A40EB11C17DD85E5B5DC6701D601D7
:102430008D916D01B0DCAC14BD04C9F78EEBABDC43
:102440009E012F5F3F4F3B872A87C90128E030E07C
:1024500060E071E0D090A105E091A205F091A305A4
:10246000F89441814D2941834281CD2CC0944C2167
:10247000428347E050E0DA011197F1F74181C4222D
:10248000C18243E250E0DA011197F1F7408178947C
:10249000F3013197F1F7D42209F0672B770F215020
:1024A0003109C1F6FC016193CF01E415F50571F620
:1024B00099E0E0E09150A9F0AA85BB858D91BB879A
:1024C000AA878E27E82FEF70F0E0E85CFE4F24919A
:1024D000E82FE295EF70F0E0E85BFE4FE491E22731
:1024E000E9CF89858E1739F00150110909F09BCF8A
:1024F0009A8280ED898369817A818D81807611F459
:10250000687F07C0803211F46C7F03C0803409F407
:102510006E7F072E000C880B990BC6D520E030E0AB
:1025200040E85DE320D6F10161937193819391932B
:102530001F01F0E9AF16F2E0BF0611F075016DCF93
:102540001092110681E196E0DBD887E096E0AFD8E3
:10255000882309F400C14091DE035091DF036091AC
:10256000E0037091E10321E089EE95E00E94B50956
:102570004091FA035091FB036091FC037091FD03BD
:1025800021E084EE95E00E94B5094091D20350917C
:10259000D3036091D4037091D50321E08FED95E0D2
:1025A0000E94B5094091E2035091E3036091E40376
:1025B0007091E50321E08AED95E00E94B509409114
:1025C000FE035091FF03609100047091010421E02B
:1025D00085ED95E00E94B5094091D6035091D7034F
:1025E0006091D8037091D90321E080ED95E00E94BD
:1025F000B50940910A0450910B0460910C0470914C
:102600000D0421E08BEC95E00E94B50940910E0489
:1026100050910F04609110047091110421E086EC38
:1026200095E00E94B50940912506509126066091DB
:1026300027067091280620E081EC95E00E94B509FC
:1026400040910204509103046091040470910504C8
:1026500021E08CEB95E00E94B50940910604509171
:102660000704609108047091090421E087EB95E06C
:102670000E94B50919821A828CE08D8381E08C83D7
:1026800062E08CE00E94A505CE01019644D8CE01FF
:10269000019641D869818DE00E9477058981882360
:1026A00009F453C061E08DE00E94770520E030E03E
:1026B00040E85FE360912506709126068091270629
:1026C000909128061BD66B017C0120E030E040EDA4
:1026D00051E4A9D618164CF0C0922506D0922606D1
:1026E000E0922706F09228060CC020E030E048E88F
:1026F00051E42093250630932606409327065093F5
:102700002806409125065091260660912706709173
:10271000280620E081EC95E00E94B50960E273E0B4
:1027200080E090E00E94E105CE0101960E948B0BB3
:1027300060912506709126068091270690912806C3
:1027400046D680E090E0CBD5A9CF1092070687E06F
:1027500096E00E94800B8DEF95E00E94570B882336
:1027600009F483C00E9468068FEA95E00E9419066A
:102770008091120481111AC020E030E040E85FE34C
:102780006091FE037091FF03809100049091010419
:10279000B5D59B01AC016091DE037091DF038091A0
:1027A000E0039091E1033FD6181614F460E001C0F5
:1027B00061E08DE10E9477056091DE037091DF0397
:1027C0008091E0039091E103FDD56734710554F1E8
:1027D0008FEF92E0B2D888E393E0AFD86091DE0348
:1027E0007091DF038091E0039091E103EBD56135B7
:1027F00071056CF08BE393E0A0D888E393E09DD85B
:1028000060E08CE10E94770581E08093120460E033
:1028100082E20E94770561E081E20E94770560E034
:102820008DE188C21092120461E08CE10E9477056C
:102830006091E2037091E3038091E4039091E503DA
:10284000C1D56F3371053CF080E20E944F05892BA2
:1028500009F051C204C06A3371050CF440C21092F1
:10286000FD058DEF95E00E94800B83EF95E00E94BF
:10287000570B882309F4A7C18AE592E035DA88E38B
:1028800093E05BD80E9468066A877B878C879D8768
:1028900080912D06853001F587E292E025DA60917E
:1028A0002D0670E080E090E04AE059D888E393E09C
:1028B00044D860E08EE10E94770561E084E20E94E6
:1028C000770560E083E20E94770560E085E30E947F
:1028D000770560E084E358C18CEE91E005DA609101
:1028E0002D0670E080E090E04AE039D888E393E07C
:1028F00024D861E085E30E94770560EA7FE080E00C
:1029000090E00E94E10561E084E30E94770561E0C8
:1029100084E20E94770561E083E20E94770580915E
:102920001204811113C020910204309103044091DC
:102930000404509105046091FA037091FB038091A7
:10294000FC039091FD036FD51816DCF48AED91E03D
:10295000CBD960E08EE10E947705C0902506D0902B
:102960002606E0902706F090280680912D0690E03C
:102970008831910508F5FC018827EE58FF4F8F4FED
:102980009CC561E08EE10E9477058BEC91E0ACD9AB
:10299000FDC02CEB34E743E55FE309C02EE53AEBDD
:1029A00049E65FE304C02AE63CEB44E75FE3C70186
:1029B000B601D9D36B017C0189E791E095D9A701D4
:1029C0009601C701B60133D5882319F08CE693E050
:1029D00018C046015701E894B7F82FEF3FEF4FE7D3
:1029E0005FE7C501B40123D581110EC02FEF3FEF82
:1029F0004FE75FE7C501B40151D318162CF480E707
:102A000093E00E949D0C69C02FEF3FEF4FE75FE41A
:102A1000C701B60108D518161CF484E793E0F1CF7E
:102A20002FEF3FEF4FE75FECC701B60137D387FDCC
:102A3000F4CF20E030E0A901C701B6012FD387FF12
:102A400009C06DE28CEC94E00E946E02C701B601F1
:102A5000905802C0C701B6012AE037ED43EA5BE3B4
:102A60004DD42B013C01B3D44B015C011BD39B0122
:102A7000AC01C301B20141D42B013C014AE0C501C4
:102A8000B4010E94AF0C6EE28CEC94E00E946E02E6
:102A900020E030E040E251E4C301B20164D32B01F5
:102AA0003C0195D44B01A12CB12C4AE0C501B401E5
:102AB0000E94AF0CC501B401F5D29B01AC01C3016A
:102AC000B2011BD420E030E040E251E44CD37FD48B
:102AD00080E090E04AE00E94AF0C88E393E00E941F
:102AE0009D0C8090020490900304A0900404B09088
:102AF00005042AE939E949E95EE3C701B601FDD3D6
:102B00009B01AC01C501B401C9D287FF0BC086E2AD
:102B10000E944F05892B31F060E084E20E94770526
:102B200061E018C02AE939E949E95EE3C701B60165
:102B3000E5D39B01AC01C501B40175D4181634F579
:102B400085E20E944F05892B09F161E084E20E9431
:102B5000770560E083E20E9477056091CE03709173
:102B6000CF038091D0039091D1032AE030E040E080
:102B700050E081D4CA01B9010E94E10561E084E21C
:102B80000E94770561E083E20E9477051092F305C9
:102B900083EF95E00E94800B8BE591E0A5D80E9421
:102BA00068062A853B854C855D85621B730B840B0B
:102BB000950B4AE00E94AF0C88E591E095D888E338
:102BC00093E00E949D0C0E94DB02CCCB81E893E055
:102BD0000E94DA0A182F8CE793E00E94DA0AD82EB6
:102BE00084E893E00E94DA0AC82E87E893E00E9406
:102BF000DA0AB82E8AE893E00E94DA0AA82E009337
:102C0000A804F092CA041092A9041092CB0460E0C8
:102C100089E695E00E941B048AE0E82E8A2D6E2D3D
:102C20000AD4682F660F860F880F682F6A0D89E611
:102C300095E00E941B048B2D6E2DFDD3682F660F2F
:102C4000860F880F682F6B0D89E695E00E941B04A4
:102C50008C2D6E2DF0D3682F660F860F880F682F8E
:102C60006C0D89E695E00E941B0460E089E695E022
:102C70000E941B048D2D6E2DDED3682F660F860FEC
:102C8000880F682F6D0D89E695E00E941B0461E0B6
:102C900089E695E00E941B04812F6E2DCCD3682F0E
:102CA000660F680F660F610F89E695E00E941B04AE
:102CB0000E94CF0D0093A804F092CA041092A904B8
:102CC0001092CB0467E089E695E00E941B0460E166
:102CD00089E695E00E941B040E94CF0D46CA8FE151
:102CE0000E944F05892B09F4BACD61E082E20E946F
:102CF000770560E005C060E082E20E94770561E050
:102D000081E20E9477056091CA037091CB038091A4
:102D1000CC039091CD032AE030E040E050E0ABD30B
:102D2000CA01B9010E94E10561E082E20E947705D3
:102D300061E081E20E94770592CDCF931092CF049B
:102D40001092CE0488EE93E0A0E0B0E08093D0042F
:102D50009093D104A093D204B093D30424EA32E038
:102D60003093CD042093CC0425EC30E03093D9048B
:102D70002093D80424EC30E03093DB042093DA0471
:102D800020EC30E03093DD042093DC0421EC30E0D3
:102D90003093DF042093DE0422EC30E03093E10432
:102DA0002093E00426EC30E03093E3042093E20427
:102DB0001092E5041092E6041092E7041092E804E1
:102DC00010926C0510926B0580936D0590936E05C3
:102DD000A0936F05B093700586EB92E090936A051F
:102DE00080936905E7E7F5E01192119285E0E739F4
:102DF000F807D1F7109275051092760560E082E031
:102E00000E94A505E6E5F3E0E491E093A105E0E189
:102E1000F3E0E491F0E0EE0FFF1FEC50FD4F8591E1
:102E200094919093A3058093A2051092AC05109203
:102E3000AE051092AD05ECEAF5E0129285E0E43AB9
:102E4000F807D9F7109297051092980588EE93E04D
:102E5000A0E0B0E080939D0590939E05A0939F0510
:102E6000B093A0050E9468066093990570939A0537
:102E700080939B0590939C0588EC92E09093B0051D
:102E80008093AF0587E090E09093B2058093B10501
:102E900061E00E94A50586E090E09093B4058093E0
:102EA000B30561E00E94A50585E090E09093B6052A
:102EB0008093B50560E00E94A50561E08091B305AF
:102EC0000E94770569E38EEE95E00E94850C65E42B
:102ED00089EE95E00E94850C64E484EE95E00E9402
:102EE000850C63E48FED95E00E94850C62E48AED29
:102EF00095E00E94850C61E485ED95E00E94850CCB
:102F000060E480ED95E00E94850C6FE38BEC95E02A
:102F10000E94850C6EE386EC95E00E94850C6DE3C3
:102F200081EC95E00E94850C6CE38CEB95E00E94AF
:102F3000850C6BE387EB95E00E94850C10922F06C1
:102F400010922E0610922D0610922A0681E0E82F8C
:102F5000F0E0E756FC4FE491823009F4EF5F91E036
:102F6000980FE11102C0892FF2CF80932B06C1E0A8
:102F7000C0932C0680E090E0AAD1682F70E080E03A
:102F800090E090D0609325067093260680932706E4
:102F90009093280610921B06C0931C068AEF90E0BF
:102FA000A0E0B0E08093210690932206A093230630
:102FB000B09324060E94680660931D0670931E0657
:102FC00080931F069093200610921106C09312065C
:102FD00088E893E1A0E0B0E080931706909318068C
:102FE000A0931906B0931A060E9468066093130610
:102FF0007093140680931506909316061092070698
:10300000C093080686E990E0A0E0B0E080930D064A
:1030100090930E06A0930F06B09310060E946806C8
:103020006093090670930A0680930B0690930C0632
:103030001092FD05C093FE0580E29EE4A0E0B0E0A2
:103040008093030690930406A0930506B0930606AA
:103050000E9468066093FF05709300068093010646
:10306000909302061092F305C093F40580E69AEE61
:10307000A0E0B0E08093F9059093FA05A093FB05DA
:10308000B093FC050E9468066093F5057093F60501
:103090008093F7059093F805CF91089540D008F4F8
:1030A00081E00895E89409C097FB3EF490958095DF
:1030B000709561957F4F8F4F9F4F9923A9F0F92FFE
:1030C00096E9BB279395F695879577956795B7957C
:1030D000F111F8CFFAF4BB0F11F460FF1BC06F5F62
:1030E0007F4F8F4F9F4F16C0882311F096E911C074
:1030F000772321F09EE8872F762F05C0662371F095
:1031000096E8862F70E060E02AF09A95660F771FA8
:10311000881FDAF7880F9695879597F90895990F84
:103120000008550FAA0BE0E8FEEF16161706E80791
:10313000F907C0F012161306E407F50798F0621BB2
:10314000730B840B950B39F40A2661F0232B242B87
:10315000252B21F408950A2609F4A140A6958FEFA6
:10316000811D811D08950BD078C069D028F06ED0E4
:1031700018F0952309F05AC05FC01124A2C07ED078
:10318000A0F3959FD1F3950F50E0551F629FF0017A
:10319000729FBB27F00DB11D639FAA27F00DB11DD3
:1031A000AA1F649F6627B00DA11D661F829F22275C
:1031B000B00DA11D621F739FB00DA11D621F839FE3
:1031C000A00D611D221F749F3327A00D611D231FB9
:1031D000849F600D211D822F762F6A2F11249F5707
:1031E00050408AF0E1F088234AF0EE0FFF1FBB1F2A
:1031F000661F771F881F91505040A9F79E3F5105C9
:1032000070F014C05EC05F3FECF3983EDCF386952F
:1032100077956795B795F795E7959F5FC1F7FE2B73
:10322000880F911D9695879597F9089597F99F674F
:1032300080E870E060E008959FEF80EC089500243E
:103240000A941616170618060906089500240A940B
:1032500012161306140605060895092E0394000C91
:1032600011F4882352F0BB0F40F4BF2B11F460FF20
:1032700004C06F5F7F4F8F4F9F4F089557FD905849
:10328000440F551F59F05F3F71F04795880F97FB2A
:10329000991F61F09F3F79F08795089512161306E4
:1032A0001406551FF2CF4695F1DF08C01616170613
:1032B0001806991FF1CF8695710561050894089548
:1032C000E894BB2766277727CB0197F90895F999EA
:1032D000FECF92BD81BDF89A992780B50895262F1B
:1032E000F999FECF1FBA92BD81BD20BD0FB6F894EB
:1032F000FA9AF99A0FBE019608955058BB27AA274B
:103300000ED0ABCF9CDF30F0A1DF20F031F49F3F37
:1033100011F41EF491CF0EF4E095E7FB87CFE92F6F
:10332000ADDF80F3BA17620773078407950718F0BB
:1033300071F49EF5C5CF0EF4E0950B2EBA2FA02D9B
:103340000B01B90190010C01CA01A0011124FF2752
:10335000591B99F0593F50F4503E68F11A16F0404D
:10336000A22F232F342F4427585FF3CF469537954C
:103370002795A795F0405395C9F77EF41F16BA0B11
:10338000620B730B840BBAF09150A1F0FF0FBB1FBF
:10339000661F771F881FC2F70EC0BA0F621F731F08
:1033A000841F48F4879577956795B795F7959E3F65
:1033B00008F0B3CF9395880F08F09927EE0F9795F3
:1033C0008795089504D06894B1117BCF08955EDF8E
:1033D00088F09F5790F0B92F9927B751A0F0D1F0FE
:1033E000660F771F881F991F1AF0BA95C9F712C088
:1033F000B13081F065DFB1E0089562CF672F782F9B
:103400008827B85F39F0B93FCCF3869577956795F3
:10341000B395D9F73EF490958095709561957F4F5F
:103420008F4F9F4F08957BDE08F48FEF089577DE6E
:10343000880B990B0895991B79E004C0991F961782
:1034400008F0961B881F7A95C9F780950895AA1BE6
:10345000BB1B51E107C0AA1FBB1FA617B70710F07F
:10346000A61BB70B881F991F5A95A9F780959095B1
:10347000BC01CD010895A1E21A2EAA1BBB1BFD01C0
:103480000DC0AA1FBB1FEE1FFF1FA217B307E40743
:10349000F50720F0A21BB30BE40BF50B661F771F9B
:1034A000881F991F1A9469F760957095809590957B
:1034B0009B01AC01BD01CF010895EE0FFF1F881FD6
:1034C0008BBF0790F691E02D199481E090E0F8947D
:0634D00000C0F894FFCFDC
:1034D6008E038E038E038E038E038E038E038E035E
:1034E60028180740040000CB284DF7BF040000430E
:1034F60028180740040000CB28200F40040000B91C
:103506002807BB3F040000E828180740040000CB4A
:1035160028180740040000CB28180740040000CBF9
:1035260028180740040000CB28180740040000CBE9
:1035360028FF7561681801AC28FFF6DD671801F5EC
:1035460028FF04606818018328D9EA16A8013C10F0
:1035560028180740040000CB289755C0040000CA6D
:103566003F065B4F666D7D077F6F777C395E7971AD
:10357600000000006E02620F0602BA023702150250
:103586002902000000001B04EF034A04C303E703FB
:10359600D303C40300000000190661065406675FE2
:1035A60074696D6553776974636876616C76655482
:1035B600544B2000206D730A00675F74696D655374
:1035C600776974636876616C76655359532000D0C9
:1035D6009FD180D0B5D0B4D0B0D0B2D0B0D180D049
:1035E600B8D0B9D0BDD18BD0B920D0BFD0B5D1809D
:1035F600D0B5D0B3D180D0B5D0B220D0BAD0BED15C
:1036060082D0BBD0B02121000D0A00D090D0B2D01C
:10361600B0D180D0B8D0B9D0BDD18BD0B920D0BF71
:10362600D0B5D180D0B5D0B3D180D0B5D0B220D06E
:10363600BAD0BED182D0BBD0B02121006E616E005F
:10364600696E66006F7666004A616E20203620320B
:103656003032300031393A33343A35320066756CDF
:103666006C206F70656E696E672074696D65203DAC
:1036760020006D732C20657272436F64203D20001C
:1036860066756C6C20636C6F73696E672074696D08
:0636960065203D2000004C
:00000001FF
