:10000000A9C100000C94740D0C94490D0C941E0DA4
:100010000C94F30C0C94C80C0C949D0C0C94720C66
:100020000C94470CC8C10000C6C10000C4C1000048
:10003000C2C10000C0C10000BEC10000BCC10000C0
:10004000BAC10000B8C10000B6C10000B4C10000D0
:10005000B2C100000C94C30EAEC100000C94FD0BA5
:10006000AAC100000C94C70B0C949D0BA4C1000006
:10007000A2C10000A0C100009EC100009CC1000000
:100080009AC1000098C1000096C1000094C1000010
:1000900092C1000090C100008EC100000C949F0D21
:1000A0008AC1000088C1000086C1000084C1000030
:1000B00082C1000080C100007EC100007CC1000040
:1000C0007AC1000078C1000076C1000074C1000050
:1000D00072C1000070C100006EC100006CC1000060
:1000E0006AC1000000002100240027002A002D0022
:1000F0003000330001010000040107010A01000083
:100100002200250028002B002E00310034000201BF
:100110000000050108010B0100000A0B02090C0D8B
:100120000E080703040100000000000000000000AA
:1001300000000000000000000000000000000000BF
:10014000000000001211100000000000000000007C
:100150000000000000000000000000000000005E41
:10016000BCE2613FDD83C29C7E20A3FD1F41009D58
:1001700023BE46DB65F88C11AF32CA57E9746D6354
:100180000073746F70202874656D7065726174758A
:100190007265436F6E74726F6C535953292000D08F
:1001A0009DD0B0D187D0B0D0BBD0BE20D0BFD18041
:1001B000D0BED186D0B5D0B4D183D180D18B20D15F
:1001C00080D0B5D0B3D183D0BBD0B8D180D0BED091
:1001D000B2D0B0D0BDD0B8D18F2E2043656C65763B
:1001E0006169612074656D706572617475726120FA
:1001F0000073746F70206E61736F732053595300D6
:100200007A617075736B206E61736F7361205359DF
:100210005300D092D18BD0BAD0BBD18ED187D0B57C
:10022000D0BDD0B8D0B520D18DD0BBD0B5D0BAD14B
:1002300082D180D0BED0BAD0BED182D0BBD0B02EB9
:1002400020D092D180D0B5D0BCD18F2000D097D013
:10025000B0D0BFD183D181D0BA20D18DD0BBD0B5A1
:10026000D0BAD182D180D0BED0BAD0BED182D0BBDC
:10027000D0B02E20D092D180D0B5D0BCD18F20006C
:100280000A7374617274202874656D70657261748C
:10029000757265436F6E74726F6C535953290A00FF
:1002A000000020002300260029002C002F0032002F
:1002B0000001000003010601090105050505070508
:1002C00008080808020202020A0A080804040404D2
:1002D00001010101010101010303030303030303FE
:1002E000040707070C0C0C0C0C0C0C0C020202028D
:1002F00006060606060606060B0B0B0B0B0B0B0B76
:100300000102102020080810204010204080020127
:10031000020108040201010204081020408080400C
:10032000201008040201800402018040201008040B
:1003300002010804020101020408102040800102A9
:100340000408102040801F1C1F1E1F1E1F1F1E1F81
:100350001E1F480F11241FBECFEFD1E2DEBFCDBF5D
:1003600000E00CBF13E0A0E0B2E0E0E1F6E300E063
:100370000BBF02C007900D92AC3CB107D9F726E045
:10038000ACECB3E001C01D92AB36B207E1F711E06F
:10039000CAEAD1E000E006C021970109802FFE01E2
:1003A0000E94FE1AC93AD10780E00807A9F70E9407
:1003B0006B110C94061B24CE9B012C5F3F4FFB015D
:1003C0004191BF013197982F9078942B9083880F9B
:1003D00062177307A1F708952091D10481E02132BB
:1003E00008F044C08091AD048111FCCF8091D0040D
:1003F00092E09093AD0491E09093AC049FEF9093C2
:10040000AB041092AA042093A904A0EBB4E0E9E89D
:10041000F4E090E0291331C0109288049091880490
:10042000880F892B8093880480918704813049F557
:1004300010928704809188048093BB008091BC0057
:1004400083FDF8CF85EC8093BC008091AD048230B1
:10045000E1F38091AB048F3FB1F08091AB04803227
:10046000A1F08091AB04803391F084E01092AF044E
:100470001092D1041092AE0408953D9131939F5F84
:10048000C9CF85EEE0CF80E0F1CF82E0EFCF83E00F
:10049000EDCFCF92DF92EF92FF920F931F93CF9306
:1004A000DF9328E030E041E06FEF70E09FE0C92E7D
:1004B000D12CC3E2D0E007ED10E09091D705E09198
:1004C000D805F091D905F92EF094582F542389F1CD
:1004D000F89452815F2152835181592B5183DE015F
:1004E0001197F1F75281952B92837894F801319707
:1004F000F1F7440F2150310901F7F894E091D80544
:10050000F091D90591818091D705809598239183A9
:10051000E091D805F091D90592818923828378945E
:10052000DF91CF911F910F91FF90EF90DF90CF90CF
:100530000895F89452815F2152835181592B518340
:10054000DB011197F1F75281952B92837894F60194
:10055000CECF8091D705E091D805F091D905F894D8
:100560009181282F20959223918378943DE743E051
:1005700050E0315029F1DA011197F1F79081982379
:10058000C1F3F8949281922392839181982B918365
:100590007894ABE7B7E01197F1F7F8949181922343
:1005A0009183A3E1B1E01197F1F79081982381E065
:1005B00009F080E07894E3E6F6E03197F1F70895EA
:1005C00080E00895AF92BF92CF92DF92EF92FF92B8
:1005D0000F931F93CF93DF936C017B018B01040F6B
:1005E000151FEB015E01AE18BF08C017D10759F007
:1005F0006991D601ED91FC910190F081E02DC60149
:100600001995892B79F7C501DF91CF911F910F9132
:10061000FF90EF90DF90CF90BF90AF900895089536
:100620000895FC01538D448D252F30E0842F90E0F8
:10063000821B930B541710F0CF96089501970895DD
:10064000FC01918D828D981761F0A28DAE0FBF2FA6
:10065000B11D5D968C91928D9F5F9F73928F90E0FC
:1006600008958FEF9FEF0895FC01918D828D98176B
:1006700031F0828DE80FF11D858D90E008958FEFA8
:100680009FEF0895FC01918D228D892F90E0805C71
:100690009F4F821B91098F739927089582ED94E0F3
:1006A000F1DF21E0892B09F420E0822F0895FC017D
:1006B000A48DA80FB92FB11DA35ABF4F2C91848DC3
:1006C00090E001968F739927848FA689B7892C9320
:1006D000A089B1898C91837080648C93938D848D73
:1006E000981306C00288F389E02D80818F7D808376
:1006F0000895EF92FF920F931F93CF93DF93EC0136
:1007000081E0888F9B8D8C8D98131AC0E889F989B8
:10071000808185FF15C09FB7F894EE89FF896083BB
:10072000E889F98980818370806480839FBF81E03C
:1007300090E0DF91CF911F910F91FF90EF9008957E
:10074000F62E0B8D10E00F5F1F4F0F731127E02E59
:100750008C8D8E110BC00FB607FCFACFE889F98992
:10076000808185FFF5CFCE01A2DFF2CFEB8DEC0FBC
:10077000FD2FF11DE35AFF4FF0829FB7F8940B8FC6
:10078000EA89FB8980818062D0CF0F931F93CF933A
:10079000DF938C01D0E0C0E0F801EC0FFD1F649105
:1007A000662339F082ED94E0A4DF892B11F02196C5
:1007B000F3CFCE01DF91CF911F910F910895CF9389
:1007C000DF93EC01888D8823B1F0AA89BB89E88981
:1007D000F9898C9185FD03C0808186FD0CC00FB620
:1007E00007FCF7CF8C9185FFF2CF808185FFEDCF9D
:1007F000CE015DDFEACFDF91CF91089580E090E0F8
:10080000892B21F04BDF81110E94000080E090E0F5
:10081000892B49F080E090E0892B29F00E940000AC
:1008200081110E94000080E090E0892B49F080E077
:1008300090E0892B29F00E94000081110E940000A5
:1008400080E090E0892B49F080E090E0892B29F04E
:100850000E94000081110C940000089581508231A3
:1008600008F05AC0E82FF0E08827E65CFB4F8F4F76
:100870000C94FE1A5A045E044C04520456048C0470
:10088000610467046B047104750479047F048304B4
:100890008C0487048D049104809180008F7780936D
:1008A00080000895809180008F7DF9CF8091800035
:1008B000877FF5CF84B58F7784BD089584B58F7D0C
:1008C000FBCF8091B0008F778093B0000895809126
:1008D000B0008F7DF9CF809190008F77809390004A
:1008E0000895809190008F7DF9CF80919000877F4F
:1008F000F5CF8091A0008F778093A000089580911C
:10090000A0008F7DF9CF8091A000877FF5CF8091E7
:1009100020018F77809320010895809120018F7DA1
:10092000F9CF80912001877FF5CFCF93DF93282FD8
:1009300030E0F901E85EFE4F8491F901E050FD4F8F
:10094000D491F901E654FD4FC491CC2399F0811163
:1009500085DFEC2FF0E0EE0FFF1FE056FD4FA59175
:10096000B491EC91ED2381E090E009F480E0DF9117
:10097000CF91089580E090E0FACF1F93CF93DF935B
:10098000282F30E0F901E85EFE4F8491F901E05034
:10099000FD4FD491F901E654FD4FC491CC23A1F051
:1009A000162F81115BDFEC2FF0E0EE0FFF1FE250FE
:1009B000FF4FA591B4918FB7F894EC91111108C035
:1009C000D095DE23DC938FBFDF91CF911F910895E7
:1009D000DE2BF8CFCF93DF9390E0FC01E050FD4F8A
:1009E000249186549D4FFC0184918823C9F090E0A6
:1009F000880F991FFC01EC51FF4FA591B491FC01A8
:100A0000E250FF4FC591D49161110DC09FB7F8948A
:100A10008C91209582238C938881282328839FBFE3
:100A2000DF91CF910895623051F49FB7F8943C91D3
:100A3000822F809583238C93E8812E2BEFCF8FB765
:100A4000F894EC912E2B2C938FBFEACF3FB7F894FC
:100A50008091140490911504A0911604B09117048C
:100A600026B5A89B05C02F3F19F00196A11DB11D09
:100A70003FBFBA2FA92F982F8827BC01CD01620F45
:100A8000711D811D911D42E0660F771F881F991F00
:100A90004A95D1F708958F929F92AF92BF92CF92CD
:100AA000DF92EF92FF926B017C01D0DF4B015C0182
:100AB000C114D104E104F104B1F0C8DF6819790967
:100AC0008A099B09683E73408105910588F321E0FE
:100AD000C21AD108E108F10888EE880E83E0981E5A
:100AE000A11CB11CE5CFFF90EF90DF90CF90BF909D
:100AF000AF909F908F9008952FB7F8946091100455
:100B00007091110480911204909113042FBF0895E5
:100B1000089585ED8093BC008091BC0084FDFCCFDE
:100B20001092AD0408952091EC03260F3327331F54
:100B300021323105ECF42091AD04FC0190E080E01D
:100B4000243069F082E00895A091EC032191AC017A
:100B500044535C4FA40FB52FB11D2C9301968617FB
:100B600098F38091EC03680F6093EC0380E00895A4
:100B700081E008950895E091660480916504E81786
:100B800030F4F0E0E959FB4F808190E008958FEF59
:100B90009FEF089590916604809165042FEF3FEFD9
:100BA000981748F4E92FF0E0E959FB4F208130E035
:100BB0009F5F90936604C9010895809165049091A8
:100BC0006604891B990B0895CF92DF92EF92FF92F2
:100BD0000F931F93CF93DF937C01CB018A01209168
:100BE000AE04222389F0EB016B01C40ED51ECC1597
:100BF000DD0561F06991D701ED91FC910190F081E3
:100C0000E02DC7011995F3CF642F8DDFC801DF9167
:100C1000CF911F910F91FF90EF90DF90CF900895AB
:100C2000CF93DF931F92CDB7DEB769832091AE04D7
:100C30002223F9F02091D104203258F021E030E055
:100C4000FC013383228390E080E00F90DF91CF910D
:100C500008958091AF04E82FF0E0E055FB4F9981B3
:100C600090838F5F8093AF048093D10481E090E004
:100C7000ECCF61E0CE01019656DFF8CFFC01838115
:100C800094818230910538F0880F991F880F991F41
:100C900005970197F1F70895EF92FF920F931F9335
:100CA000CF93DF93EC01062F18E061E0888192DE9C
:100CB000CE01E4DFE02EF12C60E000FF61E08981ED
:100CC00089DECE01DBDF60E0888184DECE01D6DF05
:100CD000F594E7940E2D115041F761E088817ADE9A
:100CE00060E0898177DECE01C9DF60E0888172DE55
:100CF000CE01C4DF898119DE182F811103C061E0A4
:100D0000898168DECE01BADF61E0888163DECE01D1
:100D1000B5DF81E0111101C080E0DF91CF911F911B
:100D20000F91FF90EF900895CF93DF93EC0161E076
:100D3000898150DECE01A2DF60E088814BDECE01EA
:100D40009DDF60E0898146DECE01DF91CF9196CFB5
:100D5000CF93DF93EC0161E089813CDECE01DF912E
:100D6000CF918CCFEF92FF920F931F93CF93DF938E
:100D7000EC017B01EDDF60E4CE018EDFCE01D4DF3C
:100D8000CE01E6DF60ECCE0187DF870184E0E80E6C
:100D9000F11CF80161918F01CE017EDF0E151F0558
:100DA000C1F7CE01C1DFCE01D3DF6A816F70605819
:100DB000CE0172DFCE01DF91CF911F910F91FF9095
:100DC000EF90B2CF8F929F92AF92BF92CF92DF926D
:100DD000EF92FF920F931F93CF93DF9300D01F9258
:100DE000CDB7DEB75C01FA0130E067FF02C0619564
:100DF00031E03097E9F401111BC019821A821B827D
:100E00008FE38C83BE016F5F7F4FC501ABDF0F9017
:100E10000F900F900F90DF91CF911F910F91FF9046
:100E2000EF90DF90CF90BF90AF909F908F900895FC
:100E3000CE0101967C014E0193E0891A9108C62EDD
:100E4000660FDD0810E4CF01B6010E94EA1AAC017A
:100E5000982F81110DC0309759F4011109C0D701A5
:100E600013961C92332379F0F701138330E00BC003
:100E700040575D4FDA018C91D70113968C939111F5
:100E800002C0EF2B79F3FB0181E0E81AF108E814C6
:100E9000F904C9F6222309F4B5CFBE016F5F7F4F75
:100EA000822F8ADAAFCF0F93022F242FAB016AE093
:100EB00089DF0F910895CF93DF9300D01F92CDB7B4
:100EC000DEB719821A821B821C82BE016F5F7F4FC0
:100ED00049DF0F900F900F900F90DF91CF91089501
:100EE000FC01908190539A3008F090E0818180530A
:100EF0002AE0929F800D11240895CF92DF92EF9205
:100F0000FF921F93CF93DF937C01C7E0D0E010E006
:100F1000CC24C394D12C60E0F70182812EDD61E006
:100F200070E080E090E0B7DDF7018681FEDC892B80
:100F300039F0C6010C2E01C0880F0A94EAF7182B6D
:100F400061E0F701828119DD61E070E080E090E00E
:100F5000A2DD219700F7812FDF91CF911F91FF90A4
:100F6000EF90DF90CF9008950F931F93CF93DF936F
:100F70008C0160E0FC01848100DD61E070E080E0D4
:100F800090E089DDC801B9DFC82FD0E0DC2FCC2785
:100F9000C801B3DFC82B61E0F8018481EEDC60E0BA
:100FA00070E080EC9FE7C2FD12C0BE0183E0759542
:100FB00067958A95E1F7072E000C880B990B0E9424
:100FC000F51820E030E040E85EE30E945419DF911C
:100FD000CF911F910F910895C7DF26E636E646EEC2
:100FE0005FE30E94541920E030E040E052E40C94AA
:100FF000411A0895B9DF23E333E948E853E40C9438
:10100000411A089590E080E008950F931F93CF93C5
:10101000DF93EC0171DD0A811B812C813D81601B16
:10102000710B820B930B0E811F8128853985601708
:1010300071078207930750F05FDD6A837B838C839F
:101040009D838981882311F081E088838881DF91E5
:10105000CF911F910F910895CF93DF93EC014CDD59
:101060006A837B838C839D83DF91CF9108950F9357
:101070001F93CF93DF93EC01088110E08C8155DC46
:101080000817190731F01A82DF91CF911F910F9144
:1010900008958A818F5F8A839B818917A8F388814D
:1010A00091E0892788831A82882371F39983ECCF92
:1010B0009091AD049111FCCF282F91E09093AD0455
:1010C0009093AC043FEF3093AB041092AA04380F16
:1010D0003093A9049093880490918804906D909324
:1010E000880490918704913019F5109287049091AB
:1010F00088049093BB009091BC0093FDF8CF95ECD1
:101100009093BC009091AD049130E1F39091AA04CA
:10111000981710F42091AA04A9E8B4E0E7E6F4E0F7
:1011200080E0821307C010926604809365040895DE
:1011300095EEE6CF9D9191938F5FF3CFDF92EF9283
:10114000FF920F931F93CF93DF9300D000D0CDB7C2
:10115000DEB7789481E08093AE0488E68093D00473
:101160001092AF041092D10460E08FE695E058DD54
:1011700033D987E090E09CDF8FE695E00BDD8F7739
:10118000282F30E094E0359527959A95E1F7922F36
:10119000990F990F122F191B110F180F8FE695E059
:1011A000F9DC9C0144E0359527954A95E1F72F70CD
:1011B0003327922F990F990F022F091B000F080F49
:1011C0008FE695E0E7DC9C0154E0359527955A952C
:1011D000E1F72F703327922F990F990FF22EF91AFA
:1011E000FF0CF80E8FE695E0D5DC8FE695E0D2DCBB
:1011F0009C0164E0359527956A95E1F72F703327B8
:10120000922F990F990FE22EE91AEE0CE80E8FE655
:1012100095E0C0DC9C0174E0359527957A95E1F75F
:101220002F703327922F990F990FD22ED91ADD0CD8
:10123000D80E8FE695E0AEDC9C01E4E0359527956D
:10124000EA95E1F72F703327922F990F990F291BF9
:10125000220F820F8983DA82EB82FC820D831E8348
:1012600086E0FE013196A5E6B6E001900D928A95E2
:10127000E1F726960FB6F894DEBF0FBECDBFDF9123
:10128000CF911F910F91FF90EF90DF900895FB0198
:1012900001900020E9F73197AF01461B570BDC01A5
:1012A000ED91FC910280F381E02D19948F929F9231
:1012B000AF92BF92EF92FF920F931F93CF93DF9362
:1012C000CDB7DEB7A1970FB6F894DEBF0FBECDBF86
:1012D0007C01FA01CB0119A2223008F42AE08E0128
:1012E0000F5D1F4F822E912CB12CA12CBF01A501A7
:1012F00094010E941E1AF901CA016A3004F5605D6A
:10130000D8016E938D01232B242B252B79F790E0A8
:1013100080E0109719F0BD01C701B9DFA1960FB6A3
:10132000F894DEBF0FBECDBFDF91CF911F910F911B
:10133000FF90EF90BF90AF909F908F900895695C61
:10134000DFCFCF92DF92EF92FF92CF93DF936B01CB
:101350007C016DE282ED94E0CCD9EC014427552765
:10136000BA014C195D096E097F092AE082ED94E00B
:101370009DDF8C0F9D1FDF91CF91FF90EF90DF904D
:10138000CF9008958F929F92AF92BF92CF92DF92AB
:10139000EF92FF920F931F93CF93DF937C01EB01AA
:1013A0006C0182E0C80ED11C4701E5E08E0E911C55
:1013B00010E000E0F60141916F0150E070E060E064
:1013C0002AE0CE0173DF5C01E881F9810190F081B0
:1013D000E02D6EE2CE0119958A0D9B1D080F191F95
:1013E000C814D90439F7F701458150E070E060E096
:1013F0002AE0CE015BDF800F911FDF91CF911F911B
:101400000F91FF90EF90DF90CF90BF90AF909F90A3
:101410008F9008958F929F92AF92BF92EF92FF921A
:101420000F931F93CF93DF9300D01F92CDB7DEB7FA
:101430007C014A015B01122F20E030E0A901CB01C1
:10144000B4010E94EF1887FF3BC0B7FAB094B7F819
:10145000B094113061F0C501B4010E94AA1A683E2F
:10146000E3E07E0710F067EE73E086EF36C011E030
:101470002DEC3CEC4CE45DE3C501B4010E94411A43
:1014800020E030E040E251E40E9454190E94AA1A80
:10149000AB01111129C0403187E2580710F06FE00D
:1014A00077E24A30510508F453C0AB016AE000E02E
:1014B00020E217C010E0DCCF47EE53E066EFF7CF35
:1014C0001130C1F3C501B4010E94AA1A603127E2AC
:1014D000720710F06FE077E28AE000E020E0AB01F5
:1014E000682FC7016FDC14C0683EF3E07F0720F768
:1014F0006A30710518F761157105C9F48FE38C83A3
:101500001B821A821982BE016F5F7F4FC7012ADCDE
:101510000F900F900F900F90DF91CF911F910F912F
:10152000FF90EF90BF90AF909F908F90089560577D
:101530007D4FFB0180818C838FE38B8380E48A83E2
:101540001982BE016F5F7F4F80E20E94DC01DBCF1A
:10155000452BA1F27727FB01E057FD4F80818C835B
:101560008FE38B831A82ECCF4F925F926F927F92C0
:101570008F929F92AF92BF92EF92FF920F931F9321
:10158000CF93DF9300D000D000D01F92CDB7DEB74D
:10159000A82EB62E842FF22E19821A824D839FE038
:1015A000E92EEC8262E016DA1E821F82FA86E98654
:1015B00062E08F2D0FDAA0DA2B013C0160E08A2D6A
:1015C000DCD961E08B2DD9D9CE01019650DD94DABA
:1015D000641975098609970961317742810591057A
:1015E00008F0A2C08981882379F3F12CE12C61E015
:1015F0008A2DC3D961E08B2DC0D97EDA64197509B3
:1016000086099709F801608371838283938364ED6F
:1016100072E082ED94E03BDEF8014081518162810D
:1016200073812AE082ED94E041DE69EE72E082EDA2
:1016300094E02DDE2AE0A7010F2C000C660B770B3F
:1016400082ED94E033DE67EF72E082ED94E01FDE1E
:1016500053DA2B013C0160E08B2D8FD961E08A2D9C
:101660008CD9CE01069603DD47DA6419750986091F
:101670009709613177428105910508F459C022E04C
:10168000E20EF11C61E08A2D78D961E08B2D75D9CD
:1016900033DA4B015C0184189508A608B7086AEF95
:1016A00072E082ED94E0F3DD2AE0B501A40182ED61
:1016B00094E0FCDD69EE72E082ED94E0E8DD2AE082
:1016C000A7010F2C000C660B770B82ED94E0EEDD8A
:1016D00068EF72E082ED94E0DADDF80180819181BB
:1016E000A281B38188159905AA05BB0510F4D5011F
:1016F000C401F80180839183A283B383C7012A9632
:101700000FB6F894DEBF0FBECDBFDF91CF911F9112
:101710000F91FF90EF90BF90AF909F908F907F9030
:101720006F905F904F900895EE24E394F12C5FCF7B
:101730008E81882309F495CFA5CF1F920F920FB603
:101740000F9211240BB60F922F933F934F935F93F9
:101750006F937F938F939F93AF93BF93EF93FF9379
:1017600082ED94E00E945703FF91EF91BF91AF91FA
:101770009F918F917F916F915F914F913F912F91A9
:101780000F900BBE0F900FBE0F901F9018951F92D9
:101790000F920FB60F9211240BB60F922F938F93C7
:1017A0009F93EF93FF93E091E204F091E304808133
:1017B000E091E804F091E90482FD1DC090818091E0
:1017C000EB048F5F8F732091EC04821741F0E0915E
:1017D000EB04F0E0EE52FB4F958F8093EB04FF910A
:1017E000EF919F918F912F910F900BBE0F900FBE95
:1017F0000F901F9018958081F2CF1F920F920FB615
:101800000F9211242F933F938F939F93AF93BF9386
:101810008091100490911104A0911204B0911304CE
:1018200030910F0423E0230F2D3758F50196A11DA9
:10183000B11D20930F048093100490931104A09382
:101840001204B09313048091140490911504A09194
:101850001604B09117040196A11DB11D80931404C4
:1018600090931504A0931604B0931704BF91AF9101
:101870009F918F913F912F910F900FBE0F901F90CE
:10188000189526E8230F0296A11DB11DD2CF1F92F5
:101890000F920FB60F9211240BB60F922F933F9316
:1018A0004F935F936F937F938F939F93AF93BF9368
:1018B000EF93FF93E0910E02F0910F021995FF91C3
:1018C000EF91BF91AF919F918F917F916F915F91B8
:1018D0004F913F912F910F900BBE0F900FBE0F9025
:1018E0001F9018951F920F920FB60F9211240BB6EE
:1018F0000F922F933F934F935F936F937F938F93A9
:101900009F93AF93BF93EF93FF93E0910C02F091FD
:101910000D021995FF91EF91BF91AF919F918F911A
:101920007F916F915F914F913F912F910F900BBEDF
:101930000F900FBE0F901F9018951F920F920FB629
:101940000F9211240BB60F922F933F934F935F93F7
:101950006F937F938F939F93AF93BF93EF93FF9377
:10196000E0910202F09103021995FF91EF91BF916E
:10197000AF919F918F917F916F915F914F913F9127
:101980002F910F900BBE0F900FBE0F901F901895C8
:101990001F920F920FB60F9211240BB60F922F9336
:1019A0003F934F935F936F937F938F939F93AF93E7
:1019B000BF93EF93FF93E0910002F091010219951C
:1019C000FF91EF91BF91AF919F918F917F916F9117
:1019D0005F914F913F912F910F900BBE0F900FBED3
:1019E0000F901F9018951F920F920FB60F9211240F
:1019F0000BB60F922F933F934F935F936F937F9309
:101A00008F939F93AF93BF93EF93FF93E0910A025D
:101A1000F0910B021995FF91EF91BF91AF919F91BA
:101A20008F917F916F915F914F913F912F910F9087
:101A30000BBE0F900FBE0F901F9018951F920F9224
:101A40000FB60F9211240BB60F922F933F934F9323
:101A50005F936F937F938F939F93AF93BF93EF9316
:101A6000FF93E0910802F09109021995FF91EF911F
:101A7000BF91AF919F918F917F916F915F914F91A6
:101A80003F912F910F900BBE0F900FBE0F901F90A4
:101A900018951F920F920FB60F9211240BB60F924A
:101AA0002F933F934F935F936F937F938F939F9366
:101AB000AF93BF93EF93FF93E0910602F09107027B
:101AC0001995FF91EF91BF91AF919F918F917F9168
:101AD0006F915F914F913F912F910F900BBE0F909F
:101AE0000FBE0F901F9018951F920F920FB60F9276
:101AF00011240BB60F922F933F934F935F936F93E5
:101B00007F938F939F93AF93BF93EF93FF93E09156
:101B10000402F09105021995FF91EF91BF91AF91E9
:101B20009F918F917F916F915F914F913F912F91F5
:101B30000F900BBE0F900FBE0F901F9018951F9225
:101B40000F920FB60F9211240BB60F922F933F9363
:101B50004F935F936F937F938F939F93AF93BF93B5
:101B6000EF93FF938091B900887F803609F44DC0D0
:101B700008F040C0883209F4A9C028F5803109F482
:101B80009DC0C8F4882309F4FBC0883009F496C0CE
:101B9000FF91EF91BF91AF919F918F917F916F9145
:101BA0005F914F913F912F910F900BBE0F900FBE01
:101BB0000F901F901895883109F488C0803241F742
:101BC0008093AB0414C0803409F49DC040F480338A
:101BD000B9F38833E9F68093AB0485ECB0C0803567
:101BE00009F485C0883509F496C0883489F60E94C6
:101BF0008905CECF883909F48CC038F5883729F0AB
:101C000050F4883611F0803719F683E08093AD04E4
:101C100010920E0457C0883809F47BC0803919F03F
:101C2000803809F0B5CF80910E04803208F071C081
:101C3000E0910E0481E08E0F80930E048091BB0032
:101C4000F0E0E251FC4F80833DC0803B39F0E0F48E
:101C5000803A09F479C0883A09F09ACF84E08093F9
:101C6000AD041092ED031092EC03E0911A04F09190
:101C70001B0419958091EC0381110FC081E08093C2
:101C8000EC031092CC0309C0803C09F4A6CF883C39
:101C900009F4A3CF883B09F07BCFE091ED0381E00D
:101CA0008E0F8093ED03F0E0E453FC4F808180932E
:101CB000BB009091ED038091EC0329C080918804D2
:101CC0008093BB0085EC8093BC0062CF9091AA0406
:101CD0008091A904981758F5E091AA0481E08E0F2D
:101CE0008093AA04F0E0E757FB4F8081E9CFE091B1
:101CF000AA0481E08E0F8093AA048091BB00F0E0DB
:101D0000E757FB4F80839091AA048091A90498170C
:101D1000C8F285E8D8CFE091AA0481E08E0F8093C5
:101D2000AA048091BB00F0E0E757FB4F80838091CD
:101D3000AC0481115CCF81E08093870484EA8093B6
:101D4000BC001092AD0424CF85EC8093BC001092AF
:101D5000AD0480910E04803230F4E0910E04F0E086
:101D6000E251FC4F108260910E0470E0E091180483
:101D7000F09119048EEE93E0199510920E0408CF9D
:101D80001092AB0434CF1F920F920FB60F92112412
:101D90000BB60F921F932F933F934F935F936F93C5
:101DA0007F938F939F93AF93BF93CF93DF93EF93E3
:101DB000FF938FEF86BD8091AB058823B9F1CDEA03
:101DC000D5E0A991B991109769F11FB7F8948C915A
:101DD000882339F11996ED91FC911A97309709F102
:101DE00011964D915D916D917C91149741505109DF
:101DF0006109710911964D935D936D937C931497CE
:101E0000452B462B472B69F415964D915D916D91AD
:101E10007C91189711964D935D936D937C931497D5
:101E200019951FBF85E0CD3CD80759F6FF91EF917A
:101E3000DF91CF91BF91AF919F918F917F916F91E2
:101E40005F914F913F912F911F910F900BBE0F907B
:101E50000FBE0F901F901895CF93DF93EC018AE38C
:101E60008883698384E690E09C838B8360E08AE3C7
:101E70000E94EA0460E089810E94EA0460E08881AF
:101E80000E94BD0460E08981DF91CF910C94BD0474
:101E9000CF931092D5041092D40488EE93E0A0E082
:101EA000B0E08093D6049093D704A093D804B09365
:101EB000D90424EA32E03093D3042093D20425ECF1
:101EC00030E03093DF042093DE0424EC30E03093E4
:101ED000E1042093E00420EC30E03093E30420930D
:101EE000E20421EC30E03093E5042093E40422EC9A
:101EF00030E03093E7042093E60426EC30E03093A2
:101F0000E9042093E8041092EB041092EC04109280
:101F1000ED041092EE0410927205109271058093F8
:101F2000730590937405A0937505B093760586EBC1
:101F300092E09093700580936F0588EC92E0909307
:101F40007C0580937B0510927D0510927E05109292
:101F50007F051092800590938205809381051092F1
:101F60008305109284051092850510928605909342
:101F70008805809387051092890510928A05109232
:101F80008B0510928C0590938E0580938D05109291
:101F90008F051092900510929105109292059093E2
:101FA0009A058093990510929B0510929C051092BA
:101FB0009D0510929E059093940580939305109231
:101FC000950510929605109297051092980590939A
:101FD000A00580939F051092A1051092A205109272
:101FE000A3051092A4059093A6058093A5051092D1
:101FF000A7051092A8051092A9051092AA05EDEA6E
:10200000F5E01192119225E0ED3CF207D1F7109224
:10201000AB051092AC0560E082E00E94EA04E2E0C9
:10202000F3E0E491E093D705ECEBF2E0E491F0E02B
:10203000EE0FFF1FE056FD4F859194919093D905C7
:102040008093D8051092E2051092E4051092E30502
:102050001092E1051092E0051092DF051092DE0566
:102060001092DD051092DC051092DB051092DA0566
:102070001092CD051092CE0588EE93E0A0E0B0E07E
:102080008093D3059093D405A093D505B093D6053E
:102090000E947C056093CF057093D0058093D10595
:1020A0009093D20588EC92E09093E6058093E50545
:1020B0001092E7051092E8051092E9051092EA05E2
:1020C0008EEC92E09093EC058093EB0587E090E036
:1020D0009093EE058093ED0561E00E94EA0486E0AE
:1020E00090E09093F0058093EF0561E00E94EA0490
:1020F00085E090E09093F2058093F10560E00E9406
:10210000EA0461E08091EF050E94BD0469E38AE280
:1021100096E0A2DE65E485E296E09EDE64E480E27D
:1021200096E09ADE63E48BE196E096DE62E486E177
:1021300096E092DE61E481E196E08EDE60E48CE080
:1021400096E08ADE6FE387E096E086DE6EE382E06B
:1021500096E082DE6DE38DEF95E07EDE6CE388EF46
:1021600095E07ADE6BE383EF95E076DE10926A0607
:1021700010926906109268061092650681E0282F79
:102180002150330BF901EA5BFC4FE491823009F4F2
:10219000EF5F91E0980FEE2309F49BC080936606F1
:1021A000C1E0C093670690E080E00E94081A682FA3
:1021B00070E090E080E00E94F318609361067093F5
:1021C0006206809363069093640610925706C0934C
:1021D00058068AEF90E0A0E0B0E080935D0690930F
:1021E0005E06A0935F06B09360060E947C05609334
:1021F000590670935A0680935B0690935C06109282
:102200004D06C0934E0688E893E1A0E0B0E08093CD
:10221000530690935406A0935506B09356060E9419
:102220007C0560934F0670935006809351069093FF
:10223000520610924306C093440686E990E0A0E05F
:10224000B0E08093490690934A06A0934B06B09362
:102250004C060E947C056093450670934606809369
:1022600047069093480610923906C0933A0680E2DA
:102270009EE4A0E0B0E080933F0690934006A093D8
:102280004106B09342060E947C0560933B06709322
:102290003C0680933D0690933E0610922F06C09315
:1022A000300680E69AEEA0E0B0E080933506909389
:1022B0003606A0933706B09338060E947C056093DB
:1022C0003106709332068093330690933406CF9193
:1022D0000895892F54CFCF93DF93CDB7DEB72D97D5
:1022E0000FB6F894DEBF0FBECDBF789484B5826080
:1022F00084BD84B5816084BD85B5826085BD85B5AA
:10230000816085BD80916E00816080936E00109227
:1023100081008091810082608093810080918100A2
:102320008160809381008091800081608093800033
:102330008091B10084608093B1008091B000816091
:102340008093B00080919100826080939100809191
:1023500091008160809391008091900081608093D2
:1023600090008091A10082608093A1008091A100E3
:1023700081608093A1008091A00081608093A00083
:1023800080912101826080932101809121018160EF
:1023900080932101809120018160809320018091B0
:1023A0007A00846080937A0080917A0082608093C2
:1023B0007A0080917A00816080937A0080917A001F
:1023C000806880937A001092C1000E947C05E091A1
:1023D000E204F091E30482E08083E091DE04F09176
:1023E000DF041082E091E004F091E10480E1808359
:1023F0001092EA04E091E604F091E70486E080831D
:10240000E091E404F091E504808180618083E091B3
:10241000E404F091E504808188608083E091E40425
:10242000F091E504808180688083E091E404F0917C
:10243000E50480818F7D808361E08DE00E94EA0465
:1024400061E08CE10E94EA0461E08CE10E94BD043D
:1024500061E08DE10E94EA0461E08DE10E94BD042B
:1024600061E08EE10E94EA0461E08EE10E94BD0419
:1024700061E084E30E94EA0461E084E30E94BD0419
:1024800061E085E30E94EA0461E085E30E94BD0407
:1024900010926604109265041092AF041092D10459
:1024A0001092AD0411E01093AC041092870461E027
:1024B00084E10E94BD0461E085E10E94BD04809139
:1024C000B9008E7F8093B9008091B9008D7F809391
:1024D000B90088E48093B80085E48093BC008FE065
:1024E00093E090931B0480931A0480E193E090930F
:1024F0001904809318041093AE0488E68093D004E6
:102500001092AF041092D10460E08FE695E00E9433
:1025100010060E94EC0181E090E00E9458088FE6CE
:1025200095E00E94CA0587FF83C088E193E00E947E
:102530007007082F83E193E00E947007E82E8BE17B
:1025400093E00E947007D82E8EE193E00E947007FE
:10255000C82E81E293E00E947007B82E1093AE045B
:102560001092AF041092D10460E08FE695E00E94D3
:1025700010064AE0F42E8B2D6F2D0E94DE1A682F74
:10258000660F680F660F6B0D8FE695E00E941006D0
:102590008C2D6F2D0E94DE1A682F660F680F660F54
:1025A0006C0D8FE695E00E9410068D2D6F2D0E9418
:1025B000DE1A682F660F680F660F6D0D8FE695E0C7
:1025C0000E94100660E08FE695E00E9410068E2DB6
:1025D0006F2DF4D7682F660F680F660F6E0D8FE6AC
:1025E00095E00E94100663E08FE695E00E941006D9
:1025F000802F6F2DE3D7682F660F680F660F600F6F
:102600008FE695E00E9410060E94EC011093AE0444
:102610001092AF041092D10467E08FE695E00E941B
:10262000100660E18FE695E00E9410060E94EC0122
:1026300062E083E00E94EA048EE998E0909303024E
:102640008093020280916A00837F886080936A0091
:10265000ED9A8AE296E00E945B0785E296E00E948E
:102660005B0780E296E00E945B078BE196E00E94A8
:102670005B0786E196E00E945B0781E196E00E949D
:102680005B078CE096E00E945B0787E096E00E9483
:102690005B0782E096E00E945B078DEF95E00E9469
:1026A0005B0788EF95E00E945B0783EF95E00E944F
:1026B0005B079FE090932C068CE080932706809325
:1026C000220680931D06809318068093130680933C
:1026D0000E0624E020930906809304069093FF05DC
:1026E00089E08093FA058AE08093F50520E040EFC9
:1026F00068EB72E285E296E00E94530720E040EF2B
:1027000068EB72E280E296E00E94530720E040EF1F
:1027100068EB72E28BE196E00E94530720E040EF05
:1027200068EB72E286E196E00E94530720E040EFFA
:1027300068EB72E281E196E00E94530720E040EFEF
:1027400068EB72E28CE096E00E94530720E040EFD5
:1027500068EB72E287E096E00E94530720E040EFCA
:1027600068EB72E282E096E00E94530720E040EFBF
:1027700068EB72E28DEF95E00E94530720E040EF96
:1027800068EB72E288EF95E00E94530720E040EF8B
:1027900068EB72E283EF95E00E94530761E081E20B
:1027A0000E94EA0461E081E20E94BD0461E082E2ED
:1027B0000E94EA0461E082E20E94BD0462E08FE1CF
:1027C0000E94EA0462E080E20E94EA0461E083E29F
:1027D0000E94EA0461E083E20E94BD0461E084E2B9
:1027E0000E94EA0461E084E20E94BD0462E085E2A6
:1027F0000E94EA0462E086E20E94EA040CE114E02E
:1028000020E24FE162E281E20E94B40A64E273E0F6
:1028100082ED94E00E94470940911C0450911D04F0
:1028200060911E0470911F042AE082ED94E00E94E2
:1028300056096AE373E082ED94E00E94470900E2E2
:1028400014E026E245E264E283E20E94B40A6FE308
:1028500073E082ED94E00E9447094091200450917A
:10286000210460912204709123042AE082ED94E017
:102870000E9456096BE373E082ED94E00E944709E1
:102880001E010AE0200E311C0E947C0587E596E0BF
:102890000E9405088823D1F080916A0640E480FFF9
:1028A00040E0809168066091690670E014E6819FBF
:1028B000600D711D112421E08AE296E00E94530709
:1028C0001092570687E596E00E942C088DE496E06A
:1028D0000E9405088823A9F00E947C058DEC95E0F4
:1028E0000E9405088091CE05811102C10E94A902B3
:1028F0008CEC0E94490284E40E94490281E08093AA
:10290000CE0583E496E00E940508882309F4B7C148
:10291000409130045091310460913204709133043D
:1029200021E085E296E00E940A0A40914C04509111
:102930004D0460914E0470914F0421E080E296E0D6
:102940000E940A0A409124045091250460912604B3
:102950007091270421E08BE196E00E940A0A4091E1
:10296000340450913504609136047091370421E0AD
:1029700086E196E00E940A0A409150045091510469
:10298000609152047091530421E081E196E00E942D
:102990000A0A409128045091290460912A047091F8
:1029A0002B0421E08CE096E00E940A0A40915C042E
:1029B00050915D0460915E0470915F0421E087E0B6
:1029C00096E00E940A0A409160045091610460916F
:1029D00062047091630421E082E096E00E940A0A9A
:1029E00040916106509162066091630670916406A1
:1029F00020E08DEF95E00E940A0A40915404509126
:102A00005504609156047091570421E088EF95E0D9
:102A10000E940A0A409158045091590460915A0446
:102A200070915B0421E083EF95E00E940A0A19820D
:102A30001A828CE08D8381E08C8362E08CE00E94BE
:102A4000EA04CE0101960E943708CE0101960E9449
:102A5000370869818DE00E94BD048981882309F4CB
:102A600008C161E08DE00E94BD0420E030E040E854
:102A70005FE36091610670916206809163069091B8
:102A80006406FFD46B017C0120E030E040ED51E4AE
:102A90008DD518160CF4E0C0C0926106D092620683
:102AA000E0926306F09264064091610650916206DE
:102AB000609163067091640620E08DEF95E00E94BE
:102AC0000A0A60E273E080E090E00E944B05CE01CC
:102AD00001960E94370860916106709162068091AC
:102AE00063069091640636D590E080E099D4B5CF26
:102AF0008091CD05882309F404CF1092CE05109261
:102B0000CD0588E1E82E82E0F82E90E1A92E92E032
:102B1000B92E24E2622E24E0722E30ED932E08E0CE
:102B200010E00E94A90285E50E9449026501D601D4
:102B30008D916D010E944902EC14FD04C1F78EEBEA
:102B40000E944902FE0131962F01CF0128E030E0BA
:102B500070E0DD24D3946091D705E091D805F09121
:102B6000D905F8944181462B41834281C62EC094F9
:102B70004C21428347E050E0DA011197F1F741819F
:102B80004C21418343E250E0DA011197F1F7408193
:102B90007894EFECF0E03197F1F7642309F07D29A8
:102BA000DD0C21503109B9F6FC017193CF012E16CD
:102BB0003F0661F629E0E0E0215099F0D2018D91C5
:102BC0002D018E27E82FEF70F0E0E25AFE4F94912E
:102BD00082958F70E82FF0E0E259FE4FE491E927EB
:102BE000EBCF89858E1739F00150110909F099CF83
:102BF000B9EFBA83998269817A818D81807621F5D6
:102C0000687F072E000C880B990BEFD220E030E094
:102C100040E85DE349D3F30161937193819391930C
:102C20003F01F8E0EF0EF11C08E0A00EB11C14E625
:102C3000611614E0710609F072CF10924D068DE412
:102C400096E00E942C085DCE803211F46C7FD9CFC3
:102C50008034B9F66E7FD5CF80E090E0A8E8B1E48B
:102C60008093610690936206A0936306B093640616
:102C70001BCF1092430683E496E00E942C0889E360
:102C800096E00E940508882309F46CC00E947C0528
:102C90008BEE95E00E94B407C0903004D0903104D0
:102CA000E0903204F090330480916404811112C0EA
:102CB00020E030E040E85FE36091500470915104FF
:102CC0008091520490915304DCD3A701960187D2DE
:102CD00061E087FD60E08DE10E94BD04C701B6019F
:102CE00034D4673471050CF482C065E573E082ED7D
:102CF00094E00E94470967EF72E082ED94E00E9441
:102D000047096091300470913104809132049091B0
:102D100033041BD4613571059CF06EE873E082EDDD
:102D200094E00E94470967EF72E082ED94E00E9410
:102D3000470960E08CE10E94BD0481E08093640457
:102D400060E082E20E94BD0461E081E20E94BD0475
:102D500060E08DE10E94BD041092390689E396E09F
:102D60000E942C088FE296E00E940508882309F44F
:102D700028C180E892E00E94C50367EF72E082ED0F
:102D800094E00E9447090E947C056A877B878C87B4
:102D90009D8780916806853009F071C08DE492E0CE
:102DA0000E94C5034091680650E070E060E02AE0B0
:102DB00082ED94E00E94560967EF72E082ED94E0A4
:102DC0000E94470960E08EE10E94BD0461E084E258
:102DD0000E94BD0460E083E20E94BD0460E085E3E0
:102DE0000E94BD0460E084E30E94BD04C5C010924F
:102DF000640461E08CE10E94BD0460913404709130
:102E0000350480913604909137049FD36F33710558
:102E100034F180E20E949504892B09F49DCF60E093
:102E200082E20E94BD0461E081E20E94BD046091E3
:102E30001C0470911D0480911E0490911F042AE0CF
:102E400030E040E050E0FAD2CA01B9010E944B05DF
:102E500061E082E20E94BD0461E081E27BCF6A33DF
:102E600071050CF079CF8FE10E949504892B09F44C
:102E700073CF61E082E20E94BD0460E0D5CF82E1C1
:102E800092E00E94C5034091680650E070E060E067
:102E90002AE082ED94E00E94560967EF72E082ED2D
:102EA00094E00E94470961E085E30E94BD0460EA66
:102EB0007FE080E090E00E944B0561E084E30E94A7
:102EC000BD0461E084E20E94BD0461E083E20E94EF
:102ED000BD0480916404811114C020915404309188
:102EE0005504409156045091570460914C047091E0
:102EF0004D0480914E0490914F0458D318160CF055
:102F000033C080E092E00E94C50360E08EE10E9441
:102F1000BD04C0906106D0906206E0906306F09018
:102F20006406E0916806E83108F057C0F0E08827B1
:102F3000E456F84E8F4F62C3E417E417E417E41722
:102F400059185E185E185E185918591859185918EA
:102F500059185918591859185E18ED17ED17ED172B
:102F6000ED17ED175E185E1861E08EE10E94BD045A
:102F700081EF91E00E94C50310922F068FE296E048
:102F80000E942C0881E891E00E94C5030E947C0504
:102F9000AB01BC010A851B852C853D85401B510B6F
:102FA000620B730B2AE082ED94E00E9456098EE7D3
:102FB00091E00E94C50367EF72E082ED94E00E9409
:102FC00047090E94FE0360CC2CEB34E743E55FE346
:102FD000C701B60169D16B017C018FE991E00E94C4
:102FE000C503A7019601C701B601E4D26FEB73E0F8
:102FF000811119C046015701E894B7F82FEF3FEF50
:103000004FE75FE7C501B401D5D281115CC02FEF56
:103010003FEF4FE75FE7C501B401E1D018160CF0B0
:1030200052C063EC73E082ED94E00E94470967EFC1
:1030300072E082ED94E00E944709809054049090E1
:103040005504A0905604B09057042AE939E949E99B
:103050005EE3C701B60114D29B01AC01C501B40106
:10306000BED087FFA1C086E20E949504892B09F497
:103070009BC060E084E20E94BD0461E083E20E94A4
:10308000BD046091200470912104809122049091EC
:1030900023042AE030E040E050E0D0D1CA01B90179
:1030A0000E944B0561E084E20E94BD0461E083E27E
:1030B0009BCE2EE53AEB49E65FE38ACF2AE63CEB6E
:1030C00044E75FE385CF2FEF3FEF4FE75FE4C701B2
:1030D000B6016CD218161CF467EC73E0A4CF2FEF86
:1030E0003FEF4FE75FECC701B60179D087FDF4CF22
:1030F00020E030E0A901C701B60171D087FF51C0BF
:103100006DE282ED94E00E947903C701B601905808
:103110002AE037ED43EA5BE3B4D12B013C011AD23C
:103120004B015C0160D09B01AC01C301B201A8D18D
:103130002B013C012AE0B501A40182ED94E00E943C
:1031400056096EE282ED94E00E94790320E030E0BF
:1031500040E251E4C301B201A7D02B013C01FAD1F6
:103160004B01B12CA12C2AE0B501A40182ED94E021
:103170000E945609C501B40136D09B01AC01C301C0
:10318000B2017ED120E030E040E251E48DD0E2D1C6
:10319000AB0170E060E02AE082ED94E00E94560905
:1031A00046CFC701B601B4CF2AE939E949E95EE360
:1031B000C701B60166D19B01AC01C501B401F6D1CE
:1031C00018160CF0D9CE85E20E949504892B09F4DB
:1031D000D3CE61E084E20E94BD0460E04FCF40D0D6
:1031E00008F481E00895E89409C097FB3EF49095B7
:1031F0008095709561957F4F8F4F9F4F9923A9F0D0
:10320000F92F96E9BB279395F6958795779567955E
:10321000B795F111F8CFFAF4BB0F11F460FF1BC0A2
:103220006F5F7F4F8F4F9F4F16C0882311F096E935
:1032300011C0772321F09EE8872F762F05C06623E3
:1032400071F096E8862F70E060E02AF09A95660F9C
:10325000771F881FDAF7880F9695879597F9089555
:10326000990F0008550FAA0BE0E8FEEF1616170697
:10327000E807F907C0F012161306E407F50798F0FF
:10328000621B730B840B950B39F40A2661F0232B18
:10329000242B252B21F408950A2609F4A140A69594
:1032A0008FEF811D811D08950BD078C069D028F063
:1032B0006ED018F0952309F05AC05FC01124A2C047
:1032C0007ED0A0F3959FD1F3950F50E0551F629FDC
:1032D000F001729FBB27F00DB11D639FAA27F00D6F
:1032E000B11DAA1F649F6627B00DA11D661F829F96
:1032F0002227B00DA11D621F739FB00DA11D621F7B
:10330000839FA00D611D221F749F3327A00D611D97
:10331000231F849F600D211D822F762F6A2F112479
:103320009F5750408AF0E1F088234AF0EE0FFF1FCC
:10333000BB1F661F771F881F91505040A9F79E3F03
:10334000510570F014C05EC05F3FECF3983EDCF3B3
:10335000869577956795B795F795E7959F5FC1F740
:10336000FE2B880F911D9695879597F9089597F9EB
:103370009F6780E870E060E008959FEF80EC08951B
:1033800000240A9416161706180609060895002444
:103390000A9412161306140605060895092E0394BE
:1033A000000C11F4882352F0BB0F40F4BF2B11F432
:1033B00060FF04C06F5F7F4F8F4F9F4F089557FD91
:1033C0009058440F551F59F05F3F71F04795880F93
:1033D00097FB991F61F09F3F79F08795089512162A
:1033E00013061406551FF2CF4695F1DF08C01616D6
:1033F00017061806991FF1CF869571056105089487
:103400000895E894BB2766277727CB0197F908959D
:10341000F999FECF92BD81BDF89A992780B508959C
:10342000262FF999FECF1FBA92BD81BD20BD0FB6E0
:10343000F894FA9AF99A0FBE01960895A1E21A2E0D
:10344000AA1BBB1BFD010DC0AA1FBB1FEE1FFF1F48
:10345000A217B307E407F50720F0A21BB30BE40B98
:10346000F50B661F771F881F991F1A9469F76095DF
:103470007095809590959B01AC01BD01CF01089599
:103480005058BB27AA270ED089CF7ADF30F07FDFD4
:1034900020F031F49F3F11F41EF46FCF0EF4E0954D
:1034A000E7FB65CFE92F8BDF80F3BA17620773075D
:1034B0008407950718F071F49EF5A3CF0EF4E095FC
:1034C0000B2EBA2FA02D0B01B90190010C01CA01DE
:1034D000A0011124FF27591B99F0593F50F4503E89
:1034E00068F11A16F040A22F232F342F4427585F7B
:1034F000F3CF469537952795A795F0405395C9F793
:103500007EF41F16BA0B620B730B840BBAF091504A
:10351000A1F0FF0FBB1F661F771F881FC2F70EC0E9
:10352000BA0F621F731F841F48F4879577956795BC
:10353000B795F7959E3F08F0B3CF9395880F08F0A5
:103540009927EE0F97958795089504D06894B11147
:1035500059CF08953CDF88F09F5790F0B92F9927F5
:10356000B751A0F0D1F0660F771F881F991F1AF08E
:10357000BA95C9F712C0B13081F043DFB1E00895C8
:1035800040CF672F782F8827B85F39F0B93FCCF349
:10359000869577956795B395D9F73EF49095809584
:1035A000709561957F4F8F4F9F4F089559DE08F4B6
:1035B0008FEF089555DE880B990B0895991B79E0DC
:1035C00004C0991F961708F0961B881F7A95C9F7B3
:1035D00080950895AA1BBB1B51E107C0AA1FBB1F02
:1035E000A617B70710F0A61BB70B881F991F5A958F
:1035F000A9F780959095BC01CD010895EE0FFF1FAE
:10360000881F8BBF0790F691E02D1994F894FFCF97
:103610008805880588058805880588058805880542
:1036200028180740040000CB284DF7BF04000043D2
:1036300028180740040000CB28200F40040000B9E0
:103640002807BB3F040000E828180740040000CB0F
:1036500028180740040000CB28180740040000CBBE
:1036600028180740040000CB28180740040000CBAE
:1036700028FF7561681801AC28FFF6DD671801F5B1
:1036800028FF04606818018328D9EA16A8013C10B5
:1036900028180740040000CB289755C0040000CA32
:1036A0003F065B4F666D7D077F6F777C395E797172
:1036B000000000007903E2021103DF03420320034C
:1036C0003403000000001006E4050208BA05DD0519
:1036D000CA05BB0500000000C20900000000B407D5
:1036E000FA07EC0766756C6C206F70656E696E6723
:1036F0002074696D65203D20006D732C2065727209
:10370000436F64203D20000D0A0066756C6C2063D9
:103710006C6F73696E672074696D65203D20004D84
:10372000617220203420323032300032333A32326B
:103730003A303100675F74696D6553776974636807
:1037400076616C766554544B2000206D730A0067D7
:103750005F74696D6553776974636876616C7665CB
:103760005359532000D09FD180D0B5D0B4D0B0D021
:10377000B2D0B0D180D0B8D0B9D0BDD18BD0B92023
:10378000D0BFD0B5D180D0B5D0B3D180D0B5D0B274
:1037900020D0BAD0BED182D0BBD0B0212100D090F1
:1037A000D0B2D0B0D180D0B8D0B9D0BDD18BD0B943
:1037B00020D0BFD0B5D180D0B5D0B3D180D0B5D0D6
:1037C000B220D0BAD0BED182D0BBD0B02121006E01
:0C37D000616E00696E66006F7666000096
:020000023000CC
:10E000000D9489F10D94B2F10D94B2F10D94B2F129
:10E010000D94B2F10D94B2F10D94B2F10D94B2F1F0
:10E020000D94B2F10D94B2F10D94B2F10D94B2F1E0
:10E030000D94B2F10D94B2F10D94B2F10D94B2F1D0
:10E040000D94B2F10D94B2F10D94B2F10D94B2F1C0
:10E050000D94B2F10D94B2F10D94B2F10D94B2F1B0
:10E060000D94B2F10D94B2F10D94B2F10D94B2F1A0
:10E070000D94B2F10D94B2F10D94B2F10D94B2F190
:10E080000D94B2F10D94B2F10D94B2F10D94B2F180
:10E090000D94B2F10D94B2F10D94B2F10D94B2F170
:10E0A0000D94B2F10D94B2F10D94B2F10D94B2F160
:10E0B0000D94B2F10D94B2F10D94B2F10D94B2F150
:10E0C0000D94B2F10D94B2F10D94B2F10D94B2F140
:10E0D0000D94B2F10D94B2F10D94B2F10D94B2F130
:10E0E0000D94B2F141546D656761323536300041AF
:10E0F000726475696E6F206578706C6F72657220DE
:10E1000073746B3530305632206279204D4C530099
:10E11000426F6F746C6F616465723E004875683F52
:10E1200000436F6D70696C6564206F6E203D200048
:10E130004350552054797065202020203D20005FF9
:10E140005F4156525F415243485F5F3D2000415658
:10E1500052204C696243205665723D20004743437C
:10E160002056657273696F6E203D20004350552024
:10E1700049442020202020203D20004C6F7720663D
:10E18000757365202020203D20004869676820665F
:10E190007573652020203D200045787420667573D6
:10E1A00065202020203D20004C6F636B2066757336
:10E1B000652020203D20004D617220203720323024
:10E1C000313300312E362E3800342E332E350056A2
:10E1D00023202020414444522020206F7020636F70
:10E1E00064652020202020696E73747275637469E1
:10E1F0006F6E2061646472202020496E74657272B3
:10E20000757074006E6F20766563746F7200726A49
:10E210006D702020006A6D70200057686174207056
:10E220006F72743A00506F7274206E6F7420737541
:10E2300070706F72746564004D7573742062652030
:10E2400061206C6574746572002000577269747483
:10E25000696E672045450052656164696E672045B7
:10E26000450045452065727220636E743D00504F35
:10E27000525400303D5A65726F2061646472003FF1
:10E280003D43505520737461747300403D454550C3
:10E29000524F4D207465737400423D426C696E6B41
:10E2A000204C454400453D44756D70204545505215
:10E2B0004F4D00463D44756D7020464C415348001B
:10E2C000483D48656C70004C3D4C69737420492F83
:10E2D0004F20506F72747300513D51756974005234
:10E2E0003D44756D702052414D00563D73686F7707
:10E2F00020696E7465727275707420566563746FF0
:10E30000727300593D506F727420626C696E6B00BD
:10E310002A0011241FBECFEFD1E2DEBFCDBF01E046
:10E320000CBF12E0A0E0B2E0EEE1FDEF03E00BBFB6
:10E3300002C007900D92A030B107D9F712E0A0E01B
:10E34000B2E001C01D92AE30B107E1F70F9460F367
:10E350000D948DFE01E20EBF0FEF0DBF11241FBE05
:10E360000D9460F30D9400F020E030E040ED57E0B4
:10E3700005C0FA013197F1F72F5F3F4F2817390792
:10E38000C0F308959C01260F311DC901A0E0B0E043
:10E390002F5F3F4FABBFFC018791882361F08093D3
:10E3A000C6008091C00086FFFCCF8091C0008064D1
:10E3B0008093C000EACF08958DE08093C6008091DD
:10E3C000C00086FFFCCF8091C00080648093C000B5
:10E3D0008AE08093C6008091C00086FFFCCF8091C8
:10E3E000C00080648093C00008950F94C2F10F9420
:10E3F000DCF10895FC019081992359F09093C600B7
:10E400008091C00086FFFCCF8091C0008064809323
:10E41000C0003196992379F70895282F982F929567
:10E420009F70892F805D8A3308F0895F8093C600D2
:10E430008091C00086FFFCCF8091C00080648093F3
:10E44000C000822F8F70982F905D9A3308F0995FEB
:10E450009093C6008091C00086FFFCCF8091C000E1
:10E4600080648093C00008959C01FB01853691056E
:10E470001CF46330710594F0C90164E670E00F94F8
:10E480002EFE605D7F4F6093C6008091C00086FFC6
:10E49000FCCF8091C00080648093C0002B30310598
:10E4A00014F43297B4F0C90164E670E00F942EFEC4
:10E4B0006AE070E00F942EFE605D7F4F6093C600AF
:10E4C0008091C00086FFFCCF8091C0008064809363
:10E4D000C000C9016AE070E00F942EFEC0968093E0
:10E4E000C6008091C00086FFFCCF8091C000806490
:10E4F0008093C00008951F93182F8EE692EE60E07F
:10E500000F94C2F11093C6008091C00086FFFCCF2B
:10E510008091C00080648093C0000F94DCF11F9153
:10E5200008952F923F924F925F926F927F928F92B7
:10E530009F92AF92BF92CF92DF92EF92FF920F9392
:10E540001F93DF93CF93CDB7DEB762970FB6F894E2
:10E55000DEBF0FBECDBF382E622ECA01DB015C01CB
:10E560006D01772420E2222E2E010894411C511CBB
:10E570008BC081E0A81680E0B80681E0C80680E084
:10E58000D80628F0C601AA27BB270F940DF2BB2797
:10E59000AD2D9C2D8B2D0F940DF28A2D0F940DF225
:10E5A0002092C6008091C00086FFFCCF8091C00001
:10E5B00080648093C0009DE29093C6008091C0006B
:10E5C00086FFFCCF8091C00080648093C0002092C1
:10E5D000C6008091C00086FFFCCF8091C00080649F
:10E5E0008093C00019828601750188249924A1E0D6
:10E5F0003A1651F03A1620F0B2E03B1661F409C029
:10E600000BBFF701779007C0C7010F9477FE782EF4
:10E6100002C0F7017080872D0F940DF22092C60082
:10E620008091C00086FFFCCF8091C0008064809301
:10E63000C000872D8052F401EF70F0708F3520F408
:10E64000E40DF51D708204C0E40DF51D8EE280839B
:10E650000894E11CF11C011D111D0894811C911CE2
:10E6600090E18916910409F0C2CF80E190E0A0E02A
:10E67000B0E0A80EB91ECA1EDB1E198AC2010F9493
:10E68000FAF10F94DCF16A94662009F072CF629679
:10E690000FB6F894DEBF0FBECDBFCF91DF911F91B3
:10E6A0000F91FF90EF90DF90CF90BF90AF909F9031
:10E6B0008F907F906F905F904F903F902F90089534
:10E6C0002F923F924F925F926F927F928F929F9282
:10E6D000AF92BF92CF92DF92EF92FF920F931F9370
:10E6E000DF93CF93CDB7DEB7CD53D1400FB6F894BB
:10E6F000DEBF0FBECDBF01E20EBF0FEF0DBF94B75F
:10E70000F894A89514BE80916000886180936000A1
:10E7100010926000789493FF05C0E0910002F091A0
:10E7200001021995279A2F9A8091C00082608093E8
:10E73000C00080E18093C40088E18093C1000000A4
:10E74000EE24FF24870144E0A42EB12CCC24DD2448
:10E7500024C0C5010197F1F70894E11CF11C011DCB
:10E76000111D21E2E2162EE4F20620E0020720E06D
:10E77000120718F031E0C32ED12CC801B70127ECE5
:10E780003BE140E050E00F9441FE611571058105C9
:10E79000910519F485B1805885B98091C00087FD35
:10E7A00003C0C114D104A9F2A6014F5F5F4FC25E3E
:10E7B000DE4F59834883CE51D140C25EDE4F8881FF
:10E7C0009981CE51D140019711F00D9410FEC05D9A
:10E7D000DE4F19821882C053D14060E0C15DDE4F28
:10E7E0001882CF52D14088249924C35DDE4F19820C
:10E7F0001882CD52D140C05EDE4F188219821A8233
:10E800001B82C052D140CE5CDE4F188219821A8220
:10E810001B82C253D140EE24FF2487010BBFF701B6
:10E8200007911691C45CDE4F19830883CC53D14005
:10E830000D940BFEC25EDE4F28813981CE51D1404E
:10E840002130310509F52091C600C25EDE4F1982E4
:10E850001882CE51D14022C02F5F3F4F4F4F5F4FA4
:10E86000213082E138078AE7480780E0580780F0C6
:10E87000C45CDE4FE881F981CC53D140EF5FFF4F9C
:10E8800019F0EE27FF27099420E030E040E050E047
:10E890008091C00087FFE0CF2091C600C35DDE4FAE
:10E8A00048815981CD52D1404F5F5F4FC35DDE4FEC
:10E8B00059834883CD52D140213209F063C64A3092
:10E8C000510508F05FC60894811C911C53E0851621
:10E8D000910409F059C600E010E018C081E280936D
:10E8E000C6008091C00086FFFCCF8091C00080648C
:10E8F0008093C0002F5F3F4F2931310579F70F9486
:10E90000DCF10F5F1F4F0530110519F020E030E0FA
:10E91000E5CF10920A0210920B0210920C02109294
:10E920000D02109206021092070210920802109235
:10E930000902109202021092030210920402109235
:10E9400005028FEE90EE60E00F94F5F180E191EE1C
:10E9500060E00F94C2F18091C00087FFFCCF9091DE
:10E96000C600903608F09F759032B8F09093C600BC
:10E970008091C00086FFFCCF8091C00080648093AE
:10E98000C000A0E2A093C6008091C00086FFFCCF2B
:10E990008091C00080648093C000983409F4D7C18E
:10E9A0009934B8F4923409F459C1933458F490333B
:10E9B00019F1903308F4E3C59F33A1F1903409F0C5
:10E9C000DEC5BDC0953409F470C1963409F0D7C5D1
:10E9D00098C1923509F42BC2933538F49C3409F46C
:10E9E000F5C1913509F0CBC518C2963509F445C279
:10E9F000993509F0C4C567C483E792EE62E00F94CD
:10EA0000F5F110920602109207021092080210927D
:10EA1000090210920A0210920B0210920C0210923C
:10EA20000D0213C18FE792EE62E00F94F5F18FEEC5
:10EA300090EE60E00F94F5F181E291EE60E00F94CA
:10EA4000C2F187EB91EE60E00F94F5F180E391EE77
:10EA500060E00F94C2F184EE90EE60E00F94F5F167
:10EA60008FE391EE60E00F94C2F186E090E061E008
:10EA700070E00F9434F20F94DCF18DE591EE60E0DC
:10EA80000F94C2F189EC91EE60E00F94F5F18EE401
:10EA900091EE60E00F94C2F183EC91EE60E00F9490
:10EAA000F5F18CE691EE60E00F94C2F18EE10F94E7
:10EAB0000DF288E90F940DF281E00F940DF20F949E
:10EAC000DCF18BE791EE60E00F94C2F119E0E0E039
:10EAD000F0E010935700E4918E2F0F940DF20F94F5
:10EAE000DCF18AE891EE60E00F94C2F1E3E0F0E03F
:10EAF00010935700E4918E2F0F940DF20F94DCF1D8
:10EB000089E991EE60E00F94C2F1E2E0F0E0109349
:10EB10005700E4918E2F0F940DF20F94DCF188EAE8
:10EB200091EE60E00F94C2F1E1E0F0E01093570045
:10EB30001491812F0F940DF20F94DCF107CF8BE825
:10EB400092EE62E00F94F5F18BE492EE60E00F94A8
:10EB5000F5F10F94DCF100E010E019C0C8016F2D51
:10EB60000F947FFEFF2031F489E492EE60E00F9471
:10EB7000C2F10BC0F092C6008091C00086FFFCCFAE
:10EB80008091C00080648093C0000F5F1F4FC80158
:10EB900081519F41A0E0B0E0ABBFFC01F790BAE229
:10EBA000FB1621F0E2E000301E07C1F60F94DCF105
:10EBB0000F94DCF187E592EE60E00F94F5F10F948D
:10EBC000DCF1CC24DD2400E010E01EC0C8010F946D
:10EBD00077FEF82E882331F489E492EE60E00F94FA
:10EBE000C2F10BC08093C6008091C00086FFFCCFAD
:10EBF0008091C00080648093C000FE1419F00894D6
:10EC0000C11CD11C0F5F1F4FC80181519F41A0E063
:10EC1000B0E0ABBFFC01E790FAE2EF1621F022E092
:10EC20000030120799F60F94DCF10F94DCF182E6C4
:10EC300092EE60E00F94C2F1C60161E070E00F94C3
:10EC400034F20F94DCF10F94DCF110920202109276
:10EC50000302109204021092050278CE89E992EE26
:10EC600062E00F94F5F1279A2F9A16C02F9880E052
:10EC700090E0E0EDF7E03197F1F7019684369105E9
:10EC8000C1F72F9A80E090E0E0EDF7E03197F1F7DF
:10EC9000019684369105C1F78091C00087FFE6CFC9
:10ECA0008091C00087FFFCCF64C485EA92EE62E0E9
:10ECB0000F94F5F140910202509103026091040219
:10ECC0007091050281E020E10F9491F2809102029F
:10ECD00090910302A0910402B091050280509F4FD1
:10ECE000AF4FBF4F8093020290930302A0930402A0
:10ECF000B093050280509041A040B04008F426CE69
:10ED0000A4CF83EB92EE62E00F94F5F140910602FE
:10ED100050910702609108027091090280E020E1A1
:10ED20000F9491F28091060290910702A09108023F
:10ED3000B091090280509F4FAF4FBF4F80930602A2
:10ED400090930702A0930802B0930902FFCD80ECD4
:10ED500092EE62E00F94F5F183E792EE60E00F949B
:10ED6000F5F18FE792EE60E00F94F5F18BE892EE0B
:10ED700060E00F94F5F189E992EE60E00F94F5F10F
:10ED800085EA92EE60E00F94F5F183EB92EE60E09D
:10ED90000F94F5F180EC92EE60E00F94F5F187ECC2
:10EDA00092EE60E00F94F5F188ED92EE60E00F9442
:10EDB000F5F18FED92EE60E00F94F5F18AEE92EEB0
:10EDC00060E00F94F5F183E093EEBDCD87EC92EE19
:10EDD00062E00F94F5F181E40F947BF282E40F94EA
:10EDE0007BF283E40F947BF284E40F947BF285E45E
:10EDF0000F947BF286E40F947BF287E40F947BF20E
:10EE000088E40F947BF28AE40F947BF28BE40F94F6
:10EE10007BF28CE40F947BF299CD88ED92EE62E068
:10EE20000F94F5F1772473948824992409C48FED05
:10EE300092EE62E00F94F5F140910A0250910B02BC
:10EE400060910C0270910D0282E020E10F9491F22A
:10EE500080910A0290910B02A0910C02B0910D02D8
:10EE600080509F4FAF4FBF4F80930A0290930B0289
:10EE7000A0930C02B0930D0269CD8AEE92EE62E08F
:10EE80000F94F5F184EE90EE60E00F94F5F18FECC5
:10EE900091EE60E00F94F5F1662477244301CC5D98
:10EEA000DE4F19821882C452D140D401C301B695F5
:10EEB000A79597958795CA5DDE4F88839983AA8326
:10EEC000BB83C652D140CC5DDE4FA881B981C4520C
:10EED000D1401196CC5DDE4FB983A883C452D14096
:10EEE000CD0162E070E00F9434F2B0E2B093C6005E
:10EEF0008091C00086FFFCCF8091C0008064809329
:10EF0000C000EDE2E093C6008091C00086FFFCCF18
:10EF10008091C00080648093C000F0E2F093C6004E
:10EF20008091C00086FFFCCF8091C00080648093F8
:10EF3000C000CA5DDE4FE880F9800A811B81C6529D
:10EF4000D140BB27A12F902F8F2D0F940DF2CA5DBA
:10EF5000DE4F8881C652D1400F940DF2B0E2FB2EF5
:10EF6000F092C6008091C00086FFFCCF8091C00067
:10EF700080648093C0000DE30093C6008091C000C0
:10EF800086FFFCCF8091C00080648093C00010E2B7
:10EF90001093C6008091C00086FFFCCF8091C00016
:10EFA00080648093C0008BBEF3012791C65DDE4F65
:10EFB0002883CA52D140A22EBB24CC24DD2408943D
:10EFC000611C711C811C911C8BBEF3018791282E42
:10EFD0003324442455240894611C711C811C911C09
:10EFE0008BBEF3013791C55DDE4F3883CB52D140E4
:10EFF0000894611C711C811C911C8BBEF30147910C
:10F00000C45DDE4F4883CC52D140ADEFEA2EAFEF66
:10F01000FA2EAFEF0A2FAFEF1A2F6E0C7F1C801E57
:10F02000911E142D032DF22CEE24EA0CFB1C0C1D5A
:10F030001D1D0F940DF220E22093C6008091C000A8
:10F0400086FFFCCF8091C00080648093C000C65DC5
:10F05000DE4F8881CA52D1400F940DF230E23093D6
:10F06000C6008091C00086FFFCCF8091C000806404
:10F070008093C000C45DDE4F8881CC52D1400F9494
:10F080000DF240E24093C6008091C00086FFFCCFA5
:10F090008091C00080648093C000C55DDE4F888190
:10F0A000CB52D1400F940DF250E25093C6008091A4
:10F0B000C00086FFFCCF8091C00080648093C000B8
:10F0C0008FEFE8168FEFF80680E0080780E018075A
:10F0D00031F484E092EE60E00F94C2F1DFC0D80119
:10F0E000C7018070907CA070B0708050904CA040A0
:10F0F000B040D1F52FEF3FE340E050E0E222F322B1
:10F1000004231523CA5DDE4FA880B980CA80DB8046
:10F11000C652D140AE0CBF1CC01ED11EAA0CBB1CD7
:10F12000CC1CDD1C8EE092EE60E00F94C2F1BB2798
:10F13000A12F902F8F2D0F940DF28E2D0F940DF285
:10F1400030E23093C6008091C00086FFFCCF8091F2
:10F15000C00080648093C0004EE34093C60080915D
:10F16000C00086FFFCCF87C08EE09EEFA0E0B0E03D
:10F17000E822F9220A231B239CE0E91694E9F90608
:10F1800090E0090790E0190709F088C0C45DDE4FE0
:10F19000A881CC52D140EA2EFF2400E010E0102FCD
:10F1A0000F2DFE2CEE24C55DDE4FB881CB52D14031
:10F1B000EB0EF11C011D111DD601C501817090706F
:10F1C000A070B070DC0199278827E80EF91E0A1F8D
:10F1D0001B1F20EF30E040E050E0A222B322C42207
:10F1E000D52241E1AA0CBB1CCC1CDD1C4A95D1F7F1
:10F1F000EA0CFB1C0C1D1D1D81E090E0A0E0B0E0BE
:10F20000282239224A225B2235E1220C331C441C7D
:10F21000551C3A95D1F7E20CF31C041D151D57013E
:10F220006801AA0CBB1CCC1CDD1C85E192EE60E0E1
:10F230000F94C2F1C801AA27BB270F940DF2BB2778
:10F24000A12F902F8F2D0F940DF28E2D0F940DF274
:10F2500090E29093C6008091C00086FFFCCF809121
:10F26000C00080648093C000AEE3A093C60080918C
:10F27000C00086FFFCCF8091C00080648093C000F6
:10F28000C601AA27BB270F940DF2BB27AD2D9C2DDD
:10F290008B2D0F940DF28A2D0F940DF20F94DCF14B
:10F2A000CC5DDE4FE881F981C452D140F99709F471
:10F2B0004DCBF4E0EF2EF12C012D112D6E0C7F1CA7
:10F2C000801E911EF2CD83E093EE62E00F94F5F183
:10F2D0008AE192EE60E00F94C2F18091C00087FF56
:10F2E000FCCF1091C6001F751093C6008091C0001E
:10F2F00086FFFCCF8091C00080648093C0000F9493
:10F30000DCF1812F81548A3108F036C1163409F4BA
:10F3100095C0173490F4133409F44EC0143430F40B
:10F320001134F1F0123409F01DC130C0143409F465
:10F3300059C0153409F016C16BC01A3409F4C4C0A1
:10F340001B3438F4173409F48FC0183409F00AC19B
:10F35000A1C01B3409F4D2C01C3409F003C1E8C0B9
:10F360008FEF81B90DC082B1809582B980E090E0C5
:10F37000E0EDF7E03197F1F70196883C9105C1F790
:10F380008091C00087FFEFCF12B8EFC08FEF84B934
:10F390000DC085B1809585B980E090E0E0EDF7E0A3
:10F3A0003197F1F70196883C9105C1F78091C00033
:10F3B00087FFEFCF15B8D9C08FEF87B90DC088B1DF
:10F3C000809588B980E090E0E0EDF7E03197F1F7C3
:10F3D0000196883C9105C1F78091C00087FFEFCF6F
:10F3E00018B8C3C08FEF8AB90DC08BB180958BB9A7
:10F3F00080E090E0E0EDF7E03197F1F70196883C8E
:10F400009105C1F78091C00087FFEFCF1BB8ADC059
:10F410008FEF8DB90DC08EB180958EB980E090E0F0
:10F42000E0EDF7E03197F1F70196883C9105C1F7DF
:10F430008091C00087FFEFCF1EB897C08FEF80BBD1
:10F440000DC081B3809581BB80E090E0E0EDF7E0F6
:10F450003197F1F70196883C9105C1F78091C00082
:10F4600087FFEFCF11BA81C08FEF83BB0DC084B38C
:10F47000809584BB80E090E0E0EDF7E03197F1F714
:10F480000196883C9105C1F78091C00087FFEFCFBE
:10F4900014BA6BC08FEF809301010FC080910201FD
:10F4A00080958093020180E090E0E0EDF7E03197F5
:10F4B000F1F70196883C9105C1F78091C00087FF64
:10F4C000EDCF1092020151C08FEF809304010FC065
:10F4D0008091050180958093050180E090E0E0ED4A
:10F4E000F7E03197F1F70196883C9105C1F78091DB
:10F4F000C00087FFEDCF1092050137C08FEF8093DA
:10F5000007010FC08091080180958093080180E079
:10F5100090E0E0EDF7E03197F1F70196883C910536
:10F52000C1F78091C00087FFEDCF109208011DC088
:10F530008FEF80930A010FC080910B01809580931B
:10F540000B0180E090E0E0EDF7E03197F1F70196F4
:10F55000883C9105C1F78091C00087FFEDCF1092E4
:10F560000B0103C085E292EEEEC98091C00087FFD7
:10F57000FCCF8091C600EAC988E392EEE4C98CE131
:10F5800091EEE1C988249924933011F1943028F444
:10F59000913089F09230B8F408C0953061F195301F
:10F5A000F0F0963009F048C043C02B3109F042C951
:10F5B00091E06BE13FC96227C15DDE4F2883CF52E6
:10F5C000D14092E037C9B22FA0E0622793E032C960
:10F5D000822F90E0A82BB92B622794E02BC92E3004
:10F5E00009F039C3622795E0C05DDE4F19821882A9
:10F5F000C053D1401FC9E1E0F0E0EC0FFD1FC05D3A
:10F60000DE4F08811981C053D140E00FF11F2083E4
:10F610000F5F1F4FC05DDE4F19830883C053D14079
:10F6200062270A171B0709F005C9D80196E002C92D
:10F63000261709F010C303C0973009F0FBC87724E0
:10F640009981933109F412C19431C8F4963009F4C8
:10F65000D8C0973050F4923009F406C1933009F4C1
:10F660006DC0913009F059C253C0913109F477C08F
:10F67000923108F0BBC0903109F04FC2F5C098310B
:10F6800009F487C0993150F4953109F4EFC09531F0
:10F6900008F4C6C1963109F040C2C2C19A3109F4DA
:10F6A0006CC09A3108F491C09B3109F45BC09D3164
:10F6B00009F033C29D81903359F48F81882311F46E
:10F6C0009EE11CC0813011F091E018C098E916C08D
:10F6D000892F807591F0903539F4E0E0F0E089E011
:10F6E0008093570094910AC0983539F4E3E0F0E034
:10F6F00089E080935700949101C090E01A821B82A8
:10F700008D818C831D829E831F8227E030E009C299
:10F710001A8288E08B8381E48C8386E58D8382E581
:10F720008E8389E48F8383E5888780E589878FE5E9
:10F730008A8782E38B872BE030E0F3C18A818139AD
:10F7400041F0823941F0803911F48FE005C080E04A
:10F7500003C082E001C08AE01A828B8344C0772410
:10F76000739482C08D81882311F48EE12CC0813086
:10F7700011F081E028C088E926C01A82E1E0F0E0BB
:10F7800089E08093570084918B831C8224E030E0D1
:10F79000C8C18B81803589F48C81883039F4E2E0EE
:10F7A000F0E089E08093570084910DC0E0E0F0E044
:10F7B00089E080935700849106C0E3E0F0E089E09F
:10F7C0008093570084911A82DFCF8D81836C99E0FA
:10F7D000E1E0F0E0082E90935700E89507B600FCB2
:10F7E000FDCF1A821B8223E030E09BC180EC8A832C
:10F7F000CE5CDE4F188219821A821B82C253D1401E
:10F800008EC18A8190E0A0E0B0E0582F44273327D2
:10F8100022278B8190E0A0E0B0E0DC0199278827C7
:10F82000282B392B4A2B5B2B8D8190E0A0E0B0E098
:10F83000282B392B4A2B5B2B8C8190E0A0E0B0E089
:10F84000BA2FA92F982F8827282B392B4A2B5B2BCF
:10F85000220F331F441F551FC05EDE4F288339839C
:10F860004A835B83C052D1401A8259C13A81C95C34
:10F87000DE4F3883C753D140CA5CDE4F1882C6536F
:10F88000D1408B81C82EDD24CA5CDE4F488159816E
:10F89000C653D140C42AD52A933109F082C0CE5C28
:10F8A000DE4F88819981AA81BB81C253D1408050AB
:10F8B000904CA340B04030F583E0CE5CDE4FE88052
:10F8C000F9800A811B81C253D140F70100935B008C
:10F8D00080935700E89507B600FCFDCFCE5CDE4F65
:10F8E000088119812A813B81C253D14000501F4FAA
:10F8F0002F4F3F4FCE5CDE4F088319832A833B8313
:10F90000C253D140C05EDE4F488159816A817B81FC
:10F91000C052D140DE011B9631E08C9111962C91A2
:10F9200011971296C75CDE4F2883C953D140C85C3B
:10F93000DE4F1882C853D14090E0C85CDE4FE881AA
:10F94000F981C853D1408E2B9F2B0C01FA01609393
:10F950005B0030935700E89511244E5F5F4F6F4F67
:10F960007F4F0EEFE02E0FEFF02ECE0CDF1CC114F8
:10F97000D10499F685E0C05EDE4F088119812A81A5
:10F980003B81C052D140F80120935B008093570027
:10F99000E89507B600FCFDCF81E180935700E8951C
:10F9A00035C0C05EDE4F88819981AA81BB81C0527B
:10F9B000D140B695A795979587957C018601ABE0D8
:10F9C000AA2EB12CAC0EBD1E0BC0D5016D915D01F0
:10F9D000C7010F947FFE0894E11CF11C01501040F8
:10F9E0000115110591F7A60160E070E0440F551F65
:10F9F000661F771FC05EDE4FE880F9800A811B8199
:10FA0000C052D1404E0D5F1D601F711F1A82C05E33
:10FA1000DE4F488359836A837B83C052D1407FC0C5
:10FA2000FA80C55CDE4FF882CB53D140C65CDE4F16
:10FA30001882CA53D1408B81C82EDD24C65CDE4FAC
:10FA400008811981CA53D140C02AD12A1A828981DA
:10FA5000BE016D5F7F4F843121F59601C05EDE4FA0
:10FA6000E880F9800A811B81C052D1400BBFF701A9
:10FA700087919691DB018C9311969C936E5F7F4FDB
:10FA8000D801C7010296A11DB11DC05EDE4F88835B
:10FA90009983AA83BB83C052D14022503040F1F6F3
:10FAA00036C0C05EDE4F288139814A815B81C052F9
:10FAB000D1400894C108D108760100E010E0089414
:10FAC000C11CD11C0894E11CF11C011D111DE20E8A
:10FAD000F31E041F151F21BDBB27A52F942F832FB5
:10FAE00082BD2F5F3F4F4F4F5F4FF89A80B5DB01CC
:10FAF0008D93BD012E153F054007510761F7C05E8C
:10FB0000DE4F288339834A835B83C052D1409601FC
:10FB10002D5F3F4FFB01108204C080EC8A8322E0FE
:10FB200030E08BE18093C6008091C00086FFFCCF5F
:10FB30008091C00080648093C000C15DDE4FF88179
:10FB4000CF52D140F093C6008091C00086FFFCCF19
:10FB50008091C00080648093C000432F3093C60022
:10FB60008091C00086FFFCCF8091C00080648093AC
:10FB7000C000922F2093C6008091C00086FFFCCF6A
:10FB80008091C00080648093C0008EE08093C600A6
:10FB90008091C00086FFFCCF8091C000806480937C
:10FBA000C00065E1C15DDE4FE880CF52D1406E25D7
:10FBB00069276427FE01319610C090819093C6009A
:10FBC0008091C00086FFFCCF31968091C000806498
:10FBD0008093C0006927215030402115310569F715
:10FBE0006093C6008091C00086FFFCCF8091C0006A
:10FBF00080648093C00085B1805885B9772081F4F6
:10FC0000C15DDE4F0881CF52D1400F5FC15DDE4F35
:10FC10000883CF52D14090E0A0E0B0E00D941AF4F8
:10FC200027982F9880E090E020ED37E0F901319798
:10FC3000F1F7019684369105C9F700008091C00064
:10FC40008D7F8093C00081E180935700E895EE2777
:10FC5000FF270994FFCF90E00D941AF497FB092E2B
:10FC600007260AD077FD04D02ED006D000201AF443
:10FC7000709561957F4F0895F6F7909581959F4F08
:10FC80000895A1E21A2EAA1BBB1BFD010DC0AA1FDD
:10FC9000BB1FEE1FFF1FA217B307E407F50720F0F5
:10FCA000A21BB30BE40BF50B661F771F881F991F70
:10FCB0001A9469F760957095809590959B01AC01B9
:10FCC000BD01CF010895AA1BBB1B51E107C0AA1FAC
:10FCD000BB1FA617B70710F0A61BB70B881F991FED
:10FCE0005A95A9F780959095BC01CD010895F99991
:10FCF000FECF92BD81BDF89A992780B50895262F31
:10FD0000F999FECF1FBA92BD81BD20BD0FB6F89400
:0EFD1000FA9AF99A0FBE01960895F894FFCF63
:040000033000E000E9
:00000001FF