:1000000024C1000052C1000050C100004EC10000D8
:100010004CC100004AC1000048C1000046C10000B8
:1000200044C1000042C1000040C100003EC10000C8
:100030003CC100003AC1000038C1000036C10000D8
:1000400034C1000032C1000030C100002EC10000E8
:100050002CC10000B9C5000028C100000BC500007C
:1000600024C100005FC3000034C300001EC10000B3
:100070001CC100001AC1000018C1000016C1000018
:1000800014C1000012C1000010C100000EC1000028
:100090000CC100000AC1000008C1000006C1000038
:1000A00004C1000002C1000000C10000FEC0000049
:1000B000FCC00000FAC00000F8C00000F6C000005C
:1000C000F4C00000F2C00000F0C00000EEC000006C
:1000D000ECC00000EAC00000E8C00000E6C000007C
:1000E000E4C00000AC02AF029E02A202A802E60237
:1000F000B302B702BD02C102C502CB02CF02D302D6
:10010000E602D902DD02E1020000210024002700FE
:100110002A002D0030003300010100000401070116
:100120000A0100002200250028002B002E003100CB
:10013000340002010000050108010B0100000A0B58
:1001400002090C0D0E080703040100000000000066
:10015000000000000000000000000000000000009F
:10016000000000000000000012111000000000005C
:10017000000000000000000000000000000000007F
:100180000000005EBCE2613FDD83C29C7E20A3FDD7
:100190001F41009D23BE46DB65F88C11AF32CA5764
:1001A000E974000020002300260029002C002F0005
:1001B00032000001000003010601090105050505E3
:1001C000070508080808020202020A0A08080404CF
:1001D00004040101010101010101030303030303FD
:1001E0000303040707070C0C0C0C0C0C0C0C02028C
:1001F000020206060606060606060B0B0B0B0B0B89
:100200000B0B010210202008081020401020408015
:1002100002010201080402010102040810204080CA
:100220008040201008040201800402018040201058
:1002300008040201080402010102040810204080A1
:100240000102040810204080460C11241FBECFEF8D
:10025000D1E2DEBFCDBF00E00CBF13E0A0E0B2E012
:10026000E6E5FEE100E00BBF02C007900D92A4326C
:10027000B107D9F724E0A4E2B3E001C01D92AA3788
:10028000B207E1F711E0C5E2D1E000E006C0219736
:100290000109802FFE010E941D0FC432D10780E0AA
:1002A0000807A9F790D70C94290FAACECF92DF9216
:1002B000EF92FF920F931F93CF93DF936C017A011C
:1002C0008B01C0E0D0E0CE15DF0581F0D8016D9143
:1002D0008D01D601ED91FC910190F081E02DC601D8
:1002E0001995892B11F02196EECF7E01C701DF9180
:1002F000CF911F910F91FF90EF90DF90CF900895D5
:10030000089580E090E00895FC01538D448D252FE1
:1003100030E0842F90E0821B930B541710F0CF969F
:10032000089501970895FC01918D828D981761F0D1
:10033000828DDF01A80FB11D5D968C91928D9F5F1C
:100340009F73928F90E008958FEF9FEF0895FC01C7
:10035000918D828D981731F0828DE80FF11D858D7A
:1003600090E008958FEF9FEF0895FC01918D228D0D
:10037000892F90E0805C9F4F821B91098F73992792
:10038000089586E793E0F1DF21E0892B09F420E06E
:10039000822F0895FC01848DDF01A80FB11DA35A9F
:1003A000BF4F2C91848D90E001968F739927848F95
:1003B000A689B7892C93A089B1898C9183708064B8
:1003C0008C93938D848D981306C00288F389E02D59
:1003D00080818F7D80830895EF92FF920F931F930A
:1003E000CF93DF93EC0181E0888F9B8D8C8D9813E8
:1003F00005C0E889F989808185FD25C0F62E0B8D21
:1004000010E00F5F1F4F0F731127E02E8C8DE81245
:100410000BC00FB607FCFACFE889F989808185FF08
:10042000F5CFCE01B7DFF2CF8B8DFE01E80FF11DC6
:10043000E35AFF4FF0829FB7F8940B8FEA89FB894C
:10044000808180620AC09FB7F894EE89FF8960833B
:10045000E889F98980818370806480839FBF81E00F
:1004600090E0DF91CF911F910F91FF90EF90089551
:10047000CF93DF93EC01888D8823C1F0EA89FB8953
:10048000808185FD05C0A889B9898C9186FD0EC043
:100490000FB607FCF5CF808185FFF2CFA889B98917
:1004A0008C9185FFEDCFCE0175DFE8CFDF91CF9145
:1004B000089580E090E0892B19F063DF811125C059
:1004C00080E090E0892B41F080E090E0892B21F0E2
:1004D0000E94000081111CC080E090E0892B41F057
:1004E00080E090E0892B21F00E940000811113C070
:1004F00080E090E0892BA1F080E090E0892B81F0F2
:100500000E94000081110AC008950E940000D8CF07
:100510000E940000E1CF0E940000EACF0C9400008E
:10052000089590E0FC013197E231F10508F04EC0EA
:100530008827EE58FF4F8F4F0C941D0F809180003D
:100540008F7703C0809180008F7D80938000089515
:1005500080918000877FF9CF84B58F7702C084B502
:100560008F7D84BD08958091B0008F7703C0809106
:10057000B0008F7D8093B0000895809190008F77B8
:1005800007C0809190008F7D03C080919000877F8D
:100590008093900008958091A0008F7707C080918C
:1005A000A0008F7D03C08091A000877F8093A00072
:1005B0000895809120018F7707C0809120018F7D61
:1005C00003C080912001877F8093200108953FB769
:1005D000F8948091290390912A03A0912B03B09164
:1005E0002C0326B5A89B05C02F3F19F00196A11D2D
:1005F000B11D3FBFBA2FA92F982F8827820F911DB9
:10060000A11DB11DBC01CD0142E0660F771F881FFF
:10061000991F4A95D1F708958F929F92AF92BF92FA
:10062000CF92DF92EF92FF926B017C01D0DF4B0102
:100630005C01C114D104E104F104E9F0C8DFDC017C
:10064000CB0188199909AA09BB09883E9340A105E5
:10065000B10578F321E0C21AD108E108F10888EE6B
:10066000880E83E0981EA11CB11CC114D104E104C2
:10067000F10421F7DECFFF90EF90DF90CF90BF9095
:10068000AF909F908F900895FC0183819481823078
:10069000910538F0880F991F880F991F05970197CA
:1006A000F1F708950E94250FCF93DF9300D01F929A
:1006B000CDB7DEB719821A821B821C82BE016F5F22
:1006C0007F4F7CD30F900F900F900F90DF91CF91C1
:1006D00008951F920F920FB60F9211240BB60F922E
:1006E0002F933F934F935F936F937F938F939F933A
:1006F000AF93BF93EF93FF9386E793E04BDEFF91B9
:10070000EF91BF91AF919F918F917F916F915F9189
:100710004F913F912F910F900BBE0F900FBE0F90F6
:100720001F9018951F920F920FB60F9211240BB6BF
:100730000F922F938F939F93EF93FF93E0918603F4
:10074000F09187038081E0918C03F0918D0382FD0D
:1007500012C0908180918F038F5F8F7320919003DF
:10076000821751F0E0918F03F0E0EA58FC4F958F2B
:1007700080938F0301C08081FF91EF919F918F91B2
:100780002F910F900BBE0F900FBE0F901F901895DA
:10079000CF93DF93282F30E0F901E45CFE4F849182
:1007A000F901EE5FFD4FD491F901E454FE4FC4917D
:1007B000CC2389F08111B5DEEC2FF0E0EE0FFF1FA6
:1007C000EE55FE4FA591B491EC91ED2381E090E0C0
:1007D00021F480E002C080E090E0DF91CF910895A5
:1007E0001F93CF93DF93282F30E0F901E45CFE4F95
:1007F0008491F901EE5FFD4FD491F901E454FE4F6D
:10080000C491CC23B9F0162F81118BDEEC2FF0E0D0
:10081000EE0FFF1FEE5DFE4FA591B4919FB7F894C8
:10082000111104C08C91D095D82302C0EC91DE2B1D
:10083000DC939FBFDF91CF911F910895CF93DF93FA
:1008400090E0FC01EE5FFD4F2491FC01E454FE4F6B
:100850008491882361F190E0880F991FFC01E85F83
:10086000FE4FC591D491FC01EE5DFE4FA591B49170
:10087000611109C09FB7F8948881209582238883ED
:10088000EC912E230BC0623061F49FB7F8948881FD
:10089000322F309583238883EC912E2B2C939FBF8E
:1008A00006C08FB7F894E8812E2B28838FBFDF9185
:1008B000CF9108952FB7F894609125037091260386
:1008C00080912703909128032FBF08958F929F92C4
:1008D000AF92BF92CF92DF92EF92FF920F931F934E
:1008E000CF93DF93CDB7DEB72A970FB6F894DEBF6C
:1008F0000FBECDBFC82ED62E842FF22E19821A829B
:100900004D839FE0E92EEC8262E098DF1E821F8219
:10091000FA86E98662E08F2D91DFCCDF4B015C0126
:1009200060E08C2D5DDF61E08D2D5ADFCE010196F8
:1009300025D2C0DFDC01CB0188199909AA09BB09BE
:1009400089389341A105B10530F48981882371F379
:10095000E12CF12C03C0EE24E394F12C61E08C2D0A
:100960003FDF61E08D2D3CDFA5DFDC01CB01881985
:100970009909AA09BB09F80180839183A283B383F3
:1009800099DF4B015C0160E08D2D2ADF61E08C2D49
:1009900027DFCE010696F2D18DDFDC01CB0188196D
:1009A0009909AA09BB0989389341A105B10520F02D
:1009B00022E0E20EF11C03C08E81882351F361E036
:1009C0008C2D0EDF61E08D2D0BDF74DFDC01CB01A0
:1009D00088199909AA09BB09F80180809180A28031
:1009E000B38088169906AA06BB0610F44C015D0177
:1009F000F80180829182A282B382C7012A960FB643
:100A0000F894DEBF0FBECDBFDF91CF911F910F9144
:100A1000FF90EF90DF90CF90BF90AF909F908F901E
:100A200008950F931F93CF93DF93EC0143DF0A8167
:100A30001B812C813D81DC01CB01801B910BA20B22
:100A4000B30B0E811F812885398580179107A20776
:100A5000B30750F02FDF6A837B838C839D8389816A
:100A6000882311F081E088838881DF91CF911F91E5
:100A70000F9108951F920F920FB60F9211242F938A
:100A80003F938F939F93AF93BF9380912503909152
:100A90002603A0912703B09128033091240323E07B
:100AA000230F2D3720F40196A11DB11D05C026E8A6
:100AB000230F0296A11DB11D2093240380932503CB
:100AC00090932603A0932703B093280380912903D2
:100AD00090912A03A0912B03B0912C030196A11DA4
:100AE000B11D8093290390932A03A0932B03B09305
:100AF0002C03BF91AF919F918F913F912F910F90B8
:100B00000FBE0F901F9018950F931F93CF93DF93F5
:100B1000EC01062F18E061E0888190DECE01B4DDA3
:100B200000FF02C060E001C061E0898187DECE0184
:100B3000ABDD60E0888182DECE01A6DD0695115036
:100B400051F761E088817ADE60E0898177DECE014D
:100B50009BDD60E0888172DECE0196DD898118DE42
:100B6000182F811103C061E0898168DECE018CDD20
:100B700061E0888163DECE0187DD81E0111101C073
:100B800080E0DF91CF911F910F910895CF93DF9374
:100B9000EC0161E0898152DECE0176DD60E0888182
:100BA0004DDECE0171DD60E0898148DECE01DF914E
:100BB000CF916ACDCF93DF93EC0161E089813EDE76
:100BC000CE01DF91CF9160CD1F920F920FB60F92A1
:100BD00011240BB60F92FF920F931F932F933F9305
:100BE0004F935F936F937F938F939F93AF93BF9335
:100BF000CF93DF93EF93FF938FEF86BD8091130424
:100C00008823D1F1C5E1D4E005E314E0A991B991BD
:100C1000109701F1FFB6F8948C918823D1F01996C2
:100C2000ED91FC911A973097A1F011964D915D913D
:100C30006D917C9114974150510961097109119688
:100C40004D935D936D937C931497452B462B472BC7
:100C500029F0FFBE0C171D07C9F60EC015964D9161
:100C60005D916D917C91189711964D935D936D9365
:100C70007C9314971995EDCFFF91EF91DF91CF9170
:100C8000BF91AF919F918F917F916F915F914F91A4
:100C90003F912F911F910F91FF900F900BBE0F90DE
:100CA0000FBE0F901F901895CF93DF93EC0187E351
:100CB0008883698384E690E09C838B8360E087E38C
:100CC000BDDD60E08981BADD60E0888189DD60E0BA
:100CD0008981DF91CF9184CD009761F0FC01019073
:100CE0000020E9F73197AF01481B590BBC0186E79B
:100CF00093E0DCCA80E090E008958F929F92AF92DB
:100D0000BF920F931F93CF93DF93CDB7DEB7A19719
:100D10000FB6F894DEBF0FBECDBF19A2423008F463
:100D20004AE08E010F5D1F4F842E912CA12CB12C17
:100D3000A50194010E94FB0EE62FB901CA010150E2
:100D40001109EA3014F4E05D01C0E95CD801EC93CC
:100D5000232B242B252B61F7C801BEDFA1960FB6EC
:100D6000F894DEBF0FBECDBFDF91CF911F910F91E1
:100D7000BF90AF909F908F900895AECF0F931F9329
:100D8000CF93DF93EC01088110E08C8101DD08171F
:100D9000190711F01A820DC08A818F5F8A839B81A7
:100DA000891738F0888191E0892788831A82811118
:100DB0009983DF91CF911F910F910895EF92FF9248
:100DC0000F931F93CF93DF93EC017B01F3DE60E47D
:100DD000CE019ADECE01DADECE01ECDE60ECCE0191
:100DE00093DE870184E0E80EF11CF80161918F0128
:100DF000CE018ADE0E151F05C1F7CE01C7DECE017A
:100E0000D9DE6A816F706058CE017EDECE01DF913F
:100E1000CF911F910F91FF90EF90B8CECF93DF93BA
:100E200088EB92E059DFEC0186EB92E055DF8C0F06
:100E30009D1FDF91CF9108954F925F926F927F92A5
:100E40008F929F92AF92BF92CF92DF92EF92FF92DA
:100E50006B017C019B01AC01B6D7882319F087E1B7
:100E600093E018C046015701E894B7F82FEF3FEF21
:100E70004FE75FE7C501B401A6D781110EC02FEF80
:100E80003FEF4FE75FE7C501B4014FD618162CF4CA
:100E90008BE193E021DF7C0171C02FEF3FEF4FE743
:100EA0005FE4C701B60128D718161CF48FE193E060
:100EB000F1CF2FEF3FEF4FE75FECC701B60135D61B
:100EC00087FDF4CF20E030E0A901C701B6012DD69F
:100ED00087FF0AC06DE286E793E07EDA5C01F7FAED
:100EE000F094F7F8F09402C0A12CB12C2AE037ED71
:100EF00043EA5BE3C701B601B4D52B013C011ED622
:100F00006B017C0147D69B01AC01C301B201A8D59E
:100F10002B013C014AE0C701B601EFDE7C01EA0C7F
:100F2000FB1C6EE286E793E057DAE80EF91E20E03C
:100F300030E040E251E4C301B201E2D62B013C01B2
:100F4000FDD54B01A12CB12C4AE0C501B401D5DE81
:100F5000E80EF91EC501B4011DD69B01AC01C30109
:100F6000B2017ED520E030E040E251E4C9D6E6D5BA
:100F700080E090E04AE0C1DEE80EF91E86EB92E0E8
:100F8000ABDE8E0D9F1DFF90EF90DF90CF90BF9056
:100F9000AF909F908F907F906F905F904F9008954B
:100FA0007F928F929F92AF92BF92CF92DF92EF92F9
:100FB000FF920F931F93CF93DF9300D01F92CDB773
:100FC000DEB75C017A0167FF03C0619541E001C0B3
:100FD00040E0E114F10431F419821A821B828FE39C
:100FE0008C8343C0CE0101966C014E0193E0891AB7
:100FF00091088601262F660F330B80E4782EC701F7
:10100000B901E5D6982F811106C0E114F10419F455
:10101000F80113820DC08F70E82FF0E0E058FD4F0B
:101020008081F8018383911108C0E114F10429F44F
:10103000442319F0F801738240E0C701B901C7D613
:101040007B010150110908151905C9F69E012B5F96
:101050003F4F80E4982F9078F6014081942B919334
:101060006F01880FE217F307A9F7BE016F5F7F4F8B
:10107000C501A4DE0F900F900F900F90DF91CF91DC
:101080001F910F91FF90EF90DF90CF90BF90AF90A6
:101090009F908F907F900895CF92DF92EF92FF9272
:1010A0000F931F93CF93DF9328E030E041E06FEF81
:1010B00070E09FE0C92ED12CC3E2D0E007ED10E034
:1010C00090913F04E0914004F0914104592F5095D4
:1010D000F82EF42281F0F894F2805F21528351813E
:1010E000592B5183DE011197F1F75281952B928391
:1010F0007894F8010FC0F894F2805F2152835181F7
:10110000592B5183DB011197F1F75281952B928373
:101110007894F6013197F1F7440F2150310981F6A7
:10112000F894E0914004F0914104918180913F0452
:10113000809598239183E0914004F091410492813D
:10114000892382837894DF91CF911F910F91FF9033
:10115000EF90DF90CF90089520913F04E0914004FC
:10116000F0914104F8948181922F90958923818395
:1011700078948DE743E050E0815021F1DA01119736
:10118000F1F730813223C1F3F8948281892382837D
:101190008181822B81837894ABE7B7E01197F1F7D7
:1011A000F89481819823918383E191E00197F1F78D
:1011B0008081282381E009F080E07894E3E6F6E07E
:1011C0003197F1F70895CF93DF93CDB7DEB72B9723
:1011D0000FB6F894DEBF0FBECDBF789484B58260A1
:1011E00084BD84B5816084BD85B5826085BD85B5CB
:1011F000816085BD80916E00816080936E00109249
:1012000081008091810082608093810080918100C3
:101210008160809381008091800081608093800054
:101220008091B10084608093B1008091B0008160B2
:101230008093B000809191008260809391008091B2
:1012400091008160809391008091900081608093F3
:1012500090008091A10082608093A1008091A10004
:1012600081608093A1008091A00081608093A000A4
:101270008091210182608093210180912101816010
:1012800080932101809120018160809320018091D1
:101290007A00846080937A0080917A0082608093E3
:1012A0007A0080917A00816080937A0080917A0040
:1012B000806880937A001092C100FCDAE091860386
:1012C000F091870382E08083E0918603F0918703A9
:1012D0001082E0918203F09183031082E0918403F5
:1012E000F091850380E1808310928E03E0918A0360
:1012F000F0918B0386E08083E0918803F09189036D
:10130000808180618083E0918803F09189038081EE
:1013100088608083E0918803F091890380818068F0
:101320008083E0918803F091890380818F7D8083A1
:1013300061E089E083DA61E089E052DA61E08AE025
:101340007DDA61E08AE04CDA62E08BE077DA62E035
:101350008CE074DA61E083E071DA61E083E040DA26
:1013600061E084E06BDA61E084E03ADA87E594E0FA
:101370009BD982E594E098D98DE494E095D901E376
:1013800013E02CE04BE06AE089E0A0DA82EA92E028
:10139000F4DC6091310370913203809133039091BA
:1013A00034034AE0AADC86EB92E096DC0DE213E01F
:1013B00028E047E066E085E089DA89EB92E0DDDC51
:1013C0004AE060E070E0CB0198DC86EB92E084DCE0
:1013D00097E0A92EB12C2FEC222E312C39E1C32E0F
:1013E000D12CE12CF12C66DA80E794E01ADB86E65A
:1013F00094E017DB8CE594E014DB80E794E011DBEC
:10140000882309F4B3C056DA85E394E00ADB8091BF
:101410003604811109C0A0DE8CEC3EDE84E43CDEA3
:1014200081E080933604A2C080913504882309F4BA
:101430009DC01092360410923504109270043ADA6E
:101440006093720470937304809374049093750492
:1014500086E3482E83E0582E00E012E03E018AE049
:10146000680E711C79DE85E517DE4801085F1F4FA5
:10147000F40181914F0110DE80169106C9F78EEBC1
:101480000BDEDE011196BB87AA8728E030E060E022
:1014900071E090903F04E0914004F0914104F89491
:1014A0004181492941834281892C8094482142838A
:1014B000C5010197F1F741818422818243E250E026
:1014C000CA010197F1F740817894F1013197F1F762
:1014D000942209F0672B770F21503109D1F6EA8564
:1014E000FB856193FB87EA876E167F0671F699E0AC
:1014F000E0E0915089F08D918E27E82FEF70F0E0B9
:10150000EE57FE4F2491E82FE295EF70F0E0EE5693
:10151000FE4FE491E227EDCF89858E1721F0F9EF98
:10152000FA8380ED898369817A818D81807611F4D7
:10153000687F07C0803211F46C7F03C0803409F4E7
:101540006E7F072E000C880B990B26D320E030E02D
:1015500040E85DE3D5D3F201619371938193919358
:101560002F01F2E000381F0709F07CCF86E694E0F7
:1015700058DA882309F46DC09DD98FE0809359040F
:101580008093540480934F0420E030E048EC52E410
:10159000609136037091370380913803909139033D
:1015A000AFD3C7D29B01AB0177FF04C044275527B7
:1015B000461B570B37FF02C066EF01C06AE087E5A4
:1015C00094E0EEDC20E030E048EC52E460913A0335
:1015D00070913B0380913C0390913D0391D3A9D23C
:1015E0009B01AB0177FF04C044275527461B570BCF
:1015F00037FF02C066EF01C06AE082E594E0D0DC0C
:1016000020E030E048EC52E46091460370914703DB
:10161000809148039091490373D38BD29B01AB0116
:1016200077FF04C044275527461B570B37FF02C0DE
:1016300066EF01C06AE08DE494E0B2DC10926604CB
:1016400039D9609368047093690480936A04909315
:101650006B048CE594E0E5D9882309F48FC02AD97E
:1016600060E083E0BDD88DEC92E087DB60914203BF
:10167000709143038091440390914503DDDB87ED36
:1016800092E07BDB609146037091470380914803B1
:1016900090914903D1DB80EE92E06FDB60916203B1
:1016A000709163038091640390916503C5DB88EEBC
:1016B00092E063DB6091350370E080E090E04AE007
:1016C0001CDB86EB92E008DB6091420370914303E0
:1016D00080914403909145032CD2613571059CF0B3
:1016E0006B3571051CF081E08093350360E08AE082
:1016F00077D861E089E074D860E083E071D860E079
:1017000084E06ED83BC0109235036091460370911F
:10171000470380914803909149030BD266337105CA
:101720006CF08CE035D8892B49F085EF92E025DB11
:1017300075DB60E08AE054D861E089C080EF92E018
:101740001CDB6CDB6091460370914703809148037A
:1017500090914903EED16F3271052CF48BE018D8CB
:10176000892B09F06BC010925C04A4D860935E04CE
:1017700070935F04809360049093610462E087E05B
:101780005DD862E088E05AD887E002D8892BF9F466
:10179000109271041092700420E030E040E85FE3A2
:1017A00060914603709147038091480390914903EB
:1017B00058D16093460370934703809348039093F6
:1017C000490364EF71E080E090E00E940C0388E040
:1017D0000E94C803892BF9F41092710410927004CE
:1017E00020E030E040E85FE36091460370914703FA
:1017F000809148039091490333D1609346037093DD
:101800004703809348039093490364EF71E080E0BD
:1018100090E00E940C0387E00E94C803892B29F402
:1018200088E00E94C803892B69F160E471E080E0E0
:1018300090E00E940C030E945902D5CD86E093E00F
:101840009CDAECDA61E08AE00E94F00360E089E073
:101850000E94F00360913103709132038091330351
:1018600090913403A7019601C6D2CA01B9010E9422
:101870000C0361E08AE00E94F00361E089E00E94CD
:10188000F00371CF81E080937104CFCFCF9310929A
:1018900079031092780388EE93E0A0E0B0E08093A3
:1018A0007A0390937B03A0937C03B0937D0384E938
:1018B00092E0909377038093760385EC90E0909389
:1018C00083038093820384EC90E09093850380935C
:1018D000840380EC90E0909387038093860381ECEF
:1018E00090E0909389038093880382EC90E090933A
:1018F0008B0380938A0386EC90E090938D03809312
:101900008C0310928F031092900310929103109207
:101910009203E5E1F4E01192119284E0E533F807D7
:10192000D1F7109213041092140460E082E00E9438
:101930001E04E4E0F2E0E491E0933F04EEEBF1E01A
:10194000E491F0E0EE0FFF1FEE55FE4F859194916C
:10195000909341048093400410924A0410924C04E6
:1019600010924B04EAE4F4E0129284E0E234F807C7
:10197000D9F7109235041092360480E991E0A0E086
:10198000B0E080933B0490933C04A0933D04B0935B
:101990003E040E945A046093370470933804809385
:1019A000390490933A0466E387E594E07DD968E3CF
:1019B00082E594E079D969E38DE494E075D91092D9
:1019C0007004C1E0C093710484EF91E0A0E0B0E046
:1019D0008093760490937704A0937804B09379046D
:1019E0000E945A0460937204709373048093740489
:1019F0009093750410926604C093670488E893E19D
:101A0000A0E0B0E080936C0490936D04A0936E040A
:101A1000B0936F040E945A04609368047093690441
:101A200080936A0490936B0410925C04C0935D04ED
:101A300080E69AEEA0E0B0E08093620490936304A5
:101A4000A0936404B09365040E945A0460935E04FA
:101A500070935F048093600490936104CF91089524
:101A60005058BB27AA270ED00DC1FED030F003D1AD
:101A700020F031F49F3F11F41EF4F3C00EF4E09512
:101A8000E7FBE9C0E92F0FD180F3BA1762077307AC
:101A90008407950718F071F49EF527C10EF4E095C0
:101AA0000B2EBA2FA02D0B01B90190010C01CA0118
:101AB000A0011124FF27591B99F0593F50F4503EC3
:101AC00068F11A16F040A22F232F342F4427585FB5
:101AD000F3CF469537952795A795F0405395C9F7CD
:101AE0007EF41F16BA0B620B730B840BBAF0915085
:101AF000A1F0FF0FBB1F661F771F881FC2F70EC024
:101B0000BA0F621F731F841F48F4879577956795F6
:101B1000B795F7959E3F08F0B3CF9395880F08F0DF
:101B20009927EE0F97958795089571D008F481E075
:101B3000089504D06894B111D9C00895BCD088F03C
:101B40009F5790F0B92F9927B751A0F0D1F0660FA9
:101B5000771F881F991F1AF0BA95C9F712C0B130C4
:101B600081F0C3D0B1E00895C0C0672F782F8827D7
:101B7000B85F39F0B93FCCF3869577956795B39503
:101B8000D9F73EF490958095709561957F4F8F4F72
:101B90009F4F0895E89409C097FB3EF49095809577
:101BA000709561957F4F8F4F9F4F9923A9F0F92F23
:101BB00096E9BB279395F695879577956795B795A1
:101BC000F111F8CFFAF4BB0F11F460FF1BC06F5F87
:101BD0007F4F8F4F9F4F16C0882311F096E911C099
:101BE000772321F09EE8872F762F05C0662371F0BA
:101BF00096E8862F70E060E02AF09A95660F771FCE
:101C0000881FDAF7880F9695879597F90895990FA9
:101C10000008550FAA0BE0E8FEEF16161706E807B6
:101C2000F907C0F012161306E407F50798F0621BD7
:101C3000730B840B950B39F40A2661F0232B242BAC
:101C4000252B21F408950A2609F4A140A6958FEFCB
:101C5000811D811D089597F99F6780E870E060E01D
:101C600008959FEF80EC089500240A941616170635
:101C700018060906089500240A941216130614067D
:101C800005060895092E0394000C11F4882352F0E0
:101C9000BB0F40F4BF2B11F460FF04C06F5F7F4F98
:101CA0008F4F9F4F089557FD9058440F551F59F07F
:101CB0005F3F71F04795880F97FB991F61F09F3F39
:101CC00079F087950895121613061406551FF2CF62
:101CD0004695F1DF08C0161617061806991FF1CFB2
:101CE00086957105610508940895E894BB276627D9
:101CF0007727CB0197F908958ADF08F48FEF0895CD
:101D00000BD0C0CFB1DF28F0B6DF18F0952309F073
:101D1000A2CFA7CF1124EACFC6DFA0F3959FD1F3BE
:101D2000950F50E0551F629FF001729FBB27F00D89
:101D3000B11D639FAA27F00DB11DAA1F649F6627DE
:101D4000B00DA11D661F829F2227B00DA11D621F2D
:101D5000739FB00DA11D621F839FA00D611D221FE7
:101D6000749F3327A00D611D231F849F600D211DCB
:101D7000822F762F6A2F11249F5750408AF0E1F06E
:101D800088234AF0EE0FFF1FBB1F661F771F881FB7
:101D900091505040A9F79E3F510570F05CCFA6CFFF
:101DA0005F3FECF3983EDCF3869577956795B795A2
:101DB000F795E7959F5FC1F7FE2B880F911D9695CC
:101DC000879597F9089523DF880B990B0895AA1B2F
:101DD000BB1B51E107C0AA1FBB1FA617B70710F016
:101DE000A61BB70B881F991F5A95A9F78095909548
:101DF000BC01CD010895A1E21A2EAA1BBB1BFD0157
:101E00000DC0AA1FBB1FEE1FFF1FA217B307E407D9
:101E1000F50720F0A21BB30BE40BF50B661F771F31
:101E2000881F991F1A9469F7609570958095909511
:101E30009B01AC01BD01CF010895EE0FFF1F881F6C
:101E40008BBF0790F691E02D199481E090E0F89413
:061E500000C0F894FFCF72
:101E560028B845A30900002C28FD10C0040000FD89
:101E660028FFA8A5601802EE28FF0964681801611A
:101E760028FF19E16718011A28FFF9A9601802A4BA
:101E860028010000000000002800000000000000FB
:101E960028000000000000002800000000000000EC
:101EA60028000000000000002800000000000000DC
:101EB60028000000000000002800000000000000CC
:101EC60028000000000000002800000000000000BC
:101ED6003F065B4F666D7D077F6F777C395E797154
:101EE60000000000EC01560184013802B50193019F
:101EF600A70174696D6520666F2072656754657306
:101F060074313A2020000D0A0074696D6520666FF1
:101F16002072656754657374323A2020000A706F28
:101F2600646163686120006F627261746B61200096
:101F36006E697A20544120006661696C757265008D
:101F4600656C7365205065726567726576206F6291
:101F56007261746B69004E65646F67726576206F97
:101F6600627261746B69006E616E00696E66006F05
:041F7600766600008B
:00000001FF
